:020000040000FA
:02000000262AAE
:08000800C608031D08280800CA
:10001000F9300000000000000000000000000000B7
:1000200000000000000000000000FF3E031D092842
:1000300000000000000000000000000000000000C0
:1000400000000000000000000000C60B08280800A7
:100050004F08240091001F301605031914192B288E
:1000600008008030CC00CD01CE018030CF002200CE
:100070008C122000CC08031D4028CD0803198028CD
:1000800022000C1220004C084A05D0004D084B05F8
:10009000D100D201D0080319D20AD108031DD20120
:1000A000D301D2080319D30A531C582822000C1478
:1000B000200053185D2822000C1020004E084A052D
:1000C000D0004F084B05D100D201D0080319D20A45
:1000D000D108031DD201D301D2080319D30A531C3E
:1000E000732822008C1420005318782822008C10CA
:1000F00022000C162000CD36CC0CCF36CE0C392881
:1001000022008C16080020009111240016152000F2
:10011000911D872808009111240016142000911DBC
:100120008E284E08CF00CF3528200800C801C9010D
:10013000461CA6282008C8042108C9042808C804A9
:100140002908C9043008C8043108C904C61CB428E9
:100150002208C8042308C9042A08C8042B08C904B3
:100160003208C8043308C904461DC2282408C8043C
:100170002508C9042C08C8042D08C9043408C8047B
:100180003508C904C61DD0282608C8042708C90494
:100190002E08C8042F08C9043608C8043708C90443
:1001A0004808CA004908CB00312008006030CE0062
:1001B0008B2020004908CF000F30CF0528202000D9
:1001C0004808CF00282020004D08CF000F30CF0571
:1001D000282020004C08CF00282020004B08CF000A
:1001E0000F30CF05282020004A08CF00282020000B
:1001F0004708CF000F30CF05282020004608CF0049
:10020000282083200800CE01CF01CA01CB01CC01F8
:1002100010304C05CD00CD08031D0800CA35CB0DAC
:10022000C60DC70DCE0DCF0D49084F02031D1A296B
:1002300048084E02031C23294808CE024908031C23
:10024000CF03CF024A14CC0A0829C601C901CA014A
:100250003C08C7003D08C800461A08003E1C362965
:100260004708C90748080318480FCA070310BF0CFE
:10027000BE0C0310C70DC80DC60A2C292000B801FA
:10028000B90122000C110E1520003808C6003908EB
:10029000C7000430C800C90103214E08BE004F0842
:1002A000BF00E830BC000330BD0025214908BA007A
:1002B0004A08BB003808C6003908C700C60A031937
:1002C000C70A0430C800C90103214E08BE004F0808
:1002D000BF00E830BC000330BD0025214908C00044
:1002E0004A08C10002303807C6003908C7000318A1
:1002F000C70A0430C800C90103214E08BE004F08D8
:10030000BF00E830BC000330BD0025214908C20011
:100310004A08C30003303807C6003908C70003186D
:10032000C70A0430C800C90103214E08BE004F08A7
:10033000BF00E830BC000330BD0025214908C400DF
:100340004A08C5003A08C6003B08C7004008C80074
:100350004108C9004208CA004308CB004408CC0049
:100360004508CD00D6203808C6003908C7009620B9
:1003700020008E19B8296430C60004208E1DBE29C5
:100380006430C6000420B80A0319B90AC601220065
:100390000C19CC292000C60A2000461CD1292200B5
:1003A0000C1520004618D62922000C112000C60189
:1003B00022000C19DD292000C60A2000461CE22973
:1003C00022000E1520004618442922000E1144294F
:1003D00021000E148E14240095161516951515116E
:1003E000951015109417023092000800603020001C
:1003F000CE008B208F302000CF002820832060305B
:10040000CE008B20CF302000CF0028208320080092
:100410007A3021009900C8308C00FB308E00230018
:100420008C018E0120008C018E0122000C150E150E
:10043000FF302000C6000420FF30C6000420E82161
:10044000F6213E2122000C110E110800043020007C
:10045000A000A1010830A200A3010230A400A50160
:100460000130A600A701A8010130A900AA010230AD
:10047000AB00AC010430AD00AE010830AF00B001FC
:100480001030B100B2012030B300B4014030B500EB
:0A049000B6018030B7008031082A61
:020000040001F9
:02000E00A4FF4D
:02001000FFDE11
:00000001FF
