:020000040000FA
:040000009831F92C0E
:0400080098313A2DC4
:02000E00BC082C
:10001000031D0B280800F93000000000000000005C
:1000200000000000000000000000000000000000D0
:10003000FF3E031D0C28000000000000000000002F
:1000400000000000000000000000000000000000B0
:10005000BC0B0B280800230095182B2824004E0801
:100060002300910024004F082300930095131515D9
:10007000240050108B1B50148B1355302300960016
:10008000AA30960095141511240050188B17501C97
:100090008B1308002500AB01AC01AB19080024004C
:1000A000471C552846082500AC072400C70C031040
:1000B000C60D2500AB0A4D28C501C601C701C80100
:1000C000C901C21F6F28C517C109C209C309C409E4
:1000D000C10A0319C20A0319C30A0319C40AC51ABB
:1000E0008D28411C81283D08C6073E0803183E0F95
:1000F000C7073F0803183F0FC80740080318400F01
:10010000C9070310C40CC30CC20CC10C0310BD0DF5
:10011000BE0DBF0DC00DC50A6F28C51F0800C6095A
:10012000C709C809C909C60A0319C70A0319C80AB1
:100130000319C90A0800BB01BC01BD01BE01C10110
:10014000C201C301C401BF0120303F05C000C00887
:10015000031D0800C135C20DC30DC40DB10DB20D94
:10016000B30DB40DBB0DBC0DBD0DBE0D38083E0268
:10017000031DC42837083D02031DC42836083C026D
:10018000031DC42835083B02031CD5283508BB02D3
:100190003608031C360FBC023708031C370FBD029C
:1001A0003808031C380FBE024114BF0AA428E70117
:1001B000E8016408003A0319FF28013A03190329EA
:1001C000033A03190729013A03190B29073A0319BE
:1001D0000F29013A03191329033A03191729013A80
:1001E00003191B290F3A03191F29013A031923295F
:1001F000033A03192729013A03192B29080004306F
:10020000E700E8012E290830E700E8012E29023036
:10021000E700E8012E290130E700E8012E29E70177
:100220000130E8002E29E7010230E8002E29E7011D
:100230000430E8002E29E7010830E8002E29E70104
:100240001030E8002E29E7012030E8002E29E701D0
:100250004030E8002E29E7018030E800E508031966
:10026000B32963088500620A8400001C3E296708E0
:100270002200E204240068082200E3042400E608C7
:10028000031961292200EC08031961292400670879
:10029000220064052400E9006808220065052400A6
:1002A000EA00E908031D8229EA08031D822967087C
:1002B0002200E404240068082200E5040130EF0075
:1002C0008229240063088500620A840000187829C6
:1002D0006708220060052400E90068082200610523
:1002E0002400EA00E908031D8229EA08031D822987
:1002F00067082200E004240068082200E1040130BD
:100300002300EC00240063088500620884000230AA
:1003100084070008803A0319003A031D97296108F1
:10032000850060088400220069088000A529630810
:10033000850062088400023084070008E900610833
:100340008500600884006908800024006108850039
:1003500060088400800803190800610885006008AF
:100360008400800A08006709E9006809EA00690852
:100370002200E40524006A082200E505240067083D
:1003800022006005031DCA292400680822006105B7
:100390000319D92924006709E9006809EA006908F6
:1003A0002200E00524006A082200E1050130230054
:1003B000EC002400610885006008840000308000A3
:1003C00008004A08003C4B080318031DCB1B08001B
:1003D0004D0885004C0884000008CE0049088500BF
:1003E000480884000008CF002B204D0885004C08E9
:1003F00084000008CE00840ACE0A0319800A840310
:100400004E088000C80A0319C90ACA080319CB0399
:10041000CA03E1294F0885004E088400840A183079
:10042000D00080018403500880000130D100D43016
:10043000D00008004F0885004E088400840A02306E
:10044000D00080018403500880000130D100683062
:10045000D00008004F0885004E088400840A5430FC
:10046000D00080018403500880000030D10020308B
:10047000D000080001308500A030840024006F08FF
:10048000C6000730C7004A202C08840703308407C1
:1004900080080319EE2A01308500A0308400240072
:1004A0006F08C6000730C7004A202C0884070330B5
:1004B00084070008A300A401A501A6014030A302FF
:1004C0000030AB00031C2B0FA4020030AB00031C58
:1004D0002B0FA5020030AB00031C2B0FA60201302E
:1004E0008500A030840024006F08C6000730C700D4
:1004F0004A202C088407023084070008A700A801BE
:10050000A901AA014030A7020030AB00031C2B0F49
:10051000A8020030AB00031C2B0FA9020030AB0077
:10052000031C2B0FAA022008BD002108BE00BF013A
:10053000C001A11F9D2ABF03C0030030C1002308D2
:10054000C1071030C2002408C23D0030C300250896
:10055000C33D0030C4002608C43D5C204608B100FD
:100560004708B2004808B3004908B900BA01390881
:10057000B400B91FC72AB109B209B309B409B10A55
:100580000319B20A0319B30A0319B40ABA0A0030EC
:10059000B5001030B600B701B8019B204108AB0090
:1005A0004208AC004308AD004408AE003A1CE32A00
:1005B000AB09AC09AD09AE09AB0A0319AC0A0319C2
:1005C000AD0A0319AE0A27082B07AF002808B000B0
:1005D0002C08B03D2F08A0003008A100A11FF22A6E
:1005E000A001A10121080F3C031DF82A2008FF3CAF
:1005F0000318002BA11B002BFF30A0000F30A1001F
:1006000000308500E030840024006F082500A2003F
:100610000310220D84070008A300840A2308200683
:10062000031D162B00082106031908000030850061
:10063000E030840024006F082500A3000310230D80
:100640008407840A2008A400210880008403240869
:10065000800001302200EC0008004F0885004E08A1
:100660008400840A1C30D00080018403500880007C
:100670000130D100A030D00008002500A2012400E4
:10068000EF012500A00108302005A100A108031DED
:1006900008002400EF35D00D2500A20D24005108DC
:1006A00025002202031C572BA20024006F142500F2
:1006B000A00A432BC501C601C701C801C901C51A5B
:1006C0000800391C712B2A08C6072B0803182B0FAA
:1006D000C7072C0803182C0FC8072D0803182D0F67
:1006E000C9070310BC0CBB0CBA0CB90C0310AA0D43
:1006F000AB0DAC0DAD0DC50A5F2BE901EC01ED01B1
:100700006508EA006608EB00691A0800671C8E2B72
:100710006A08EC076B0803186B0FED070310E80C71
:10072000E70C0310EA0DEB0DE90A842BEF0125001D
:10073000A201A00108302005A100A108031D0800A6
:10074000A2352400ED0DEF0D6E086F02031CAB2BDC
:10075000EF00250022142500A00A9A2B2400C401D2
:10076000C501CE01A930CF002B200130C600C70142
:100770000230CF004430CE001A225008C800510881
:10078000C9004408CA004508CB000230CD004630FD
:10079000CC00E1210230CF004430CE000A225008C4
:1007A000C8005108C9004408CA004508CB000230FF
:1007B000CD004630CC00E1210230CF004430CE00E5
:1007C0002D235008C8005108C9004408CA00450834
:1007D000CB000230CD004630CC00E1210230CF000A
:1007E0004430CE002A225008C8005108C9004408ED
:1007F000CA004508CB000230CD004630CC00E121D4
:1008000008003C08C0003D08C1003F08003C031838
:10081000142C4108850040088400C00A0319C10A4D
:100820003E088000BF03052C3C08C2003D08C30001
:100830000800350891001F301605031914191B2CE8
:100840000800D7010C305702031808000130D90006
:10085000BC30D8005708DA0003105A0DD807031827
:10086000D90A0030DE002030DD005708C60007300E
:10087000C7004A202C0824005D07DB005E08DC006E
:100880000318DC0A5C0885005B08840003308407D9
:1008900056080006031D422D5C0885005B08840095
:1008A0000008DF005F08813A0319662C033A031938
:1008B0008B2C013A0319B02C073A0319D42C013AB6
:1008C0000319F92C033A03191E2D422D55080A3A33
:1008D000031D792C5808E0005908E1005B08E2008C
:1008E0005C08E3005708E4000130E500E600D7208B
:1008F000422D5508093A031D422D5808E0005908B9
:10090000E1005B08E2005C08E3005708E400E50151
:10091000E601D720422D5508093A031D9E2C5808A0
:10092000E0005908E1005B08E2005C08E3005708BA
:10093000E4000130E500E600D720422D55080A3AD0
:10094000031D422D5808E0005908E1005B08E20051
:100950005C08E3005708E400E501E601D720422DDA
:100960005503031DC22C5808E0005908E1005B083C
:10097000E2005C08E3005708E4000130E500E6000F
:10098000D720422D5508053A031D422D5808E00096
:100990005908E1005B08E2005C08E3005708E40046
:1009A000E501E601D720422D5508023A031DE72C48
:1009B0005808E0005908E1005B08E2005C08E30029
:1009C0005708E4000130E500E600D720422D550825
:1009D000063A031D422D5808E0005908E1005B0863
:1009E000E2005C08E3005708E400E501E601D720D7
:1009F000422D5508033A031D0C2D5808E0005908F4
:100A0000E1005B08E2005C08E3005708E400013005
:100A1000E500E600D720422D5508073A031D422D78
:100A20005808E0005908E1005B08E2005C08E300B8
:100A30005708E400E501E601D720422D5508043AA5
:100A4000031D312D5808E0005908E1005B08E20061
:100A50005C08E3005708E4000130E500E600D72019
:100A6000422D5508083A031D422D5808E000590848
:100A7000E1005B08E2005C08E3005708E400E501E0
:100A8000E601D720D70A222C4B08EF004C08E500DE
:100A9000E601F430E7000130E8007D236C08250012
:100AA000A00024006D082500A1003A2208000315CB
:100AB000031D602D0315031D602D03150319652DFE
:100AC000E301E401E501E601712D0830FF39031966
:100AD000712DE335E40DE50DE60D0318E617FF3E35
:100AE000662D67082500A000240068082500A100E5
:100AF000A201A3012400E81F802D2500A203A30367
:100B0000250020082400E307250021082400E43DF7
:100B1000250022082400E53D250023082400E63DA9
:100B200063082500BD00240064082500BE002400E1
:100B300065082500BF00240066082500C0002400C9
:100B400069082500C10024006A082500C2002400AD
:100B50006B082500C30024006C082500C4005C203D
:100B600046082400ED00250047082400EE0025007B
:100B700048082400EF0025004908A00024006D0863
:100B8000E3006E08E4006F08E5002500200824005B
:100B9000E600ED0163082500B1002400640825008B
:100BA000B200240065082500B30024006608250073
:100BB000B4002400E61FEA2D2500B109B209B309EB
:100BC000B409B10A0319B20A0319B30A0319B40A22
:100BD0002400ED0A0C302500B500B601B701B801BC
:100BE0009B2041082400E300250042082400E40083
:100BF000250043082400E500250044082400E60001
:100C00006D1C0D2EE309E409E509E609E30A031961
:100C1000E40A0319E50A0319E60A0030003800382F
:100C2000FF390319212E660DE301E401E501E60118
:100C30000318E3030318E4030318E5030318E603AA
:100C4000242E0830ED00ED0803192D2E660DE60C5C
:100C5000E50CE40CE30CED03242E6208EF006308BE
:100C60002500A000240064082500A1003A22080005
:100C70000315031D412E0315031D412E03150319F2
:100C8000462EE301E401E501E601522E0830FF396A
:100C90000319522EE335E40DE50DE60D0318E617B2
:100CA000FF3E472E67082500A000240068082500A5
:100CB000A100A201A3012400E81F612E2500A203C8
:100CC000A303250020082400E307250021082400B1
:100CD000E43D250022082400E53D250023082400EA
:100CE000E63D6308EF00003064052500A000240005
:100CF0006F08E700250020082400E80000300038D5
:100D00000038FF390319922E660DE301E401E50175
:100D1000E6010318E3030318E4030318E5030318CB
:100D2000E603952E0830EF00EF0803199E2E660D9E
:100D3000E60CE50CE40CE30CEF03952E6308483C4D
:100D4000031DB32E6408003C031DB32E6508003C50
:100D5000031DB32E6608003C031DB32EA030E9002E
:100D60000F30EA001C2F6308D0000C30D1003D2367
:100D700022082400EB006B08003A0319E12E013A27
:100D80000319E62E033A0319EB2E013A0319F02E4C
:100D9000073A0319F52E013A0319FA2E033A0319FB
:100DA000FF2E013A0319042F0F3A0319092F013AB4
:100DB00003190E2F033A0319132F013A0319182FA1
:100DC0001C2FD030E9000730EA001C2F4730E90023
:100DD0000830EA001C2FC530E9000830EA001C2F5B
:100DE0004A30E9000930EA001C2FD830E900093008
:100DF000EA001C2F6E30E9000A30EA001C2F0C308C
:100E0000E9000B30EA001C2FB530E9000B30EA0096
:100E10001C2F6730E9000C30EA001C2F2430E90059
:100E20000D30EA001C2FEC30E9000D30EA001C2FD9
:100E3000BF30E9000E30EA0069082500AA0024004E
:100E40006A082500AB00AC01AD012400EA1F2B2F7E
:100E50002500AC03AD03F4302500B900BA01BB0195
:100E6000BC015A234608BD004708BE004808BF0021
:100E70004908C000240067082500C1002400680854
:100E80002500C200C3012400E81F482F2500C3032A
:100E90002500C4012400E81F4F2F2500C4032500AE
:100EA0005C204608B1004708B2004808B300490872
:100EB000A900AA012908B400A91F6A2FB109B20923
:100EC000B309B409B10A0319B20A0319B30A031921
:100ED000B40AAA0A0030B500B600B8001030B70056
:100EE0009B2041082400EF0025004208A0002A1C96
:100EF000832F2400EF092500A0092400EF0A031D19
:100F0000832F2500A00A24006F08E9072500200888
:100F10002400EA3D6308ED000C30EE009623220821
:100F20002400EC006C08053C0318982F0530EC00F9
:100F3000EF016C08053C2500A0000318A12F240038
:100F4000EF032400EF080319AD2F6A0DE901EA0150
:100F50000318E9030318EA03B82F2500A0080319B2
:100F6000B82F24006A0DEA0CE90C2500A003AF2F6E
:100F700024006208EF0069082500A00024006A0828
:100F80002500A1003A2208003F08EF004008250094
:100F9000AA00240041082500AB00AC01AD012400EB
:100FA000C11FD52F2500AC03AD0324004208250046
:100FB000B900BA01BB01BC015A234608A00047088A
:100FC000A10048082400C900250049082400C800E1
:100FD000C90C2500A10CA00C2400C90C2500A10CF3
:100FE000A00C2400C90C2500A10CA00C2400C90CE5
:100FF0002500A10CA00C2400C90C2500A10CA00CFC
:101000003A22080063087F3C031808287F30E30079
:101010006208EF006308E500E6016408E700E80104
:1010200080317D236C082500A00024006D08250078
:10103000A100A00DA10DA00DA10DFC30A0053A222C
:101040000800D2080319AA28D601D7015008850044
:101050004F0884000530840700085602570803181B
:10106000332803193528D71F5528500885004F0805
:101070005607840051080002031842285308033A17
:1010800003195528500885004F08560784000008AA
:10109000510203184E28530303195528D308031986
:1010A0005528D60A0319D70A2628500885004F0864
:1010B00084000530840705300002031866285008B4
:1010C00085004F08840005308407800A5008850099
:1010D0004F0884000530840700085602570803189B
:1010E000732803197528D71F0800500885004F087A
:1010F000840005308407D50102300002D400031CAF
:10110000D5035508803AD8005708803A5802031D85
:101110008B2856085402031CA228500885004F084B
:1011200084005408D800580884070008D9004F08E4
:101130008400540A840759088000D4080319D50391
:10114000D4038128500885004F08560784005108B1
:1011500080000800D401D501500885004F088400A4
:10116000053084070008540255080318B9280319EC
:10117000BB28D51F0800500885004F08540784007D
:1011800051080006031DED28500885004F08840013
:10119000053084078003500885004F08840005301F
:1011A00084070008540255080318D8280319DA28C0
:1011B000D51FED28500885004F088400540AD80038
:1011C000580884070008D9004F08540784005908BC
:1011D0008000D40A0319D50ACB28D40A0319D50AEA
:1011E000AC2801302400BD002030BC00BE014030DE
:1011F000BF00803101240930D500D60121240930F7
:10120000D5000130D60021240930D5000230D600A7
:1012100021240930D5000330D600212408000430F1
:101220004002031C1529CA0108000130C900D4304E
:10123000C8004008C6000630C70080314A202C088C
:1012400024004807C4004908C5000318C50A41081E
:10125000023A883103193C29013A03196C29073AEB
:1012600003197529013A03198029023A03198B29B8
:101270000F3A03199629A5294208013A031947296B
:10128000033A03195029023A0319592959294508E3
:10129000850044088400803080000130CA000800C6
:1012A0004508850044088400813080000130CA0070
:1012B000080001304302031CA5294308103C031C0D
:1012C000A5294303CB0045088500440884004B084A
:1012D00080000130CA00080045088500440A8400E7
:1012E000430880000130CA00080045088500440812
:1012F000840002308407430880000130CA000800DF
:1013000045088500440884000330840743088000B2
:101310000130CA00080045088500440884000430F4
:101320008407430880000130CA0008000E304302E1
:101330000318A52945088500440884000530840762
:10134000430880000130CA000800CA0108002000DC
:101350009111240016152000911DAB2908002000D2
:101360009111240016142000911DB3292400340883
:10137000B500B5358031192408004008023A031938
:10138000C8290E3A0319DB29683A0319E629EB2923
:101390004108003A031DCC2901304202031CEB290D
:1013A0004208103C031CEB2942032200E8000130F4
:1013B0002400C30008004108013A031DEB2942083C
:1013C0002200E90001302400C30008008031AE2370
:1013D0000130C3000800C30108002400BB010C3029
:1013E0003B02031808000030C1002030C0003B0859
:1013F000C6000730C70080314A202C08240040076F
:10140000BC004108BD000318BD0A0130C900BC3052
:10141000C8003B08CA0003104A0DC8070318C90AD0
:101420004908850048088400003080003D08850098
:101430003C0884000008CB004B08143A883103199B
:10144000252A013A0319252A342A3D0885003C083B
:101450008400043084070008CC0049088500480A4D
:1014600084004C0880003A2A49088500480A840014
:10147000FF3080004808E0004908E1003C08E20035
:101480003D08E3003B08E400E501E6018031D72098
:10149000BB0A8831EF290C304002031C512ACD01D0
:1014A00008000030C9002030C8004008C6000730DE
:1014B000C70080314A202C0824004807C40049088E
:1014C000C5000318C50A0130CB00BC30CA00400873
:1014D000CC0003104C0DCA070318CB0A4108013A8F
:1014E00088310319892A033A0319602B013A031939
:1014F000962B073A0319A72B013A0319B22B083A86
:101500000319BD2B013A0319C82B073A0319052CFF
:10151000102C4208003A0319B52A0B3A0319BE2AC7
:10152000073A0319BE2A013A0319BE2A033A0319DE
:10153000BE2A0F3A0319072B033A0319262B013A47
:101540000319262B173A03193F2B013A03193F2B96
:10155000033A03193F2B013A03193F2B0E3A0319A3
:101560003F2B033A03193F2B102C450885004408F4
:101570008400003080000130CD0008000B304202B2
:10158000CE004508850044088400033084074E08D7
:101590008000440884000230840780308000440AC0
:1015A0008400003080004308013A0319E72A033A17
:1015B0000319E72A013A0319E72A073A0319E72A28
:1015C000043A0319F52A053A0319FE2A102C43039D
:1015D000CE004E08833ECF004508850044088400B5
:1015E0004F0880000130CD00080045088500440800
:1015F0008400823080000130CD000800450885005D
:1016000044088400813080000130CD000800450886
:101610008500440884000130800003308407813055
:101620008000440884000430840743088000440894
:1016300084000530840700308000440884000630B0
:101640008407003080000130CD0008004508850087
:101650004408840042088000033084078130800001
:101660004408840004308407430880004408840050
:1016700005308407403080000130CD000800450867
:10168000850044088400420880000430840700304C
:101690008000C3080319552B4508850044088400C1
:1016A00003308407430880005D2B4508850044080B
:1016B000840003308407063080000130CD0008002C
:1016C0004208003A03196B2B013A0319802B033AA5
:1016D00003198B2B102C01304302031C102C4308E0
:1016E000103C031C102C4303CE0045088500440821
:1016F0008400033084074E0880000130CD000800CC
:101700004508850044088400033084078030800049
:101710000130CD00080045088500440884000330EE
:101720008407813080000130CD0008004508850025
:10173000440884000430840743088000440884007F
:1017400005308407003080000130CD0008004508D6
:101750008500440884000530840743088000013078
:10176000CD00080045088500440884000630840741
:10177000430880000130CD0008004508850044087A
:10178000840005308407430880000130CD00080044
:101790004208013A0319D62B013A0319E12B023A08
:1017A0000319EC2B013A0319F72B102C450885007F
:1017B0004408840002308407430880000130CD00D3
:1017C0000800450885004408840002308407003082
:1017D00080000130CD0008004508850044088400E1
:1017E00002308407803080000130CD0008004508B9
:1017F0008500440884000230840700308000440AD9
:10180000840000140130CD0008004508850044081C
:10181000840004308407430880000130CD000800B4
:10182000CD01080023009518122C24003F08230046
:1018300091009513151413082400C000080000300F
:101840002400BD00E830BC00BE010830BF0080317C
:101850000124BB0104303B02883103187D2C013088
:101860008500A03084003B08C6000730C7008031E7
:101870004A202C08840700082400BC003C08073AD2
:1018800088310319472C043A03195C2C742C3B084B
:10189000CB0001308500A03084003B08C600073033
:1018A000C70080314A202C088407840A00082400DD
:1018B000CC0044258831792C3B08BF00C001203082
:1018C000C10001308500A03084003B08C60007300D
:1018D000C70080314A202C088407840A00082400AD
:1018E000C200C4278831792C3B08CB00CC01803161
:1018F00044252400BB0A88312A2C01302200EC0048
:1019000008004008043C0318872CCA010800013075
:10191000C900A030C8004008C6000730C7008031A9
:101920004A202C0824004807C4004908C5000318B1
:10193000C50A4108013A88310319B12C033A031949
:101940006E2D0C3A0319A42D013A0319AF2D1F3A3D
:101950000319C02D723A0319DE2D013A0319E92D3E
:10196000F42D4208003A0319D12C7F3A0319E02CD8
:101970006B3A0319EC2C163A0319F82C073A0319A1
:101980000F2D013A0319202D0F3A0319312D073A73
:101990000319312D013A0319312D033A0319312D61
:1019A000F42D4008CB00CC018031442524004508AB
:1019B000850044088400003080000130CA0008001F
:1019C000450885004408840007308000840A0530FB
:1019D00080000130CA0008004508850044088400E2
:1019E00006308000840A053080000130CA000800FB
:1019F00045088500440884000530800004308407D1
:101A0000813080004408840005308407430880004A
:101A1000440A8400053080000130CA0008004508EF
:101A2000850044088400043080000430840781303D
:101A30008000440A8400053080000130CA0008009C
:101A40004508850044088400033080000430840782
:101A500081308000440A8400053080000130CA00D3
:101A600008000B304202CB00450885004408840082
:101A7000043084074B0880004308013A03194D2DB8
:101A8000033A03194D2D013A03194D2D073A031955
:101A90004D2D103A0319622DF42D45088500440898
:101AA0008400013080004303CB00053084074B08DD
:101AB00080004408840006308407403080000130F4
:101AC000CA000800450885004408840002308000F0
:101AD000840A053080000130CA0008004208003A3C
:101AE0000319792D013A03198E2D033A0319992D03
:101AF000F42D01304302031CF42D4308103C031C59
:101B0000F42D4303CB0045088500440884000430CD
:101B100084074B0880000130CA0008004508850092
:101B20004408840004308407803080000130CA00FB
:101B3000080045088500440884000430840781308B
:101B400080000130CA000800450885004408840070
:101B500006308407430880000130CA0008000030C6
:101B60004302031CF42D4308083C031CF42D4508D4
:101B70008500440A8400430880000130CA00080040
:101B80004303031DCA2D450885004408840008301E
:101B90008000DB2D4308023A031DD52D4508850042
:101BA0004408840009308000DB2D45088500440886
:101BB0008400013080000130CA000800450885001B
:101BC0004408840003308407430880000130CA00C1
:101BD0000800450885004408840002308407430853
:101BE00080000130CA000800CA010800DC0104308E
:101BF0005C02031808000130E000A030DF005C0840
:101C0000C6000730C70080314A202C0824005F0737
:101C1000DD006008DE000318DE0A5E0885005D084E
:101C20008400800888310319472F5E0885005D080D
:101C300084000430840756080006031D472F013036
:101C4000DB002030DA00560EF039DA070318DB0A21
:101C50005E0885005D0884000008E1006108013A23
:101C600003193C2E093A03193C2E013A03193C2E64
:101C70000B3A0319282F472F5508013A03194D2E07
:101C8000033A03194D2E013A03194D2E073A031951
:101C90004D2E0F3A03199D2E472F5503D7005E088E
:101CA00085005D0884000530840757080006031D81
:101CB0009D2E5E0885005D088400063084070008BC
:101CC000E400D9014030E402031CD9035B0885001D
:101CD0005A08840006308407570884070008D80093
:101CE000E3016408D8076308D93D1830D802031C03
:101CF000D903D91F802E0C30D8070318D90A792EA2
:101D00005808783C59080318031DD91B8C2E0C3039
:101D1000D802031CD903802E00308500E8308400EF
:101D20005C08E2000310620D8407840A5808E3008F
:101D3000590880008403630880005E0885005D0800
:101D400084000008083A031DCA2E5C08E200003037
:101D50008500E83084005C08E9000310690D840701
:101D60000008E300840A0008E400E501E601801FA2
:101D7000BB2EE503E6035B0885005A0884000A30A1
:101D800084070008E700840A0008E800803138264C
:101D90008831472F5E0885005D0884000008093AF5
:101DA000031DFD2E5C08E20000308500E830840051
:101DB0005C08ED0003106D0D84070008E300840A41
:101DC0000008E400E501E601801FE82EE503E603D4
:101DD0005B0885005A0884000A3084070008E70081
:101DE000840A0008E8005830E9000230EA00EB01FC
:101DF000EC01803157258831472F5C08E200003024
:101E00008500E83084005C08ED0003106D0D840748
:101E10000008E300840A0008E400E501E601801FF1
:101E2000132FE503E6035B0885005A0884000A3097
:101E300084070008E700840A0008E800F430E9009D
:101E40000130EA00EB01EC01803157258831472F42
:101E50005508013A0319362F033A0319362F013A70
:101E60000319362F073A0319362F472F5C08E20073
:101E70005B0885005A0884000E3084070008E300E0
:101E80005E0885005D0A84000008E400022024004A
:101E9000DC0A8831F72D3A08003C3B080318031D83
:101EA000BB1B08003D0885003C0884000008BF00FB
:101EB00012244008BE0039088500380884003E0816
:101EC00080003D0885003C0884000008BE00840AAC
:101ED000BE0A0319800A84033E088000B80A031969
:101EE000B90ABA080319BB03BA034B2FBF013B0859
:101EF000013A0319B82F0A3A0319C32F073A0319F5
:101F0000C32F013A0319C32F033A0319C32F113A00
:101F10000319D02F3F3A0319D02F013A0319D02FBC
:101F2000033A0319D02F013A0319D02F073A0319A6
:101F3000D02F013A0319D02F033A0319D02F013AB9
:101F40000319D02F0F3A0319D02F013A0319D02FBC
:101F5000033A0319D02F3F3A0319DD2F033A03192F
:101F6000DD2F013A0319DD2F0F3A0319DD2FE92F79
:101F70003C08C0003D08C1003E08C200BD21430826
:101F8000BF008831E92F0B303B02C0003C08C10084
:101F90003D08C2003E08C3000F214A08BF00E92FD8
:101FA0001F303B02C0003C08C1003D08C2003E0893
:101FB000C3004B224D08BF00E92F15303B02C00083
:101FC0003C08C1003D08C2003E08C30081244A0805
:101FD000BF00BF080319080022000E15FF30EB00F8
:101FE0000800C908903103193E28430885004208BB
:101FF000840006308407CA01831BCA0A0408CB0088
:10200000420884000F3084070008CB074B08840087
:1020100083134A1883174808800043088500420844
:1020200084000F308407000AD5004408D6008831A8
:10203000F62543088500420884000F308407000A13
:10204000D5004408D600803121240A30D500440848
:10205000D600212443088500420884000F308407FD
:10206000800A45080002031C080043088500420856
:1020700084000F308407003080000800CA01CB01C3
:1020800004304B0203186C28430885004208840082
:10209000063084074B08840748080006031D69289A
:1020A0004308850042088400063084074B088407F3
:1020B0000008CA0442088400063084074B088407DD
:1020C000003080004B08053ED5004408D600803122
:1020D0002124CB0A90314028CA08031D080009308A
:1020E000D5004408D6008031212408006630240041
:1020F000B4008831AF218F30B50019248831A72171
:1021000066302400B400AF21CF30B50019248831E7
:10211000A72108004208CF004308D0004A08D10098
:102120004B08D2004808D300883121204508CD0053
:1021300043088500420884000530840780089031F8
:1021400003191F29CB080319A628AA282A0849051C
:1021500003191F29430885004208840005308407BD
:102160000008CD0029084905031DBA284D0845027D
:102170000318BC284508CD00CC014D084C020318BB
:102180000E294308850042088400D201831BD20A2D
:102190000408D300053084074C08D0000008D100A3
:1021A00080313D2322082400D30753088400831381
:1021B000521883170008CF0029084905D4004308A6
:1021C000850042088400063084074C0884074F08C5
:1021D000000690310319FE28430885004208840058
:1021E000063084074C0884074F0880004C0AD5004D
:1021F0004408D6008831F6250130D400CB08903150
:1022000003190B29D40803190B294C0AD5004408DB
:10221000D60080312124CC0A9031BD28CB08031987
:102220001F2943088500420884000E3084074B08AC
:1022300080000A30D5004408D60080312124CE0128
:10224000CC0145084C02903103185E2943088500F3
:1022500042088400063084074C088407800803196C
:102260005B294D084C0203184829CB08031D5B2944
:102270004308850042088400063084074C08840720
:102280004A080006031948292B08490503195B2948
:102290004C08053ED5004408D6008031212443086F
:1022A000850042088400063084074C08840700300B
:1022B00080000130CE00CC0A90312129CE080319CC
:1022C0000800430885004208840005308407800820
:1022D000031D08000930D5004408D60080312124B0
:1022E00008008831ED211F24F12008002000911002
:1022F000911221009110911623001F129F159F101B
:102300001F101E139E121E129E111E111E109D17CD
:102310001D139D161D169C011F309B0008002100F7
:10232000951295111511951415148B160B110800A3
:102330002400BF01883112244008A93A031D080077
:10234000B401B5010130B600B7010230CF0034301E
:10235000CE0080311A225008B8005108B900340864
:10236000BA003508BB000230BD003630BC008831F1
:102370004B270230CF003430CE0080310A22500883
:10238000B8005108B9003408BA003508BB00023063
:10239000BD003630BC0088314B270230CF003430CE
:1023A000CE0080312D235008B8005108B900340800
:1023B000BA003508BB000230BD003630BC008831A1
:1023C0004B270230CF003430CE0080312A22500813
:1023D000B8005108B9003408BA003508BB00023013
:1023E000BD003630BC0088314B270800B9010430ED
:1023F0003902031808000130BD00D430BC00390890
:10240000C6000630C70080314A202C0824003C0753
:10241000BA003D08BB000318BB0A0130BF002030E2
:10242000BE00390EF039BE070318BF0A3B0885000D
:102430003A088400D001813000020319003C0319DE
:10244000D00ACF013608220068029031031D2A2AE3
:102450002400CF0A2400CD01CF08031DD008031D9E
:10246000CD0A3B0885003A088400C501803000028F
:102470000319003C0319C50A3B0885003A0884008B
:10248000CC01000836020319CC0ACE01C508031995
:10249000CC08031DCE0AC001CD080319CE08031DC8
:1024A000C00AC0080319E92A3B0885003A088400DD
:1024B0000430840700082500BD00BE01BF01C00133
:1024C0000030240037022500C1002030031C2130D9
:1024D00024003802C50045082500C200C3012400BD
:1024E000C51F742A2500C3032500C4012400C51F8D
:1024F0007B2A2500C403250080315C204608240087
:10250000C100250047082400C20025004808240017
:10251000C400250049082400C300C40CC20CC10C2F
:10252000C40CC20CC10CC40CC20CC10CC40CC20C37
:10253000C10CC40CC20CC10C3F0885003E088400CD
:102540000A3084074108C8004208C900CA01CB010B
:102550009031C21FAD2ACA03CB030008CC00840A05
:102560000008CD00840A0008CE00840A48084C0206
:10257000031DC62A49084D02031DC62A4A084E02F9
:10258000031DC62A4B0800020319E92A4108D0009E
:102590004208D100D201CF01C21FD02AD203CF03FB
:1025A0003F0885003E0884000A3084070330840712
:1025B0004F08800084035208800084035108800083
:1025C0008403500880000B30D5003908D6008831CC
:1025D000F625B90A9031F729B901043039020318F8
:1025E00008000130BB002030BA00390EF039BA07BC
:1025F0000318BB0A0130BF00D430BE003908C60042
:102600000630C70080314A202C0824003E07BC0059
:102610003F08BD000318BD0A3D0885003C08840042
:10262000C901813000020319003C0319C90AC8011D
:102630003608220068029031031D202B2400C80AAE
:102640002400C401C808031DC908031DC40A3D08AD
:1026500085003C088400C201803000020319003C60
:102660000319C20A3D0885003C088400C301000824
:1026700036020319C30AC501C2080319C308031DA2
:10268000C50AC001C4080319C508031DC00AC00853
:1026900003192A2C3D0885003C0884000230840779
:1026A0008008031D5D2B3D0885003C0A8400C201A3
:1026B000000837020319C20A792B3D0885003C083F
:1026C000840002308407C401370800020318C40ADA
:1026D0003D0885003C0A8400C50100083702031844
:1026E000C50AC301C408031DC508031DC30A430866
:1026F000C200C20803192A2CB8080319922B3D08FE
:1027000085003C0884000330840780080319922B5D
:102710003D0885003C088400033084070008380227
:10272000031C2A2C3D0885003C08840005308407E2
:102730000008C1004108003A0319BD2B013A0319F2
:10274000BD2B023A0319BD2B0A3A0319D62B033AC3
:102750000319D62B013A0319D62B073A0319E82B94
:10276000013A0319FC2B0B3A0319102C013A0319F7
:10277000102C0F3A0319102C2A2C3A08C2003B08DF
:10278000C3003908C4000130C5003D0885003C087D
:102790008400053084070008C8002A08C9003708EB
:1027A000CA003808CB008A2090312A2C3A08C2008F
:1027B0003B08C3003908C4000430C5000130C8001C
:1027C000C9013708CA003808CB008A2090312A2C6A
:1027D0003A08C2003B08C3003908C4000430C500F1
:1027E0000130C8002A082904C9003708CA0038087F
:1027F000CB008A2090312A2C3A08C2003B08C30043
:102800003908C4000430C5000130C8002B08290471
:10281000C9003708CA003808CB008A2090312A2C1A
:102820003A08C2003B08C3003908C4003D088500CF
:102830003C08840005308407CA010008023EC50038
:102840000318CA0A0630C5023708C8003808C9008C
:102850008831F127B90A9031ED2A01302400BD00FA
:10286000D430BC00BE011830BF0080310124080004
:102870003609BA003709BB003A0822006005240077
:10288000B8003B08220061052400B9008030BC007C
:10289000BD01BE018030BF0022008C122400BC08A4
:1028A000031D552CBD080319952C22000C12240081
:1028B0003C083805C0003D083905C100C201C00808
:1028C0000319C20AC108031DC201C301C2080319CA
:1028D000C30A431C6D2C22000C1424004318722CD4
:1028E00022000C1024003E083805C0003F083905BE
:1028F000C100C201C0080319C20AC108031DC201F8
:10290000C301C2080319C30A431C882C22008C147B
:10291000240043188D2C22008C1022000C16240059
:10292000BD36BC0CBF36BE0C4E2C22008C160800E7
:1029300023009D1C9D2C1D121D166E086D06031D87
:10294000A42C2400BA01080000308500A0308400C7
:102950006E08840700082400B6002300EE0A3F300A
:10296000EE05F03024003605B7003708F03A031DB5
:102970002A2D3608F83A0319D62C023A0319D62C18
:10298000013A0319D62C073A0319D62C0D3A03192C
:10299000D92C023A0319D92C013A0319D92C023A3D
:1029A0000319E82C073A0319EB2C982C3608BA00C7
:1029B0000800A10136082300EF0024003608F23A8F
:1029C000031DE52C0230A000982C0130A000982CAB
:1029D0000230A300982C2308013A0319272D013A4D
:1029E0000319272D053A031D0E2D22000C150E1577
:1029F000FA302400BC0080310720FA30BC000720E8
:102A0000FA30BC000720FA30BC00072022000C116D
:102A10000E11AE23903171219031272D22000C111F
:102A20002400BB010A303B020318262D22000E159C
:102A300064302400BC008031072022000E11643075
:102A40002400BC000720BB0A9031122D7121A30184
:102A50009031982C80303605B800B901B8080319B8
:102A6000B90AB908031D5A2DA301A1013608230094
:102A7000EF00F03024003605BB003B08C03A0319D4
:102A8000542D103A0319542D703A0319572D203A3A
:102A90000319572D103A0319572D203A0319572DB2
:102AA000503A0319572D572D0130A000982C0230B1
:102AB000A000982C2308023A0319772D013A031934
:102AC000822D073A03198E2D013A03199A2D033AE4
:102AD00003199E2D013A0319A22D0F3A0319A62DB1
:102AE000093A0319982C013A0319B52D982CB60808
:102AF000031D7D2D0330BB007F2D0130BB003B0843
:102B0000A300982C36087F3A031D892D0430BB00A2
:102B10008B2D0130BB003B08A300982C3608153ADA
:102B2000031D952D0530BB00972D0130BB003B08E0
:102B3000A300982C3608A500A30A982C3608A600F6
:102B4000A30A982C3608A700A30A982C2508BB00D6
:102B50002608BC002708BD003608BE00883176274D
:102B600005302400A3009031982C2300EF080319AE
:102B7000982C013085006630840024002108A10AC9
:102B800084073608800020082102031C982CA1012C
:102B9000F03023006F052400BB003B08803A031986
:102BA000DD2D103A0319DD2D703A0319DD2D503A51
:102BB0000319DD2D603A031D982C23006F082400B3
:102BC000BA0008002000911121009115240016146C
:102BD000080021000E148E14240095161516951564
:102BE000151195101510941713309200080022004B
:102BF000E8010A30E90008002400B6010C30360272
:102C0000031808000130B800BC30B7003608B9001E
:102C10000310390DB7070318B80A380885003708BC
:102C2000840080080319352E380885003708840091
:102C3000800B352E3708E0003808E1000030BD0079
:102C40002030BC003608C6000730C70080314A205B
:102C50002C0824003C07E2003D08E3000318E30AC7
:102C60003608E400E501E601D720B60A9031FE2DD2
:102C70003608F83A0319462E023A0319C82E013ACB
:102C80000319C82E073A0319482F0800B7010C3062
:102C90003702031808000030BD002030BC003708A0
:102CA000C6000730C70080314A202C0824003C07AA
:102CB000BA003D08BB000318BB0A3B0885003A0870
:102CC00084000008143A0319003A90310319722E57
:102CD0003B0885003A0884000008153A0319003AB9
:102CE000031DC62E3B0885003A0884000008153AEB
:102CF0000319003A031D802EA808031D802EC62E3E
:102D00000130B900BC30B8003708BD0003103D0DDC
:102D1000B8070318B90A39088500380A8400800802
:102D2000031DAE2E3808E0003908E1000030BE0077
:102D30002030BD003708C6000730C70080314A2068
:102D40002C0824003D07E2003E08E3000318E30AD4
:102D50003708E4000130E500E601D7203908850096
:102D6000380A8400800A0008BC003B0885003A0845
:102D700084000330840700083C029031031CC62EF7
:102D800039088500380A840000308000B70A472ED1
:102D90000130A800B7010C303702031808000030DA
:102DA000BE002030BD003708C6000730C7008031A4
:102DB0004A202C0824003D07BF003E08C00003182D
:102DC000C00A3F08BA004008BB000130BF00BC3059
:102DD000BE003708BD0003103D0DBE070318BF0A33
:102DE0003E08B8003F08B9003B0885003A08840057
:102DF0000008BC003C08143A903103190F2F013A27
:102E000003190F2F023A0319222F0D3A0319262F07
:102E10000C3A0319262F0F3A0319372F452F36087E
:102E2000FA3A031D452F3B0885003A088400043018
:102E300084070008BD0039088500380A84003D0871
:102E40008000452F3608FA3A031D452F3808E00068
:102E50003908E1003A08E2003B08E3003708E400E3
:102E60000130E500E6018031D7209031452F380848
:102E7000E0003908E1003A08E2003B08E3003708C7
:102E8000E400E501E6018031D720B70A9031CB2E6E
:102E9000A801B7010C303702031808000030BE004B
:102EA0002030BD003708C6000730C70080314A20F7
:102EB0002C0824003D07BF003E08C0000318C00ACC
:102EC0003F08BA004008BB000130BF00BC30BE0064
:102ED0003708BD0003103D0DBE070318BF0A3E08AA
:102EE000B8003F08B9003B0885003A088400000894
:102EF000BC003C08163A90310319852F0F3A03198C
:102F0000952F033A0319952FA42F3808E0003908AC
:102F1000E1003A08E2003B08E3003708E400E5017D
:102F2000E6018031D7209031A42F3808E00039081D
:102F3000E1003A08E2003B08E3003708E400013012
:102F4000E500E6018031D720B70A90314A2FB90158
:102F50000C303902031808000130BB00BC30BA0045
:102F60003908BC0003103C0DBA070318BB0A003037
:102F7000C0002030BF003908C6000730C7008031CC
:102F80004A202C0824003F07BD004008BE0003185B
:102F9000BE0A3E0885003D0884000008023A031975
:102FA000003A90310319DF2F3E0885003D08840068
:102FB0000008033A0319003A9831031DB3283E086C
:102FC00085003D08840004308407000837069831E6
:102FD000031DB3283E0885003D08840003308407A4
:102FE000C901813000020319003C0319C90AC80154
:102FF0003608220068029831031D00282400C80A00
:103000002400C401C808031DC908031DC40A3E08E2
:1030100085003D08840003308407C201803000022F
:103020000319003C0319C20A3E0885003D088400CC
:1030300003308407C301000836020319C30AC5011F
:10304000C2080319C308031DC50AC101C408031936
:10305000C508031DC10AC10898310319B3283E08E9
:1030600085003D0884000530840700083802031CF1
:1030700074283E0885003D08840005308407000858
:10308000C2003B0885003A0A840042080002031C83
:1030900050283B0885003A0A8400000A031D742862
:1030A0003A08E0003B08E1003D08E2003E08E3008A
:1030B0003908E4003E0885003D088400C201033061
:1030C00000020319003C0319C20AE501C2080319F2
:1030D000E50AE6018031D7203B0885003A0A8400E2
:1030E000380880009831B3283E0885003D088400E8
:1030F00005308407000838020318B3283B08850010
:103100003A0A84000008C2003E0885003D08840099
:103110000530840700084202031895283B08850003
:103120003A0A8400000A031DB3283A08E0003B086D
:10313000E1003D08E2003E08E3003908E4003E08F3
:1031400085003D088400E501033000020319003CBE
:103150000319E50AE6018031D7203B0885003A0AC9
:10316000840038088000B90A9031A82FB9010C30CA
:103170003902031808000130BB00BC30BA0039081E
:10318000BC0003103C0DBA070318BB0A0030C00096
:103190002030BF003908C6000730C70080314A2000
:1031A0002C0824003F07BD004008BE000318BE0ADB
:1031B0003E0885003D08840000039831031D7B29EB
:1031C0003E0885003D08840003308407C901813032
:1031D00000020319003C0319C90AC801360822007D
:1031E0006802031DF5282400C80A2400C401C80889
:1031F000031DC908031DC40A3E0885003D0884005C
:1032000003308407C201803000020319003C031917
:10321000C20A3E0885003D08840003308407C301CC
:10322000000836020319C30AC501C2080319C308FE
:10323000031DC50AC101C4080319C508031DC10A3D
:10324000C10803197B293E0885003D08840005302C
:1032500084078008031D38293E0885003D08840046
:1032600004308407C201000837020319C20A562934
:103270003E0885003D08840005308407C4013708F6
:1032800000020318C40A3E0885003D08840004308B
:103290008407C501000837020318C50AC301C40822
:1032A000031DC508031DC30A4308C200C208031951
:1032B0007B29B808031966293E0885003D0884006B
:1032C0000630840700083802031C7B293A08E00016
:1032D0003B08E1003D08E2003E08E3003908E40055
:1032E000C201B8080319C20AE501C2080319E50AB8
:1032F000E6018031D720B90A9831B7282400B401FB
:103300000C303402031808000030BA002030B90035
:103310003408C6000730C70080314A202C0824003A
:103320003907B5003A08B6000318B60A0130BC00E8
:10333000BC30BB003408BD0003103D0DBB070318B3
:10334000BC0A360885003508840000308000840AF5
:10335000003080008403023084070A308000B40A01
:1033600098318029B8010430380203180800013070
:10337000BC00A030BB003808C6000730C700803151
:103380004A202C0824003B07B9003C08BA00031867
:10339000BA0A3A088500390884000008043A9831CE
:1033A000031D212A3A088500390884000430840767
:1033B000C301813000020319003C0319C30AC20192
:1033C000360822006802031DE7292400C20A2400EF
:1033D000C001C208031DC308031DC00A3A088500C6
:1033E0003908840004308407BE01803000020319CC
:1033F000003C0319BE0A3A088500390884000430ED
:103400008407BF01000836020319BF0AC101BE08C4
:103410000319BF08031DC10ABD01C0080319C10873
:10342000031DBD0ABD080319212A3808E200370828
:10343000E3003A088500390A84000008E400883176
:1034400002202400B80A9831B329B90104303902A6
:10345000031808000130BD00A030BC003908C600C8
:103460000730C70080314A202C0824003C07BA00EE
:103470003D08BB000318BB0A3B0885003A088400DE
:103480000008053A9831031D9E2A3B0885003A083A
:1034900084000530840700083706031D9E2A3B0878
:1034A00085003A08840004308407C401813000029A
:1034B0000319003C0319C40AC3013608220068023C
:1034C000031D642A2400C30A2400C101C308031D8C
:1034D000C408031DC10A3B0885003A088400043073
:1034E0008407BF01803000020319003C0319BF0AA2
:1034F0003B0885003A08840004308407C0010008B6
:1035000036020319C00AC201BF080319C008031D0F
:10351000C20ABE01C1080319C208031DBE0ABE08C3
:1035200003199E2A3908E2003808E3003B088500A9
:103530003A0A84000008E400883102202400B90A15
:103540009831262AB90104303902031808000130E5
:10355000BD00A030BC003908C6000730C70080316C
:103560004A202C0824003C07BA003D08BB00031881
:10357000BB0A3B0885003A0884000008033A9831EA
:10358000031D132B3B0885003A0884000430840790
:10359000C401813000020319003C0319C40AC301AD
:1035A000360822006802031DD72A2400C30A24001B
:1035B000C101C308031DC408031DC10A3B088500DF
:1035C0003A08840004308407BF01803000020319E8
:1035D000003C0319BF0A3B0885003A088400043008
:1035E0008407C001000836020319C00AC201BF08DF
:1035F0000319C008031DC20ABE01C1080319C2088D
:10360000031DBE0ABE080319132B3908BF00370873
:10361000C0003808C1003B0885003A0A8400000851
:10362000C2008031C4272400B90A9831A32A01308E
:103630002400BD00A030BC00BE011C30BF008031A2
:1036400001240030BD00E030BC00BE010830BF00E6
:103650000124903176200800CC30F400210063086A
:103660002400B6000F30B6053608F50021006208C8
:103670002400B6003608F600210067082400B600D2
:103680000F30B6053608F700210066082400B600A2
:103690003608F800210065082400B6000F30B60592
:1036A0003608F900210064082400B6003608FA0044
:1036B000210061082400B6000F30B6053608FB0073
:1036C000210060082400B6003608FC000930220002
:1036D000EE00ED0108007A3021009900C8308C001E
:1036E000FB308E0023008C018E0120008C018E01A6
:1036F0008B170B172200EC012400A501A601A701DE
:10370000AC01AD0122000C15FF30EA000E15FF30B0
:10371000EB0090317621E9258F21F7252D24983172
:103720007E2117239031982190317121B001B10190
:10373000B201B3012400A40898310319D92BA401C4
:103740009031FC252200EA0898310319AA2BEA0BD4
:10375000AA2B0C11EB080319B02BEB0BB02B0E119D
:1037600020008E19D62B2400AC0A0319AD0A28308C
:103770002C0603192D08031DC52B90317121220041
:103780000E156430EB009831D92B2C08D03A073055
:1037900003192D06031DD92B22000E158031AE23EF
:1037A00022000E15FF30EB009831D92B2400AC011C
:1037B000AD01903198243A08B400F0303405B500DA
:1037C0003508F03A98310319F52B703A03191D2C7E
:1037D000103A0319322C203A03194D2C603A031980
:1037E000962C303A03199F2CCD2C3408F83A031943
:1037F000032C023A0319162C013A0319172C073A25
:103800000319172CCD2CA208031D0A2C22000E151B
:103810006430EB002400A20A183022020318A2012F
:103820003408B600903138269831CD2CA2013408E6
:10383000B600903138269831CD2C0F303405B600C3
:10384000220066082400B700B8019031EC220F3046
:103850003405B600220066082400B700B80198318C
:10386000B620CD2C0F303405B600220066082400A7
:10387000B700220067082400B8009031EC220F3016
:103880003405B600220066082400B700220067084D
:103890002400B8009831B620CD2C22006608633A87
:1038A00003195C2C013A0319622C643A0319672C42
:1038B000203A03196B2C7A2C67082400A500A60176
:1038C000A701CD2C67082400A600A701CD2C67080E
:1038D0002400A700CD2C24002508BB002608BC002E
:1038E0002708BD00220067082400BE008831762723
:1038F0009831CD2C0F3024003405B6002200660824
:103900002400B700220067082400B80025220F30E9
:103910003405B600220066082400B70022006708BC
:103920002400B8009031A7279831CD2C0F303405F2
:10393000B600220066082400B700B221CD2C220078
:1039400067082400AE00AF01AE0DAF0DAE0DAF0D98
:10395000AE0DAF0DAE0DAF0DAE0DAF0DAE0DAF0D8B
:10396000AE0DAF0D8030AE057F302200660524001D
:10397000B6003608AE040F303405B6002E08B70086
:103980002F08B8009031F6210F303405B6002E080C
:10399000B7002F08B8009831A22221009119D92C24
:1039A0002200EC080319D92C2C239031E2252200A7
:1039B000EC012200E2089831031DE12CE308031911
:1039C000EC2C62082400B600220063082400B70033
:1039D00090313824E201E3012300EC089831031907
:1039E0009A2BEC012400B601B701903138249831AC
:1039F0009A2B2100E001E1012300ED01EE01EF012E
:103A00002400A001A101A201A301A401A501A60116
:103A1000A7012200E001E101E201E3012300EC0142
:103A20002200E401E501EF01ED01EE01EA01EB0105
:103A30002400A80100308500203084005330F300BA
:103A40008001840A9831F30B202D01308500BC30B1
:103A5000840017302300D3008001840AD30B2C2D5F
:103A600001302400A9000230AA000430AB0022007B
:103A7000A0016B2B0B1D432D05302000950001305C
:103A80002400A4000B112000911E692D23001908A9
:103A90002500CA0023006D0A2500CB003F30CB056E
:103AA00023006E0825004B060319632D00308500A6
:103AB000A030840023006D08840725004A08800098
:103AC0004B082300ED0022000C150230EA00200014
:103AD0009112911D0900911122006E086D020318C8
:103AE0007C2D00308500743084006D08ED0A840759
:103AF00000082400910009006E086D06031D842D46
:103B0000ED0A240016150900EF080319912D640829
:103B1000E0046508E104E401E501EF010130230060
:083B2000EC00210091110900E5
:020000040001F9
:02000E00A4FF4D
:02001000FFDE11
:00000001FF
