:020000040000FA
:0400000098315F2BA9
:040008009831A42B5C
:02000E00A30845
:10001000031D0B280800F93000000000000000005C
:1000200000000000000000000000000000000000D0
:10003000FF3E031D0C28000000000000000000002F
:1000400000000000000000000000000000000000B0
:10005000A30B0B280800CE01CF014B08003A03196F
:100060005328013A03195728033A03195B28013A28
:1000700003195F28073A03196328013A031967280F
:10008000033A03196B28013A03196F280F3A031931
:100090007328013A03197728033A03197B28013A98
:1000A00003197F2808000430CE00CF0182280830D1
:1000B000CE00CF0182280230CE00CF01822801304D
:1000C000CE00CF018228CE010130CF008228CE01A0
:1000D0000230CF008228CE010430CF008228CE012A
:1000E0000830CF008228CE011030CF008228CE0108
:1000F0002030CF008228CE014030CF008228CE01B0
:100100008030CF00CC080319E128CD080319A728B7
:100110002300D2080319A72824004E0823004A050B
:100120002400D0004F0823004B052400D100D00844
:10013000031DC128D108031DC1284E082300CA048D
:1001400024004F082300CB040130D500C12824002F
:100150004E08230048052400D0004F08230049051D
:100160002400D100D008031DC128D108031DC128D7
:100170004E082300C80424004F082300C90401309E
:10018000D60024004A088500490A84000008803A05
:100190000319003A031DD428480885004708840045
:1001A00023006408800008004A088500490A84008A
:1001B0000008D000480885004708840050088000E7
:1001C00008004E0823004805031DEC2824004F08B2
:1001D000230049050319FA2824004E09D0004F09CD
:1001E000D10050082300C805240051082300C90588
:1001F0000130D600240048088500470884000030FC
:1002000080000800DC1F0629DB01DC015C080F3CD4
:10021000031D0C295B08FF3C03181429DC1B14295F
:10022000FF30DB000F30DC0001308500B830840087
:100230005A08DD0003105D0D84070008DE00840A03
:100240005E085B06031D282900085C0603190800E8
:1002500001308500B83084005A08DE0003105E0DBE
:100260008407840A5B08DF005C08800084035F0861
:10027000800001302300D2000800CE01CF01CE194A
:100280000800311C45293008CF07B10C0310B00D10
:10029000CE0A3F29E301E401E501E601E701E31AA3
:1002A00008005D1C61295508E40756080318560F1D
:1002B000E50757080318570FE60758080318580FA3
:1002C000E7070310E00CDF0CDE0CDD0C0310D50D8E
:1002D000D60DD70DD80DE30A4F29CE01D501D60191
:1002E0004A08CF004B08D0004E1A08004C1C7E294B
:1002F0004F08D50750080318500FD6070310CD0C30
:10030000CC0C0310CF0DD00DCE0A7429DD01DE0117
:10031000DF01E001E301E401E501E601E101203054
:100320006105E200E208031D0800E335E40DE50D78
:10033000E60DD20DD30DD40DD50DDD0DDE0DDF0D87
:10034000E00D59086002031DAF2958085F02031D24
:10035000AF2957085E02031DAF2956085D02031C32
:10036000C0295608DD025708031C570FDE02580843
:10037000031C580FDF025908031C590FE0026314D5
:10038000E10A8F296C08240091001F30160503191B
:100390001419C52908000030BB002030BA00370806
:1003A000B0000630B1003D214F083A07B8003B08C5
:1003B000B9000318B90A0030BD006830BC00370826
:1003C000BE0003103E0DBC070318BD0A3D088500A2
:1003D0003C0884000030800039088500380884001B
:1003E0000008BF003F08143A0319FA29013A03191B
:1003F000FA29092A3908850038088400033084075F
:100400000008C0003D0885003C0A840040088000C8
:100410000F2A3D0885003C0A8400003080003C081B
:10042000C7003D08C8003808C9003908CA003708A5
:10043000CB00CC01CD012B2008003508DA003608AE
:10044000CA00CB01F430CC000130CD006D2155083D
:10045000DB005608DC00022108004B08D800D90157
:10046000DA01DF014C08083ED2004D08D70003181E
:10047000D70A5708D300D401D501D71F412AD40386
:10048000D503D308031D4A2AD408031D4A2AD508D8
:1004900003194F2ACE01CF01D001D101652A5F088F
:1004A000DB005208FF3903195D2AD835D90DDA0D62
:1004B000DB0DDF1BDB17FF3E522A5808CE00590820
:1004C000CF005A08D0005B08D1004E08D5004F0875
:1004D000D6005008D7005108D800F430DD000130B4
:1004E000DE00DF01E0014A216408DA006508DB0074
:1004F0006608E1006708E2005A08CE005B08CF00FA
:100500006108D0006208D100DA014E08D2004F081D
:10051000D3005008D4005108D500D11F9B2AD2091E
:10052000D309D409D509D20A0319D30A0319D40A65
:100530000319D50ADA0A0C30D600D701D801D9013F
:1005400086216308CE006408CF006508D0006608E5
:10055000D1005A1CB62ACE09CF09D009D109CE0A3A
:100560000319CF0A0319D00A0319D10A4A08DA007D
:100570004F08DB005008DC000221080048087F3CDF
:100580000318C42A7F30C8004708DA004808CA00A8
:10059000CB014908CC00CD016D215508DB00560880
:1005A000DC00DB0DDC0DDB0DDC0DFC30DB0502219E
:1005B00008002400A20104302202031808000130C0
:1005C0008500203084002208B0000F30B1003D21AA
:1005D0004F08840705308407003080000130850013
:1005E000203084002208B0000F30B1003D214F08B8
:1005F000840706308407FF308000013085002030FA
:1006000084002208B0000F30B1003D214F0884075C
:1006100006308407840AFF308000013085002030D6
:1006200084002208B0000F30B1003D214F0884073C
:1006300008308407FF3080000130850020308400BE
:100640002208B0000F30B1003D214F088407093067
:100650008407FF30800001308500203084002208AC
:10066000B0000F30B1003D214F0884070A308407E5
:10067000033084070030A500A600A70000308000EA
:10068000840327088000840326088000840325084B
:10069000800001308500203084002208B0000F3037
:1006A000B1003D214F0884070E30840700308000E0
:1006B000A20ADB2A04302702031C602BB3010800C6
:1006C0000130B200A030AF002708B0000630B10002
:1006D0003D214F082F07AB003208AC000318AC0ACD
:1006E0002808023A0319872B013A0319B72B073A56
:1006F0000319C02B013A0319CB2B023A0319D62B4D
:100700000F3A0319E12B013A0319F02B782C290831
:10071000013A0319922B033A03199B2B023A03194E
:10072000A42BA42B2C0885002B088400803080008B
:100730000130B30008002C0885002B0884008130AC
:1007400080000130B300080001302A02031C782C1D
:100750002A08103C031C782C2A03B4002C088500BE
:100760002B088400340880000130B30008002C08F6
:1007700085002B0A84002A0880000130B30008009D
:100780002C0885002B088400023084072A0880008A
:100790000130B30008002C0885002B0884000330CA
:1007A00084072A0880000130B30008002C08850067
:1007B0002B088400043084072A0880000130B3002D
:1007C000080009302A020318782C2C0885002B0811
:1007D0008400053084072A0880000130B300080037
:1007E000A7080319F72B2708023A031D782C2A08BB
:1007F000003C0318782C7F302A020318782C013033
:100800008500A03084002708B0000630B1003D21EB
:100810004F08B400340884070008B500840A0008B3
:10082000B600840A0008B700840A0008B800840AE9
:100830000008B900840A0008BA0001308500A03021
:100840008400270AB0000630B1003D214F0884071C
:1008500035088000840A36088000840A3708800042
:10086000840A38088000840A39088000840A3A081B
:10087000800001308500A03084002708B0000630D9
:10088000B1003D214F088407840A003080002A030C
:10089000B40001308500A03084002708B000063085
:1008A000B1003D214F0884070230840734088000DE
:1008B00001308500A0308400270AB0000630B10066
:1008C0003D214F088407840A2A08800001308500F2
:1008D000A0308400270AB0000630B1003D214F0847
:1008E0008407023084077F3080000130B3000800A5
:1008F000B30108002400BF01C00104303F024008DA
:100900000318842C0319862CC01FB02C031023005D
:10091000C60DC70DC51F902CC60A031D902CC70A13
:100920000310C40DC50DC71FA52C083044052400B5
:10093000C100C201C108031DAB2CC208031DAB2CB2
:100940002300C40A0319C50AAB2CC41DAB2CC40A6E
:10095000031DAB2CC50A2400BF0A0319C00A7D2C55
:100960002300460844062400C1002300470845062A
:100970002400C20008002000911124001615200058
:10098000911DBF2C08002000911124001614200096
:10099000911DC72C23006B08EC00EC35C221080028
:1009A0002708023A0319D82C0E3A0319EB2CF62C1F
:1009B0002808003A031DDC2C01302902031CF62C08
:1009C0002908103C031CF62C29032300E300013006
:1009D0002400AA0008002808013A031DF62C290863
:1009E0002300E40001302400AA000800AA01080046
:1009F0002400A2010C302202031808002208B700CC
:100A0000CB212400A20AFA2C0C302702031C0A2D49
:100A1000B60108000030B2002030AF002708B00057
:100A20000630B1003D214F082F07AB003208AC0063
:100A30000318AC0A0030B4006830B3002708B500D2
:100A40000310350DB3070318B40A2808013A031937
:100A50003F2D033A0319162E013A03195B2E073A6C
:100A60000319732E013A0319852E083A0319972E9C
:100A7000013A0319AA2E073A0319D02EEB2E2708A4
:100A8000B700CB2124002908003A03196C2D0B3A3A
:100A90000319752D073A0319752D013A0319752DA0
:100AA000033A0319752D0F3A0319BD2D033A0319A3
:100AB000DC2D163A0319F52D013A0319F52D033AE9
:100AC0000319F52D013A0319F52D0F3A0319F52DE8
:100AD000013A0319F52DEB2E2C0885002B08840014
:100AE000003080000130B60008000B302902B7004A
:100AF0002C0885002B08840002308407370880000A
:100B00002A08013A0319942D033A0319942D013A46
:100B10000319942D073A0319942D043A0319A52DAE
:100B2000053A0319B12DEB2E2A03B7003708033E0F
:100B3000B8002C0885002B08840038088000840A3F
:100B4000803080000130B60008002C0885002B089A
:100B5000840002308000840A803080000130B600BA
:100B600008002C0885002B08840001308000840ACE
:100B7000803080000130B60008002C0885002B086A
:100B800084000130800002308407813080002B080F
:100B90008400033084072A0880002B088400043076
:100BA0008407003080002B08840005308407003063
:100BB00080000130B60008002C0885002B08840056
:100BC0000230800002308407813080002B088400CE
:100BD000033084072A0880002B088400043084072F
:100BE000403080000130B60008002C0885002B083A
:100BF0008400290880000330840700308000AA08A0
:100C000003190B2E2C0885002B0884000230840762
:100C10002A088000132E2C0885002B08840002303F
:100C20008407063080000130B60008002C088500DB
:100C30002B08840000030319252E2C0885002B089F
:100C400084000008023A031DEB2E2908003A03191C
:100C5000302E013A0319452E033A0319502EEB2E7C
:100C600001302A02031CEB2E2A08103C031CEB2E39
:100C70002A03B7002C0885002B0884000230840763
:100C8000370880000130B60008002C0885002B08CA
:100C9000840002308407803080000130B6000800F4
:100CA0002C0885002B0884000230840781308000E6
:100CB0000130B60008002C0885002B0884000003D2
:100CC000031DEB2E2C0885002B08840003308407BD
:100CD0002A0880002B08840004308407003080003C
:100CE0000130B60008002C0885002B0884000003A2
:100CF000031DEB2E2C0885002B088400043084078C
:100D00002A0880000130B60008002C0885002B0856
:100D100084000003031DEB2E2C0885002B088400A3
:100D2000053084072A0880000130B60008002C082E
:100D300085002B0884000008023A031DEB2E2C08C6
:100D400085002B088400043084072A0880000130C5
:100D5000B60008002908013A0319B52E013A031913
:100D6000BE2E023A0319C72EEB2E2C0885002B0A43
:100D700084002A0880000130B60008002C08850095
:100D80002B0A8400003080000130B60008002C08D7
:100D900085002B0A8400803080000130B6000800F6
:100DA0002C0885002B0884000008143A0319E02E53
:100DB0002C0885002B0884000008153A031DEB2E33
:100DC0002C0885002B088400033084072A08800043
:100DD0000130B6000800B6010800BE010C303E022A
:100DE000031808000030C0006830BF003E08C10092
:100DF0000310410DBF070318C00A0030C5002030A2
:100E0000C4003E08B0000630B1003D214F08440741
:100E1000C2004508C3000318C30A430885004208FE
:100E20008400023084073D0800068831031D2D2808
:100E300043088500420884000008C6004608013ABD
:100E400080310319342F033A03195E2F013A031935
:100E5000882F073A0319B12F013A0319DB2F033A00
:100E60008831031905282D283C080A3A031D482F0C
:100E70003F08C7004008C8004208C9004308CA002C
:100E80003E08CB000130CC00CD002B2088312D282E
:100E90003C08093A8831031D2D283F08C700400847
:100EA000C8004208C9004308CA003E08CB00CC0174
:100EB0000130CD0080312B2088312D283C08093AA3
:100EC000031D722F3F08C7004008C8004208C90030
:100ED0004308CA003E08CB000130CC00CD002B20D7
:100EE00088312D283C080A3A8831031D2D283F08F7
:100EF000C7004008C8004208C9004308CA003E08AD
:100F0000CB00CC010130CD0080312B2088312D2841
:100F10003C03031D9B2F3F08C7004008C800420840
:100F2000C9004308CA003E08CB000130CC00CD0008
:100F30002B2088312D283C08053A8831031D2D28A7
:100F40003F08C7004008C8004208C9004308CA005B
:100F50003E08CB00CC010130CD0080312B20883100
:100F60002D283C08023A031DC52F3F08C700400842
:100F7000C8004208C9004308CA003E08CB0001303F
:100F8000CC00CD002B2088312D283C08063A883132
:100F9000031D2D283F08C7004008C8004208C900AB
:100FA0004308CA003E08CB00CC010130CD0080319F
:100FB0002B2088312D283C08033A031DEF2F3F08D2
:100FC000C7004008C8004208C9004308CA003E08DC
:100FD000CB000130CC00CD002B2088312D283C08DF
:100FE000073A8831031D2D283F08C7004008C80074
:100FF0004208C9004308CA003E08CB00CC010130BA
:10100000CD0080312B2088312D283C08043A031D67
:101010001A283F08C7004008C8004208C900430812
:10102000CA003E08CB000130CC00CD0080312B201F
:1010300088312D283C08083A031D2D283F08C70099
:101040004008C8004208C9004308CA003E08CB0057
:10105000CC010130CD0080312B202400BE0A80312C
:10106000EE2E08002708043C03183828B3010800B6
:101070000130B2005C30AF002708B0000530B1008D
:1010800080313D214F082F07AB003208AC00031818
:10109000AC0A2808013A883103195B280F3A031972
:1010A0001229013A03192729713A03193829013AFB
:1010B0000319382968292908773A03198D280F3A26
:1010C00003198D28013A03198D28033A03198D2835
:1010D000013A03198D28073A03198D28013A03199B
:1010E0008D28033A03198D28013A03198D287F3A78
:1010F0000319A328143A0319B228163A0319BE2873
:10110000093A0319D528073A0319D528013A0319D2
:10111000D528033A0319D52868292C0885002B08FF
:1011200084000730800077302A02B400840A340833
:1011300080002708B5002A08B60080311D22013042
:101140002400B30008002708B500B60180311D2235
:1011500024002C0885002B0884000030800001301A
:10116000B30008002C0885002B088400063080009E
:10117000840A053080000130B30008002C08850087
:101180002B08840005308000023084078130800005
:101190002B088400033084072A0880002B0A84006F
:1011A000053080000130B30008000B302902B40084
:1011B0002C0885002B088400023084073408800046
:1011C0002A08013A0319F128033A0319F128013AD0
:1011D0000319F128073A0319F128103A03190629CF
:1011E00068292C0885002B088400013080002A0320
:1011F000B40003308407340880002B0884000430D6
:101200008407003080000130B30008002C088500FE
:101210002B08840002308000840A053080000130F1
:10122000B30008002C0885002B0884000003031D70
:10123000682940302A02B4002C0885002B0884005D
:1012400004308407340880000130B3000800003007
:101250002A02031C68292A08083C031C68292C0858
:1012600085002B0A84002A0880000130B3000800A2
:101270002C0885002B0884000008073A031D682904
:10128000A908031946292A08B40049292A09B400E3
:10129000B40A28087E3A031D562900308500EC3038
:1012A000840027088407340880005E290130850007
:1012B000C030840027088407340880002708B50060
:1012C0002C0885002B0A84000008B60080311D22FE
:1012D0002400B3010800C1010430410203180800D2
:1012E0000130C5005C30C4004108B0000530B100D9
:1012F00080313D214F084407C2004508C300031850
:10130000C30A430885004208840080088831031915
:10131000292A4308850042088400023084073D08DA
:101320000006031D292A0130C8002030C7003D08EF
:10133000B0000F30B10080313D214F084707BF009A
:101340004808C0000318C00A43088500420884000A
:101350000008C6004608013A88310319B329033A48
:101360000319092A292A3C08013A0319C129033A19
:101370000319C129013A0319C129073A0319C129DF
:10138000292A3C03BE00430885004208840003303C
:1013900084073E080006031D292A430885004208E9
:1013A0008400043084070008C900400885003F0815
:1013B0008400063084073E088407C80149080007F6
:1013C000C7000318C80AC81FEA290C30C70703184A
:1013D000C80AE32947087F3C48080318031DC81BB7
:1013E000F6290C30C702031CC803EA294108CA00C9
:1013F0004708CB00400885003F0884000A30840776
:101400000008CC00840A0008CD0080312D228831EC
:10141000292A3C08013A0319172A033A0319172A03
:10142000013A0319172A073A0319172A292A4108EA
:10143000C700400885003F0884000E30840700087C
:10144000C80043088500420A84000008C9008031B2
:10145000BE222400C10A88316C29C301C401BF0126
:10146000C001C10110304105C200C208031D0800BF
:10147000BF35C00DBB0DBC0DC30DC40D3E084402ED
:10148000031D442A3D084302031C4D2A3D08C302A4
:101490003E08031CC403C4023F14C10A322AAD0132
:1014A0002B0885002A0884000530840700082D02D7
:1014B00003188A2A2B0885002A082D0784002C0887
:1014C0000006031D882A2B0885002A0884000530A1
:1014D000840780032B0885002A08840005308407D0
:1014E00000082D020318852A2B0885002A0884008D
:1014F0002D0AAE002E0884070008AF002A082D0729
:1015000084002F088000AD0A6A2A0130AE0008006E
:10151000AD0A502AAE010800B401B901FF30B50090
:10152000B600B700B8002B0885002A0884000530F3
:10153000840780080319A42C2B0885002A0884003E
:10154000053084070003031DAC2A2B0885002A08F8
:1015500084000008B500A42C2D0885002C08840008
:10156000053084070008BA003A08063A0319CE2A63
:10157000023A0319FF2A013A0319FF2A073A03190D
:101580006B2B013A03196B2B043A0319D72B0F3A33
:1015900003193E2C093A0319582C582CAF0104307A
:1015A0002F0203187B2C2B0885002A0884000530A5
:1015B000840700082F0203187B2C2B0885002A08BB
:1015C0008400BC01831BBC0A0408BD0005308407ED
:1015D0000003BB002F08BB023B08BD073D08840089
:1015E00083133C1883170008BE0002308500353095
:1015F00084002F0884073E088000AF0ACF2A2B08FA
:1016000085002A0884000008B5000130AF002B08CF
:1016100085002A0884000530840700082F0203187B
:101620007B2C2B0885002A082F0784000008350230
:101630000318282B3708B8003608B7003508B6005D
:101640002B0885002A082F0784000008B500692BA5
:10165000360A0319342B2B0885002A082F0784002B
:10166000000836020318402B3708B8003608B700C8
:101670002B0885002A082F0784000008B600692B74
:10168000370A03194C2B2B0885002A082F078400E2
:10169000000837020318562B3708B8002B088500BE
:1016A0002A082F0784000008B700692B380A03199D
:1016B000622B2B0885002A082F07840000083802B7
:1016C0000318692B2B0885002A082F0784000008BF
:1016D000B800AF0A072B2B0885002A0884000008F1
:1016E000B5000130AF002B0885002A0884000530C2
:1016F000840700082F0203187B2C2B0885002A087A
:101700002F078400350800020318942B3708B8000F
:101710003608B7003508B6002B0885002A082F07C1
:1017200084000008B500D52B360A0319A02B2B081E
:1017300085002A082F078400360800020318AC2B06
:101740003708B8003608B7002B0885002A082F078D
:1017500084000008B600D52B370A0319B82B2B08D4
:1017600085002A082F078400370800020318C22BBF
:101770003708B8002B0885002A082F0784000008C6
:10178000B700D52B380A0319CE2B2B0885002A0861
:101790002F078400380800020318D52B2B0885007A
:1017A0002A082F0784000008B800AF0A732BAF0186
:1017B00004302F020318152C2B0885002A088400FA
:1017C0000530840700082F020318152C0130B300E0
:1017D000B3080319132C80317A242B0885002A08BA
:1017E0008400053084074108BB004208BC000008A3
:1017F000BD00BE0188312D224308B400B301B201FF
:101800002F0832020318E82B02308500353084009F
:101810003208840734080006031D112C0130B30080
:10182000E82BB20A002CAF0AD82BAF0104302F02EC
:1018300003187B2C2B0885002A088400BC01831B1D
:10184000BC0A0408BD0002308500353084002F0832
:1018500084070008BB003B08BD073D0884008313D4
:101860003C1883170008BE00023085003530840024
:101870002F0884073E088000AF0A162C2B0885002D
:101880002A088400083084070008B8002A08840069
:1018900006308407840A0008B7002A08840006304E
:1018A00084070008B6002A0884000008B5007B2CD5
:1018B000AF0104302F0203187B2C2B0885002A0867
:1018C00084000530840700082F0203187B2C2B08A6
:1018D00085002A0884002F08BB003B088407000805
:1018E000BC0002308500353084002F0884073C0896
:1018F0008000AF0A592C2D0885002C088400053083
:1019000084070008033A03198F2C2D0885002C0842
:101910008400053084070008053A031DA42C350A0D
:101920000319A42C360A0319A42C370A031D9D2C75
:101930003608B800FF30B600A42C380A031DA42CCA
:101940003708B800FF30B700AF0104302F0203188A
:10195000F52C2B0885002A088400063084072F0800
:10196000BA003A0884070008BB0002308500353011
:1019700084002F0884073B0800060319F22C02306C
:101980008500353084002F08BC003C08840700081F
:10199000BD002B0885002A088400063084072F0824
:1019A00084073D08800002308500353084002F0810
:1019B0008407000A0319E92C2F0ABC002E08BD0079
:1019C0006B212F0ABC002E08BD008031ED26883126
:1019D000F02C2F08053EBC002E08BD008031ED26FE
:1019E0000130B900AF0A8831A52C3908BA000800C7
:1019F000A6012208013A03193A2D0A3A0319462D85
:101A0000073A0319462D013A0319462D033A0319E3
:101A1000462D113A0319552D3F3A0319552D013A18
:101A20000319552D033A0319552D013A0319552D64
:101A3000073A0319552D013A0319552D033A031995
:101A4000552D013A0319552D0F3A0319552D013A19
:101A50000319552D033A0319552D3F3A0319642DE7
:101A6000033A0319642D013A0319642D0F3A03193F
:101A7000642D702D2308A7002408A8002508A900BC
:101A80008031D0242A08A6008831702D0B30220224
:101A9000A7002308A8002408A9002508AA0080316F
:101AA0005A233308A6008831702D1F302202A70068
:101AB0002308A8002408A9002508AA0080310425CD
:101AC0003608A6008831702D15302202A7002308A1
:101AD000A8002408A9002508AA0032203308A6007F
:101AE000A6080319080022000E15FF302300D100BC
:101AF00008006B082400A00023006C082400A1004B
:101B000023006E08003C0318922D24002108850054
:101B100020088400A00A0319A10A23006D08800090
:101B2000EE03802D6B082400A20023006C08240023
:101B3000A30008002608DA002708D5002808D600E8
:101B4000D701D801A81FA62DD703D8032908DD0087
:101B5000DE01DF01E00180314A216408DB00650815
:101B6000DC006608AB006708AA00AB0CDC0CDB0CE1
:101B7000AB0CDC0CDB0CAB0CDC0CDB0CAB0CDC0CBA
:101B8000DB0CAB0CDC0CDB0C02210800603023000A
:101B9000EB008031C3248F302300EC00C221BB2432
:101BA00060302300EB00C324CF302300EC00C221BF
:101BB000BB2408008031D922F82488313120080064
:101BC0002B0885002A088400053084070008003CA3
:101BD0000318F42D2B0885002A08840000082C0621
:101BE000031DF42DAE010800AD012B0885002A0865
:101BF00084000530840700082D020318282E2B08C6
:101C000085002A082D0784002C080006031D262EB7
:101C10002D08003C03181D2E2B0885002A0884007F
:101C20002D03AF002F0884070008B2002A082D07F3
:101C3000840032088000AD03082E2B0885002A0896
:101C400084002C0880000130AE000800AD0AF52D9C
:101C50002B0885002A088400053084070008053A0F
:101C6000031D492E0430AD002D08003C03186D2ED5
:101C70002B0885002A0884002D03AF002F08840755
:101C80000008B2002A082D07840032088000AD0346
:101C9000342E2B0885002A088400053084070008AC
:101CA000AD002D08003C0318662E2B0885002A087D
:101CB00084002D03AF002F0884070008B2002A0813
:101CC0002D07840032088000AD03512E2B088500BB
:101CD0002A08840005308407800A2B0885002A081A
:101CE00084002C0880000130AE000800B601B90164
:101CF000BA013208B7003308B800B51F852EB617F1
:101D0000B409B509B40A0319B50A361A972E341C5A
:101D10008F2E3708B90738080318380FBA07031091
:101D2000B50CB40C0310B70DB80DB60A852EB61F4E
:101D30000800B909BA09B90A0319BA0A080020004B
:101D40009110911221009110911623001F129F15DE
:101D50009F101F101E139E121E129E111E111E1088
:101D60009D171D139D161D169C011F309B0008001A
:101D70002100951295111511951415148B160B1140
:101D800008002400A00104302002031808000130DC
:101D9000A400A030A3002008B0000630B1008031BC
:101DA0003D214F082307A1002408A2000318A20A1E
:101DB0000130A8002030A7002008B0000F30B1008B
:101DC0003D214F082707A5002808A6000318A60AEA
:101DD0002208850021088400B60181300002031921
:101DE000003C0319B60AB50123006D08630288316F
:101DF000031DFC2E2400B50A2400B301B508031D01
:101E0000B608031DB30A2208850021088400AF012B
:101E1000803000020319003C0319AF0A2208850034
:101E200021088400B201000823006D02031D1A2F4F
:101E30002400B20A2400B401AF080319B208031D3C
:101E4000B40AA901B3080319B408031DA90AA90813
:101E50000319BE2F2208850021088400043084075E
:101E600023006E082400B40023006F082400B5008E
:101E7000B801B9012300EF1F402F2400B803B903B4
:101E800000302400B4020030BA00031C3A0FB5023F
:101E90000008B200B30176263908D2003A08AF0034
:101EA000B6012F08D300D401AF1BD403D501AF1B5B
:101EB000D503AF1F672FD209D309D409D509D20A98
:101EC0000319D30A0319D40A0319D50AB60A003034
:101ED000D600D700D8004630D9008031862163086B
:101EE000AB006408AE008831361C7B2FAB09AE090D
:101EF000AB0A0319AE0AAA012E08AC00AD01AE1B55
:101F0000AD0326088500250884000A3084070008F0
:101F1000B200840A0008B300840A0008B400840AEE
:101F20002A083202031DA02F2B083302031DA02F05
:101F30002C083402031DA02F2D0800020319BE2F08
:101F400026088500250884000A30840703308407AA
:101F50002A08B2002B08B3002C08B4002D0880001A
:101F6000840334088000840333088000840332082B
:101F700080000B30BC002008BD006B21A00AC32EDE
:101F80002400A00104302002031808000130A4003E
:101F90002030A3002008B0000F30B10080313D2177
:101FA0004F082307A1002408A2000318A20A013049
:101FB000A800A030A7002008B0000630B1003D21E5
:101FC0004F082707A5002808A6000318A60A260818
:101FD000850025088400AF01813000020319003C10
:101FE0000319AF0AAE0123006D0863028831031D97
:101FF000FB2F2400AE0A2400AC01AE08031DAF087D
:10200000031DAC0A2608850025088400AA0180303B
:1020100000020319003C0319AA0A260885002508B6
:102020008400AB01000823006D029031031D1A28C3
:102030002400AB0A2400AD01AA080319AB08031D54
:10204000AD0AA901AC080319AD08031DA90AA90826
:102050000319182926088500250884000230840702
:102060008008031D402826088500250A8400AA014F
:10207000000823006E02031D64282400AA0A6428B5
:10208000260885002508840002308407AC0123005F
:102090006E080002031C4E282400AC0A2400260807
:1020A0008500250A8400AD01000823006E02031C90
:1020B0005B282400AD0A2400AB01AC08031DAD0869
:1020C000031DAB0A2B08AA002400AA08031918292B
:1020D0002300EF080319CF282400260885002508CF
:1020E00084000330840780080319812826088500AE
:1020F0002508840003308407000823006F02031CB6
:102100001829240022088500210884000E30840745
:1021100023006F088000240026088500250884001D
:10212000053084078008031DAD282208850021089A
:1021300084000630840723006E08800001302400EC
:10214000BC002008BD0088316B210130BC00200894
:10215000BD008031ED269031C7282108AA00220851
:10216000AB0023006E082400AC008831E025AE08E7
:1021700090310319C7282108AA002208AB002508BE
:10218000AC002608AD002008AE0088318C220A3051
:10219000BC002008BD008031ED26903118292400B4
:1021A0002608850025088400053084078008031D63
:1021B000EE28220885002108840006308407FF30BD
:1021C00080000530BC002008BD008031ED260930BC
:1021D000BC002008BD00ED26903118292108AA0076
:1021E0002208AB0023006E082400AC0088314F2287
:1021F000AE089031031918292108AA002208AB0063
:102200002508AC002608AD002008AE0088318C22DD
:102210002208850021088400053084078008903159
:10222000031D18290930BC002008BD008031ED26AF
:102230002400A00A8831C22F2300EB0104306B0276
:102240000318892901308500A03084006B08240020
:10225000B0000630B10080313D214F088407FF30C7
:10226000800001308500A030840023006B0824002A
:10227000B0000630B1003D214F088407840A0030C9
:10228000800001308500A030840023006B0824000A
:10229000B0000630B1003D214F08840702308407AA
:1022A0007F30800001308500A030840023006B085F
:1022B0002400B0000630B1003D214F0884070330F0
:1022C00084070030800001308500A03084002300A6
:1022D0006B082400B0000630B1003D214F08840790
:1022E000043084070C30800001308500A030840069
:1022F00023006B082400B0000630B1003D214F08D8
:10230000840705308407003080002300EB0A9031F9
:102310001E290130A500AB008031D922080023001E
:102320004808ED004908EE0080302400A000A1011B
:10233000A2018030A30022008C122400A008031DFB
:10234000A429A1080319F42922000C122400200852
:1023500023006D05EF002400210823006E052400F2
:10236000A400A5012300EF08031DB8292400A50A35
:102370002400A408031DA501A601A5080319A60AA7
:10238000261CC42922000C1424002618C929220066
:102390000C102400220823006D05EF002400230800
:1023A00023006E052400A400A5012300EF08031DEF
:1023B000DB292400A50A2400A408031DA501A60109
:1023C000A5080319A60A261CE72922008C1424005C
:1023D0002618EC2922008C1022000C162400A136AD
:1023E000A00CA336A20C9D2922008C160800230005
:1023F0009D1CFC291D121D1658085706031D032A93
:102400002400A101080000308500A0308400580895
:1024100084070008ED00D80A3F30D805F0306D057C
:10242000EE006E08F03A031D702A6D08F83A0319A1
:10243000292A023A0319292A013A0319292A073AB3
:102440000319292A0C3A03192D2A073A0319302AAD
:10245000F7296D082400A10008000230DD00F729EB
:102460005D08013A03196C2A013A03196C2A053AEE
:10247000031D522A22000C150E15FA302400A30069
:1024800080310720FA30A3000720FA30A30007208C
:10249000FA30A300072022000C110E118831DA2532
:1024A00090316C2A22000C112400A2010A30220271
:1024B00003186A2A22000E1564302400A30080311C
:1024C000072022000E1164302400A3000720A20A76
:1024D0009031562A8831DA252300DD019031F72921
:1024E00080306D05EF002400A0012300EF08031DDC
:1024F0007B2A2400A00A2400A008031DA72A230089
:10250000DD01DB016D08D900F0306D052400A2006B
:102510002208A03A03199F2A603A03199F2A103A09
:1025200003199F2A503A0319A32A103A0319A32A20
:10253000203A0319A32A503A0319A32AA32A0130E7
:102540002300DA00F72902302300DA00F7292300FC
:102550005D08023A0319C52A013A0319D32A073A3A
:102560000319E22A013A0319F12A033A0319F52A59
:10257000013A0319F92A0F3A0319FD2A093A0319F6
:10258000F729013A0319132BF729ED08031DCC2A6B
:1025900003302400A200CF2A01302400A200220828
:1025A0002300DD00F7296D087F3A031DDB2A043084
:1025B0002400A200DE2A01302400A2002208230009
:1025C000DD00F7296D08123A031DEA2A05302400C0
:1025D000A200ED2A01302400A20022082300DD0021
:1025E000F7296D08DF00DD0AF7296D08E000DD0A34
:1025F000F7296D08E100DD0AF7295F082400A20031
:10260000230060082400A300230061082400A40024
:1026100023006D082400A5008831F824053023002C
:10262000DD009031F729D9080319F7290130850019
:10263000CC3084005B08DB0A84076D0880005A08F0
:102640005B02031CF729DB01F03059052400A200CE
:102650002208803A0319362B103A0319362B703AA8
:102660000319362B503A0319362BF7292300590842
:102670002400A100080020009111210091152400E0
:102680001614080021000E148E1424009516151639
:102690009515151195101510941713309200080018
:1026A00008002300ED010C306D0203180800003013
:1026B000EF006830EE006D082400A0000310200D2C
:1026C0002300EE070318EF0A6F0885006E088400E8
:1026D00080080319922B6F0885006E088400800B18
:1026E000922B6E082400C70023006F082400C80046
:1026F0000030A4002030A30023006D082400B000A7
:102700000630B10080313D214F082307C90024085D
:10271000CA000318CA0A23006D082400CB00CC01AC
:10272000CD012B202300ED0A9031532B6D08F83A90
:102730000319A42B023A0319312C013A0319312C45
:10274000073A0319C22C0800EE010C306E02031880
:10275000080000302400A40020302300EF006E08A1
:102760002400B0000630B10080313D214F08230025
:102770006F072400A2002408A3000318A30A23085B
:102780008500220884000008143A90310319D02BE8
:1027900023088500220884000008153A031D2E2C0A
:1027A00023088500220884000008153A031DDD2B4C
:1027B0002300E208031DDD2B2E2C00302400A10095
:1027C0006830A00023006E082400A4000310240D2C
:1027D000A0070318A10A21088500200A84008008A8
:1027E000031D112C2008C7002108C8000030A500D7
:1027F0002030A40023006E082400B0000630B10091
:1028000080313D214F082407C9002508CA0003185C
:10281000CA0A23006E082400CB000130CC00CD0191
:102820002B20240021088500200A8400800A00084B
:102830002300EF00240023088500220884000230D2
:102840008407000823006F029031031C2E2C240003
:1028500021088500200A8400003080002300EE0A51
:10286000A52B0130E200EE010C306E0203180800C7
:1028700000302400A6006830A50023006E08240064
:10288000A4000310240DA5070318A60A2508A0001C
:102890002608A100230885002208840000082300E0
:1028A000EF006F08143A0319652C013A0319652CDF
:1028B000023A0319792C013A03197D2C0E3A0319B7
:1028C0007D2C013A03199F2CBE2C6D08FA3A031D8A
:1028D000BE2C2400230885002208840003308407CE
:1028E0000008A40021088500200A84002408800034
:1028F000BE2C6D08FA3A031DBE2C24002008C70028
:102900002108C8000030A5002030A40023006E0874
:102910002400B0000630B10080313D214F0824076B
:10292000C9002508CA000318CA0A23006E0824003B
:10293000CB000130CC00CD012B209031BE2C2400E7
:102940002008C7002108C8000030A5002030A400DE
:1029500023006E082400B0000630B10080313D2114
:102960004F082407C9002508CA000318CA0A230013
:102970006E082400CB00CC01CD012B202300EE0AF1
:102980009031342CE201EE010C306E020318080085
:1029900000302400A6006830A50023006E08240043
:1029A000A4000310240DA5070318A60A2508A000FB
:1029B0002608A100230885002208840000082300BF
:1029C000EF006F08163A0319E92C0F3A03190A2D84
:1029D0002A2D24002008C7002108C8000030A500C7
:1029E0002030A40023006E082400B0000630B1009F
:1029F00080313D214F082407C9002508CA0003186B
:102A0000CA0A23006E082400CB00CC01CD012B2084
:102A100090312A2D24002008C7002108C80000306A
:102A2000A5002030A40023006E082400B00006306A
:102A3000B10080313D214F082407C9002508CA0094
:102A40000318CA0A23006E082400CB000130CC0012
:102A5000CD012B202300EE0A9031C42C2400A001CC
:102A60000C302002031808000030A2006830A100DA
:102A70002008A3000310230DA1070318A20A0030A9
:102A8000A7002030A6002008B0000630B100803139
:102A90003D214F082607A4002708A5000318A50A12
:102AA00025088500240884000008023A9031031D9F
:102AB000222E25088500240884000330840700089E
:102AC00023006E06031D222E2400250885002408FD
:102AD000840002308407AE01813000020319003CFB
:102AE0000319AE0AAD0123006D086302031D7A2DA0
:102AF0002400AD0A2400AB01AD08031DAE08031D80
:102B0000AB0A250885002408840002308407A90147
:102B1000803000020319003C0319A90A250885002A
:102B20002408840002308407AA01000823006D02F3
:102B3000031D9C2D2400AA0A2400AC01A908031936
:102B4000AA08031DAC0AA801AB080319AC08031DB1
:102B5000A80AA8080319222E250885002408840045
:102B600004308407000823006F02031CE82D2400B2
:102B70002508850024088400043084070008A90083
:102B800022088500210A840029080002031CCF2D99
:102B900022088500210A8400000A031DE82D21086F
:102BA000C7002208C8002408C9002508CA00200858
:102BB000CB000130CC00CD0180312B202400220835
:102BC0008500210A840023006F0880009031222EA6
:102BD00024002508850024088400043084070008A8
:102BE00023006F020318222E240022088500210AE8
:102BF00084000008A900250885002408840004300A
:102C000084070008290203180C2E22088500210AD7
:102C10008400000A031D222E2108C7002208C800D4
:102C20002408C9002508CA002008CB00CC01CD012A
:102C300080312B20240022088500210A84002300F3
:102C40006F0880002400A00A9031302D2400A001DC
:102C50000C302002031808000030A2006830A100E8
:102C60002008A3000310230DA1070318A20A0030B7
:102C7000A7002030A6002008B0000630B100803147
:102C80003D214F082607A4002708A5000318A50A20
:102C9000250885002408840000039031031D032FBC
:102CA000250885002408840002308407AE018130A5
:102CB00000020319003C0319AE0AAD0123006D08A0
:102CC0006302031D652E2400AD0A2400AB01AD088C
:102CD000031DAE08031DAB0A2508850024088400E7
:102CE00002308407A901803000020319003C031957
:102CF000A90A250885002408840002308407AA0157
:102D0000000823006D02031D872E2400AA0A240058
:102D1000AC01A9080319AA08031DAC0AA801AB0855
:102D20000319AC08031DA80AA8080319032F2508D6
:102D3000850024088400043084078008031DAF2E1A
:102D4000250885002408840003308407A9010008B1
:102D500023006E02031DD52E2400A90AD52E2508B6
:102D600085002408840004308407AB0123006E082A
:102D70000002031CBD2E2400AB0A24002508850098
:102D80002408840003308407AC01000823006E028D
:102D9000031CCC2E2400AC0A2400AA01AB08031D9E
:102DA000AC08031DAA0A2A08A9002400A9080319CF
:102DB000032F2300EF080319E92E240025088500BE
:102DC0002408840005308407000823006F02031CD8
:102DD000032F24002108C7002208C8002408C900C6
:102DE0002508CA002008CB00A9012300EF08031D15
:102DF000FB2E2400A90A2400CC01A9080319CC0A3F
:102E0000CD0180312B202400A00A9031282E2300F0
:102E1000EB010C306B020318080000302400A10005
:102E20002030A00023006B082400B0000630B10061
:102E300080313D214F0820072300EC0024002108A9
:102E40002300ED000318ED0A00302400A3006830D1
:102E5000A20023006B082400A4000310240DA20785
:102E60000318A30A23006D0885006C088400003055
:102E70008000840A0A3080006B082400B700CB2150
:102E80002300EB0A9031092FEF0104306F02031881
:102E9000080001302400A3005C30A20023006F086A
:102EA0002400B0000530B10080313D214F082207D9
:102EB000A0002308A1000318A10A2108850020080A
:102EC00084000008043A9031031DBD2F21088500BD
:102ED0002008840002308407AA018130000203190F
:102EE000003C0319AA0AA90123006D086302031D0F
:102EF0007B2F2400A90A2400A701A908031DAA0802
:102F0000031DA70A210885002008840002308407D9
:102F1000A501803000020319003C0319A50A21080D
:102F200085002008840002308407A60100082300E1
:102F30006D02031D9D2F2400A60A2400A801A508E8
:102F40000319A608031DA80AA401A7080319A808C5
:102F5000031DA40AA4080319BD2F23006F08240031
:102F6000C70023006E082400C80021088500200A3D
:102F700084000008C9008031BE222300EF0A90318E
:102F8000452F2400A001043020020318080001305E
:102F9000A4005C30A3002008B0000530B1008031EF
:102FA0003D214F082307A1002408A2000318A20A0C
:102FB00022088500210884000008053A9831031D85
:102FC0004228220885002108840003308407000875
:102FD00023006E06031D42282400220885002108D4
:102FE000840002308407AB01813000020319003CE9
:102FF0000319AB0AAA0123006D086302031D02280E
:103000002400AA0A2400A801AA08031DAB08031D76
:10301000A80A220885002108840002308407A6013E
:10302000803000020319003C0319A60A220885001B
:103030002108840002308407A701000823006D02E4
:10304000031D24282400A70A2400A901A6080319A7
:10305000A708031DA90AA501A8080319A908031DAB
:10306000A50AA508031942282008C70023006F08F5
:103070002400C80022088500210A84000008C90035
:103080008031BE222400A00A9031C32F2300ED011D
:1030900004306D020318080001302400A1005C30E8
:1030A000A00023006D082400B0000530B10080317D
:1030B0003D214F0820072300EE00240021082300B3
:1030C000EF000318EF0A6F0885006E0884000008FF
:1030D000063A9831031D9B286D082400DA00A201EE
:1030E0002C08D2002D08D3002E08D4002F08D500BC
:1030F000AF1F8628D209D309D409D509D20A0319EA
:10310000D30A0319D40A0319D50AA20A1E30D6001D
:10311000D701D801D901803186216308DB0064081A
:10312000DC009831221C9928DB09DC09DB0A031931
:10313000DC0A803102212300ED0A9831482824005E
:10314000A00104302002031808000130A4005C3004
:10315000A3002008B0000530B10080313D214F08A8
:103160002307A1002408A2000318A20A2208850050
:10317000210884000008033A9831031D1829220809
:1031800085002108840002308407AB0181300002F1
:103190000319003C0319AB0AAA0123006D0863025E
:1031A000031DD4282400AA0A2400A801AA08031D8C
:1031B000AB08031DA80A22088500210884000230FC
:1031C0008407A601803000020319003C0319A60AF7
:1031D000220885002108840002308407A701000826
:1031E00023006D02031DF6282400A70A2400A9016C
:1031F000A6080319A708031DA90AA501A808031911
:10320000A908031DA50AA508031918292008A60066
:1032100023006E082400A70023006F082400A800E4
:1032200022088500210A84000008A90088319A2517
:103230002400A00A9831A12801302300EC00B83006
:10324000EB00ED010830EE008831792501302300D4
:10325000EC005C30EB00ED011430EE007925C62562
:10326000883131200800C0302100E00023003B08F5
:10327000ED000F30ED056D082100E10023003A0854
:10328000ED006D082100E20023003F08ED000F3043
:10329000ED056D082100E30023003E08ED006D08F8
:1032A0002100E40023003D08ED000F30ED056D081E
:1032B0002100E50023003C08ED006D082100E60038
:1032C00023003908ED000F30ED056D082100E700FF
:1032D00023003808ED006D082100E80009302300C4
:1032E000D400D30108007A3021009900C8308C0046
:1032F000FB308E0023008C018E0120008C018E019A
:1033000088319F26903142238831B826903150234E
:103310001C219031072798311C218B170B17C830BF
:103320002300D000D100D201DF01E001E101E7017B
:10333000E801E901EA012300DE0898310319B32905
:10334000DE0190315123D00898310319AB29D00BFD
:10335000AB2922000C112300D1080319B329D10B8A
:10336000B32922000E119031F72121082300EB0030
:10337000F0306B05EC006C08F03A98310319D02955
:10338000703A0319AC2A103A0319BF2A203A0319DC
:10339000D42A603A0319152B303A03191E2B492BF6
:1033A0006B08F83A0319DE29023A0319A52A013AF3
:1033B0000319A62A073A0319A62A492BCE08031D8A
:1033C000E429CF080319442A67082400D500230004
:1033D00068082400D600230069082400D7002300D1
:1033E0006A082400D8000730DD00DE01DF01E001BB
:1033F00080314A2164082300ED0024006508230081
:10340000EE00240066082300EF0024006708A000F7
:1034100023006D08E7006E08E8006F08E90024004B
:1034200020082300EA006A0DEA0CE90CE80CE70C1E
:103430006A0DEA0CE90CE80CE70C6A0DEA0CE90CE1
:10344000E80CE70C4E082400A00023004F082400DD
:10345000A100A201A30123009831CF1F322A24002A
:10346000A203A303240020082300E7072400210867
:103470002300E83D240022082300E93D240023081E
:103480002300EA3DCE01CF01DC08031D9A2A220069
:103490000E1564302300D1006708680469046A04CB
:1034A000FF3903199A2AED0100302400D200D5001B
:1034B0002030D3004E30D400230067082400D6000B
:1034C000230068082400D700230069082400D800DE
:1034D00023006A082400D9002300EA1F7D2A240063
:1034E000D609D709D809D909D60A0319D70A031961
:1034F000D80A0319D90A2300ED0A24008031862155
:103500006308AC006408AD006508AE006608AF0053
:10351000230098316D1C982A2400AC09AD09AE092E
:10352000AF09AC0A0319AD0A0319AE0A0319AF0AB1
:1035300024004620DC0A18305C020318DC016B080A
:10354000ED00903196239831492BDC016B08ED009A
:10355000903196239831492B0F306B05ED004C08C4
:10356000EE00EF018831C0270F3023006B05ED001E
:103570004C08EE00EF01903126269831492B0F3090
:103580006B05ED004C08EE004D08EF008831C027B8
:103590000F3023006B05ED004C08EE004D08EF00E6
:1035A000903126269831492B4C08633A0319E22AB8
:1035B000013A0319E72A643A0319EB2A203A03195E
:1035C000EE2A012B4D08DF00E001E101492B4D08F7
:1035D000E000E101492B4D08E100492B5F08240080
:1035E000A200230060082400A30023006108240037
:1035F000A40023004D082400A5008831F824983148
:10360000492B0F306B05ED004C08EE004D08EF0024
:103610009031C1270F3023006B05ED004C08EE0000
:103620004D08EF002E259831492B0F306B05ED002A
:103630004C08EE00903144279831492B4C08E500A6
:10364000E601E50DE60DE50DE60DE50DE60DE50DF2
:10365000E60DE50DE60DE50DE60DE50DE60D803018
:10366000E5057F304D05ED006D08E5040F306B0575
:10367000ED006508EE006608EF008831C1260F30C6
:1036800023006B05ED006508EE006608EF00983139
:103690009F2021009119552B2300D2080319552B87
:1036A000332190313B232300D2012300D6089831E7
:1036B00003199B29D60190318F2198319B29230032
:1036C000D701D801D901DA01DB01DC01DD01DE011E
:1036D000CE01CF01C801C901D601CA01CB01D50174
:1036E000D301D401D001D101DF01E001E1012100CA
:1036F000EC012300C001B801B901E20100308500EE
:103700002030840047302000E7008001840A98318F
:10371000E70B852B00308500683084001730FF00F0
:103720008001840AFF0B902B2300E3010A30E400A0
:103730002200A001D5302300C400C430C500BB3036
:10374000C600DC30C70073290B1DB02B05302000EC
:10375000950001302300DE00CE0A0319CF0A0B11B9
:103760002000911ED72B230019082400E800230015
:10377000570A2400E9003F30E905230058082400D7
:1037800069060319D02B00308500A0308400230087
:103790005708840724006808800069082300D700C0
:1037A00022000C1502302300D00020009112911D40
:1037B000090091112300540853020318EA2B00302A
:1037C0008500E03084005308D30A840700082400F1
:1037D0009100090054085306031DF22BD30A24005C
:1037E00016150900D5080319FE2B4A08C8044B0812
:1037F000C904CA01CB01D5010130D60021009111C5
:023800000900BD
:020000040001F9
:02000E00A4FF4D
:02001000FFDE11
:00000001FF
