:020000040000FA
:0400000098315C2CAB
:0400080098319A2C65
:02000E00B40834
:10001000031D0B280800F93000000000000000005C
:1000200000000000000000000000000000000000D0
:10003000FF3E031D0C28000000000000000000002F
:1000400000000000000000000000000000000000B0
:10005000B40B0B280800DF01E0015C08003A03192B
:100060005328013A03195728033A03195B28013A28
:1000700003195F28073A03196328013A031967280F
:10008000033A03196B28013A03196F280F3A031931
:100090007328013A03197728033A03197B28013A98
:1000A00003197F2808000430DF00E00182280830AF
:1000B000DF00E00182280230DF00E0018228013009
:1000C000DF00E0018228DF010130E0008228DF014B
:1000D0000230E0008228DF010430E0008228DF01E6
:1000E0000830E0008228DF011030E0008228DF01C4
:1000F0002030E0008228DF014030E0008228DF016C
:100100008030E0005B0885005A0A8400001C8F28BC
:100110005F082200E504240060082200E6042400B1
:10012000DD080319F528DE080319B6282200EF08B8
:100130000319B62824005F08220067052400E100A7
:100140006008220068052400E200E108031DD128B0
:10015000E208031DD1285F082200E704240060089C
:100160002200E80401302300E600D12824005F08C3
:10017000220063052400E1006008220064052400D9
:10018000E200E108031DD128E208031DD1285F0821
:100190002200E304240060082200E404013023006C
:1001A000E70024005B0885005A08840002308407B9
:1001B0000008803A0319003A031DE6285908850013
:1001C0005808840022006108800008005B08850050
:1001D0005A088400023084070008E10059088500AD
:1001E000580884006108800008005F082200630549
:1001F000031D0029240060082200640503190F294B
:1002000024005F09E1006009E20061082200E305C3
:10021000240062082200E40501302300E7002400E6
:100220005908850058088400003080000800EB1F42
:100230001B29EA01EB016B080F3C031D21296A0809
:10024000FF3C03182929EB1B2929FF30EA000F3056
:10025000EB0000308500E03084006908EC000310FA
:100260006C0D84070008ED00840A6D086A06031D02
:100270003D2900086B060319080000308500E030B6
:1002800084006908ED0003106D0D8407840A6A0874
:10029000EE006B08800084036E08800001302200AD
:1002A000EF000800DF01E001DF1908003F1C5A29B8
:1002B0003E08E007BF0C0310BE0DDF0A54292500DD
:1002C000A201A301A401A501A601A21A080024000D
:1002D0006C1C882964082500A30724006508031CFA
:1002E0007429650F742976292500A407240066085F
:1002F000031C7D29660F7D297F292500A507240081
:100300006708031C8629670F862988292500A60708
:1003100003102400EF0CEE0CED0CEC0C0310E40DBC
:10032000E50DE60DE70D2500A20A6529E401E701C8
:10033000E8015D08E5005E08E600641A08005F1C3D
:10034000A7296508E70766080318660FE807031082
:10035000E00CDF0C0310E50DE60DE40A9D29EA012F
:10036000EB01EC01ED012500A001A101A201A30117
:100370002400EE0120306E05EF00EF08031D080099
:100380002500A035A10DA20DA30D2400E10DE20D65
:10039000E30DE40DEA0DEB0DEC0DED0D68086D02BB
:1003A000031DDC2967086C02031DDC2966086B024B
:1003B000031DDC2965086A02031CEE296508EA02B0
:1003C0006608031C660FEB026708031C670FEC024C
:1003D0006808031C680FED02250020142400EE0AB3
:1003E000BA292D0891001F30160503191419F32995
:1003F00008000030CA002030C9004608BE0007309F
:10040000BF00522160084907C7004A08C800031806
:10041000C80A0130CC00A030CB004608CD00031044
:100420004D0DCB070318CC0A4C0885004B088400FF
:100430000030800048088500470884000008CE008E
:100440004E08143A0319282A013A0319282A372A90
:100450004808850047088400043084070008CF005E
:100460004C0885004B0A84004F0880003D2A4C0848
:1004700085004B0A8400FF3080004B08D8004C08F0
:10048000D9004708DA004808DB004608DC00DD0137
:10049000DE012B200800CF010C304F0203180800AA
:1004A0000130D100A030D0004F08D2000310520D0F
:1004B000D0070318D10A0030D6002030D5004F08ED
:1004C000BE000730BF00522160085507D300560810
:1004D000D4000318D40A540885005308840003305C
:1004E00084074E080006031D6B2B54088500530833
:1004F00084000008D7005708013A03198F2A033AED
:100500000319B42A013A0319D92A073A0319FD2A13
:10051000013A0319222B033A0319472B6B2B4D0881
:100520000A3A031DA22A5008D8005108D9005308DE
:10053000DA005408DB004F08DC000130DD00DE008B
:100540002B206B2B4D08093A031D6B2B5008D8004C
:100550005108D9005308DA005408DB004F08DC00CA
:10056000DD01DE012B206B2B4D08093A031DC72A44
:100570005008D8005108D9005308DA005408DB00AD
:100580004F08DC000130DD00DE002B206B2B4D0816
:100590000A3A031D6B2B5008D8005108D9005308A4
:1005A000DA005408DB004F08DC00DD01DE012B20FF
:1005B0006B2B4D03031DEB2A5008D8005108D900BE
:1005C0005308DA005408DB004F08DC000130DD007E
:1005D000DE002B206B2B4D08053A031D6B2B5008BA
:1005E000D8005108D9005308DA005408DB004F083E
:1005F000DC00DD01DE012B206B2B4D08023A031DD0
:10060000102B5008D8005108D9005308DA005408BC
:10061000DB004F08DC000130DD00DE002B206B2BFF
:100620004D08063A031D6B2B5008D8005108D9001D
:100630005308DA005408DB004F08DC00DD01DE015E
:100640002B206B2B4D08033A031D352B5008D80087
:100650005108D9005308DA005408DB004F08DC00C9
:100660000130DD00DE002B206B2B4D08073A031D07
:100670006B2B5008D8005108D9005308DA005408F1
:10068000DB004F08DC00DD01DE012B206B2B4D0869
:10069000043A031D5A2B5008D8005108D9005308BA
:1006A000DA005408DB004F08DC000130DD00DE001A
:1006B0002B206B2B4D08083A031D6B2B5008D800DC
:1006C0005108D9005308DA005408DB004F08DC0059
:1006D000DD01DE012B202400CF0A4C2A23009518CF
:1006E0006E2B24003D082300910024003E082300C7
:1006F00093009513151524003F108B1B3F148B138B
:10070000553023009600AA30960095141511240048
:100710003F188B173F1C8B1308004308E90044085F
:10072000DD00DE01F430DF000130E00096216708D3
:10073000EA006808EB00172108000315031DA62B2B
:100740000315031DA62B03150319AB2BDB01DC01DD
:10075000DD01DE01B72B0830FF390319B72BDB357C
:10076000DC0DDD0DDE0D0318DE17FF3EAC2B5F0840
:10077000E1006008E200E301E401E01FC12BE303B4
:10078000E4036108DB076208DC3D6308DD3D6408C3
:10079000DE3D5B08E4005C08E5005D08E6005E08FD
:1007A000E700F430EC000130ED00EE01EF015F21D5
:1007B00023082400E900250024082400EA0025007D
:1007C0002508A0002608A10024006908DB006A08AB
:1007D000DC00250020082400DD002500210824007D
:1007E000DE00E9015B08E1005C08E2005D08E3006F
:1007F0005E08E400DE1F082CE109E209E309E409D0
:10080000E10A0319E20A0319E30A0319E40AE90AEF
:100810000C30E500E601E701E801AF2125002008E2
:100820002400DB00250021082400DC00250022082C
:100830002400DD00250023082400DE00691C2B2C89
:10084000DB09DC09DD09DE09DB0A0319DC0A03190F
:10085000DD0A0319DE0A003000380038FF390319B9
:100860003F2C5E0DDB01DC01DD01DE010318DB0343
:100870000318DC030318DD030318DE03422C0830E1
:10088000E100E10803194B2C5E0DDE0CDD0CDC0CE5
:10089000DB0CE103422C5A08E9005B08EA005C0823
:1008A000EB00172108003708E9003808E400390890
:1008B000E500E601E701B91F5F2CE603E7033A080C
:1008C000EC00ED01EE01EF015F2123082400EA00B6
:1008D000250024082400EB00250025082400C10081
:1008E000250026082400C000C10CEB0CEA0CC10C4A
:1008F000EB0CEA0CC10CEB0CEA0CC10CEB0CEA0C97
:10090000C10CEB0CEA0C172108005B087F3C0318B4
:100910008B2C7F30DB005A08E9005B08DD00DE012C
:100920005C08DF00E00196216708EA006808EB0038
:10093000EA0DEB0DEA0DEB0DFC30EA05172108007E
:100940003908003C3A080318031DBA1B08003C088C
:1009500085003B0884000008BD0038088500370882
:1009600084000008BE006E233C0885003B0884001C
:100970000008BD00840ABD0A0319800A84033D08EB
:100980008000B70A0319B80AB9080319BA03B903F2
:10099000A02C3E0885003D088400840A1830BF0062
:1009A000800184033F0880000130C000B830BF00E0
:1009B00008002400B301043033020318080001309A
:1009C000850020308400330EF03984070530840719
:1009D0000030800020308400330EF0398407063068
:1009E0008407FF30800020308400330EF039840704
:1009F00006308407840AFF30800020308400330EE4
:100A0000F039840708308407FF30800020308400EC
:100A1000330EF039840709308407FF30800020301E
:100A20008400330EF03984070A30840703308407CA
:100A30000030B400B500B6000030800084033608F2
:100A4000800084033508800084033408800020304F
:100A50008400330EF03984070E30840700308000A4
:100A600020308400330EF03984070F3084070030C3
:100A700080000930CD003308CE004B22B30ADB2CB6
:100A800004303802031C462DC20108000130C100A9
:100A9000B830C0003808BE000630BF0052216008E0
:100AA0004007BC004108BD000318BD0A3908023ADE
:100AB00003196D2D013A03199D2D073A0319A62D2F
:100AC000013A0319B12D023A0319BC2D0F3A03194B
:100AD000C72D013A0319D62D5E2E3A08013A0319A3
:100AE000782D033A0319812D023A03198A2D8A2D94
:100AF0003D0885003C088400803080000130C20041
:100B000008003D0885003C088400813080000130E9
:100B1000C200080001303B02031C5E2E3B08103C63
:100B2000031C5E2E3B03C3003D0885003C08840087
:100B3000430880000130C20008003D0885003C0ADF
:100B400084003B0880000130C20008003D08850099
:100B50003C088400023084073B0880000130C2005A
:100B600008003D0885003C088400033084073B08EA
:100B700080000130C20008003D0885003C08840068
:100B8000043084073B0880000130C20008000930AF
:100B90003B0203185E2E3D0885003C0884000530AA
:100BA00084073B0880000130C2000800B808031920
:100BB000DD2D3808023A031D5E2E3B08003C031869
:100BC0005E2E7F303B0203185E2E01308500B83068
:100BD00084003808BE000630BF0052216008C30000
:100BE000430884070008C400840A0008C500840A7A
:100BF0000008C600840A0008C700840A0008C8006C
:100C0000840A0008C90001308500B8308400380A21
:100C1000BE000630BF0052216008840744088000EF
:100C2000840A45088000840A46088000840A470830
:100C30008000840A48088000840A49088000013046
:100C40008500B83084003808BE000630BF0052214D
:100C500060088407840A003080003B03C300013031
:100C60008500B83084003808BE000630BF0052212D
:100C70006008840702308407430880000130850043
:100C8000B8308400380ABE000630BF005221600828
:100C90008407840A3B08800001308500B830840056
:100CA000380ABE000630BF005221600884070230B7
:100CB00084077F3080000130C2000800C2010800B4
:100CC00020009111240016152000911D642E0800AB
:100CD00020009111240016142000911D6C2E240078
:100CE0002C08AD00AD35F12108003E0885003D0817
:100CF0008400840A0330BF00800184033F08800021
:100D00000130C0006030BF0008003808023A031903
:100D1000902E0E3A0319A32E683A0319AE2EB52E63
:100D20003908003A031D942E01303A02031CB52EF7
:100D30003A08103C031CB52E3A032200E0000130B3
:100D40002400BB0008003908013A031DB52E3A08FB
:100D50002200E10001302400BB0008003A08220014
:100D6000E20001302400BB000800BB0108003E087F
:100D700085003D088400840A5430BF00800184034C
:100D80003F0880000030C0002030BF000800240071
:100D9000B3010C303302031808003308C600F921F0
:100DA0002400B30AC92E0C303802031CD92EC50109
:100DB00008000030C1002030C0003808BE000730F5
:100DC000BF00522160084007BC004108BD00031865
:100DD000BD0A0130C300A030C2003808C4000310AF
:100DE000440DC2070318C30A3908013A03190F2F2B
:100DF000033A0319E82F013A883103193628073AD4
:100E000003194E28013A03196028083A0319722879
:100E1000013A03198528073A0319C228DD28380842
:100E2000C600F92124003A08003A03193D2F0B3A75
:100E30000319462F073A0319462F013A0319462F83
:100E4000033A0319462F0F3A03198F2F033A031958
:100E5000AE2F013A0319AE2F173A0319C72F013AE3
:100E60000319C72F033A0319C72F013A0319C72FD4
:100E70000E3A0319C72F8831DD283D0885003C084C
:100E80008400003080000130C50008000B303A02B9
:100E9000C6003D0885003C088400033084074608EE
:100EA00080003C08840002308407803080003C0AC7
:100EB0008400003080003B08013A0319702F033A88
:100EC0000319702F013A0319702F073A0319702F75
:100ED000043A03197E2F053A0319872F8831DD283C
:100EE0003B03C6004608033EC7003D0885003C089A
:100EF0008400470880000130C50008003D088500D7
:100F00003C088400023080000130C50008003D0824
:100F100085003C08840001308000C50008003D08C1
:100F200085003C0884000130800003308407813054
:100F300080003C088400043084073B0880003C08A3
:100F4000840005308407003080003C0884000630AF
:100F50008407003080000130C50008003D0885008E
:100F60003C0884003A088000033084078130800008
:100F70003C088400043084073B0880003C0884005F
:100F800005308407403080000130C50008003D086E
:100F900085003C0884003A08800004308407003053
:100FA0008000BB080319DD2F3D0885003C08840044
:100FB000033084073B088000E52F3D0885003C088E
:100FC000840003308407063080000130C50008002B
:100FD0003D0885003C08840000038831031900287F
:100FE0003D0885003C0884000008023A03190028E7
:100FF0003D0885003C0884000008033A031DDD28F5
:101000003A08003A03190B28013A03192028033A39
:1010100003192B28DD2801303B02031CDD283B0887
:10102000103C031CDD283B03C6003D0885003C083E
:10103000840003308407460880000130C5000800A2
:101040003D0885003C088400033084078030800020
:101050000130C50008003D0885003C0884000330CD
:101060008407813080000130C50008003D088500FC
:101070003C0884000003031DDD283D0885003C0872
:101080008400043084073B0880003C08840005305D
:101090008407003080000130C50008003D0885004D
:1010A0003C0884000003031DDD283D0885003C0842
:1010B0008400053084073B0880000130C50008002B
:1010C0003D0885003C0884000003031DDD283D0821
:1010D00085003C088400063084073B08800001300E
:1010E000C50008003D0885003C0884000008023A5D
:1010F000031DDD283D0885003C0884000530840779
:101100003B0880000130C50008003A08013A031985
:101110009328013A03199E28023A0319A928013A93
:101120000319B428DD283D0885003C0884000230FE
:1011300084073B0880000130C50008003D08850099
:101140003C08840002308407003080000130C50074
:1011500008003D0885003C08840002308407803088
:1011600080000130C50008003D0885003C0884006F
:1011700002308407003080003C0A840000140130F3
:10118000C50008003D0885003C0884000008143AAA
:101190000319D2283D0885003C0884000008153A50
:1011A000031DDD283D0885003C08840004308407C9
:1011B0003B0880000130C5000800C501080023007D
:1011C0009518DF2824003708230091009513151483
:1011D00013082400B80008003E0885003D0884007C
:1011E000840A1430BF00800184033F08800001306E
:1011F000C000D030BF0008002400B3010430330227
:1012000003184D2901308500D03084003308BE001A
:101210000530BF0080315221600884070008B60005
:101220003608073A883103191929043A03192D2978
:1012300044293308C30001308500D03084003308CE
:10124000BE000530BF008031522160088407840A47
:101250000008C4008D23883149293308B700B8013C
:101260002030B90001308500D03084003308BE0042
:101270000530BF008031522160088407840A0008CD
:10128000BA005324883149293308C300C40180318E
:101290008D232400B30A8831FE2801302200EF009C
:1012A00008003808043C03185729C201080001301F
:1012B000C100D030C0003808BE000530BF0080310A
:1012C000522160084007BC004108BD000318BD0A58
:1012D0003908013A8831031974290F3A0319312A60
:1012E000013A0319462A572A3A08003A0319942961
:1012F0007F3A0319A3296B3A0319AF29163A031948
:10130000BB29073A0319D229013A0319E3290F3AF5
:101310000319F429073A0319F429013A0319F429A6
:10132000033A0319F429572A3808C300C40180314D
:101330008D2324003D0885003C0884000030800097
:101340000130C20008003D0885003C0884000730D9
:101350008000840A053080000130C20008003D088A
:1013600085003C08840006308000840A0530800037
:101370000130C20008003D0885003C0884000530AB
:10138000800002308407813080003C0884000330F4
:1013900084073B0880003C0A84000530800001304F
:1013A000C20008003D0885003C088400043080002D
:1013B00002308407813080003C0A840005308000C0
:1013C0000130C20008003D0885003C08840003305D
:1013D000800002308407813080003C0A84000530A0
:1013E00080000130C20008000B303A02C3003D0803
:1013F00085003C08840002308407430880003B08D5
:10140000013A0319102A033A0319102A013A031961
:10141000102A073A0319102A103A0319252A572AC5
:101420003D0885003C088400013080003B03C30078
:1014300003308407430880003C088400043084079C
:10144000003080000130C20008003D0885003C08E3
:10145000840002308000840A053080000130C20020
:1014600008003D0885003C0884000003031D572A3E
:1014700040303B02C3003D0885003C088400043036
:101480008407430880000130C200080000303B029E
:10149000031C572A3B08083C031C572A3D088500BB
:1014A0003C0A84003B0880000130C2000800C201F1
:1014B0000800D40104305402031808000130D80099
:1014C000D030D7005408BE000530BF008031522113
:1014D00060085707D5005808D6000318D60A5608E2
:1014E0008500550884008008883103195D2B560853
:1014F000850055088400023084074E080006031D4D
:101500005D2B0130D3002030D2004E0EF039D207CF
:101510000318D30A56088500550884000008D9002E
:101520005908013A0319982A033A03193D2B5D2BF8
:101530004D08013A0319A92A033A0319A92A013AC5
:101540000319A92A073A0319A92A0F3A0319182BD4
:101550005D2B4D03CF0056088500550884000330ED
:1015600084074F080006031D5D2B560885005508AB
:101570008400043084070008DA005308850052080C
:101580008400063084074F088407D1015A080007F9
:10159000D0000318D10A1830D002031CD103D11F88
:1015A000D62A0C30D0070318D10ACF2A5008603C45
:1015B00051080318031DD11BE22A0C30D002031C72
:1015C000D103D62A00308500E83084005408DA00C0
:1015D00003105A0D8407840A5008DB00510880006C
:1015E00084035B0880005408DA0000308500E8308E
:1015F00084005408E1000310610D84070008DB003B
:10160000840A0008DC00DD01DE01801F092BDD03F8
:10161000DE0353088500520884000A30840700085E
:10162000DF00840A0008E00080319D2388315D2BB3
:101630005408DA0000308500E83084005408E100E6
:101640000310610D84070008DB00840A0008DC0039
:10165000DD01DE01801F2E2BDD03DE035308850034
:10166000520884000A3084070008DF00840A00085A
:10167000E00080319D2388315D2B4D08013A03192C
:101680004B2B033A03194B2B013A03194B2B073A07
:1016900003194B2B5D2B5408DA00530885005208C0
:1016A00084000E3084070008DB0056088500550AC8
:1016B00084000008DC00803185242400D40A8831AD
:1016C0005A2A2400B301B401BD01A630BE00803106
:1016D0006E230130B500B6010230BE003330BD00CC
:1016E00075263F08B7004008B8003308B900340831
:1016F000BA000230BC003530BB00A0240230BE006E
:101700003330BD00C9243F08B7004008B800330893
:10171000B9003408BA000230BC003530BB00A02448
:101720000230BE003330BD008831EC203F08B700E6
:101730004008B8003308B9003408BA000230BC00D1
:101740003530BB008031A0240230BE003330BD00F4
:10175000B7263F08B7004008B8003308B90034087E
:10176000BA000230BC003530BB00A02408003208AB
:10177000003C33080318031DB31B0800350885001F
:10178000340884000008B700DF203808B6003108AC
:10179000850030088400360880003508850034084C
:1017A00084000008B600840AB60A0319800A84037C
:1017B00036088000B00A0319B10AB2080319B3034E
:1017C000B203B72BBD013B0885003A088400053001
:1017D000840700083D0203181D2C3B0885003A08C9
:1017E0003D0784003C080006031D1B2C3B088500B8
:1017F0003A0884000530840780033B0885003A08D6
:1018000084000530840700083D020318182C3B08AB
:1018100085003A0884003D0AC0004008840700089B
:10182000C1003A083D07840041088000BD0AFD2B35
:101830000130C0000800BD0AE32BC0010800C5014B
:10184000CA01FF30C600C700C800C90041088500B2
:101850004008840005308407800803197C2D410866
:10186000850040088400053084070003031D3F2CD9
:1018700041088500400884000008C6007C2D43080C
:10188000850042088400053084070008CB004B081F
:10189000033A0319582C073A0319582C053A03192F
:1018A000C42C033A0319C42C023A0319302D302DED
:1018B00041088500400884000008C6000130C400CB
:1018C0004108850040088400053084070008440270
:1018D0000318532D41088500400844078400000880
:1018E00046020318812C4808C9004708C80046086A
:1018F000C700410885004008440784000008C6006E
:10190000C22C470A03198D2C410885004008440762
:101910008400000847020318992C4808C9004708AA
:10192000C800410885004008440784000008C7003B
:10193000C22C480A0319A52C410885004008440719
:101940008400000848020318AF2C4808C900410869
:1019500085004008440784000008C800C22C490ADA
:101960000319BB2C41088500400844078400000887
:1019700049020318C22C410885004008440784002E
:101980000008C900C40A602C410885004008840092
:101990000008C6000130C4004108850040088400EA
:1019A00005308407000844020318532D41088500C0
:1019B000400844078400460800020318ED2C48083C
:1019C000C9004708C8004608C7004108850040080C
:1019D000440784000008C6002E2D470A0319F92C7D
:1019E00041088500400844078400470800020318A6
:1019F000052D4808C9004708C8004108850040086F
:101A0000440784000008C7002E2D480A0319112D31
:101A10004108850040084407840048080002031874
:101A20001B2D4808C9004108850040084407840070
:101A30000008C8002E2D490A0319272D41088500EA
:101A40004008440784004908000203182E2D41086D
:101A500085004008440784000008C900C40ACC2C53
:101A6000C401043044020318532D41088500400886
:101A7000840005308407000844020318532D4108F0
:101A80008500400884004408CC004C088407000806
:101A9000CD000230850046308400440884074D089C
:101AA0008000C40A312D43088500420884000530B7
:101AB00084070008023A0319672D4308850042088D
:101AC0008400053084070008043A031D7C2D460A73
:101AD00003197C2D470A03197C2D480A031D752D17
:101AE0004708C900FF30C7007C2D490A031D7C2D23
:101AF0004808C900FF30C800C4010430440203187C
:101B0000CD2D410885004008840006308407440834
:101B1000CB004B0884070008CC000230850046301B
:101B20008400440884074C0800060319CA2D0230BB
:101B30008500463084004408CD004D088407000825
:101B4000CE00410885004008840006308407440820
:101B500084074E0880000230850046308400440827
:101B60008407000A0319C12D440ACD003D08CE00A8
:101B70005922440ACD003D08CE0080314B228831E5
:101B8000C82D4408053ECD003D08CE0080314B22D3
:101B90000130CA00C40A88317D2D4A08CB000800F4
:101BA000B7013308013A0319122E0A3A03191E2EFF
:101BB000073A03191E2E013A03191E2E033A031980
:101BC0001E2E113A03192D2E3F3A03192D2E013ADC
:101BD00003192D2E033A03192D2E013A03192D2E28
:101BE000073A03192D2E013A03192D2E033A031932
:101BF0002D2E013A03192D2E0F3A03192D2E013ADD
:101C000003192D2E033A03192D2E3F3A03193C2EAA
:101C1000033A03193C2E013A03193C2E0F3A0319DB
:101C20003C2E482E3408B8003508B9003608BA00F2
:101C3000803185263B08B7008831482E0B303302AF
:101C4000B8003408B9003508BA003608BB00803146
:101C500040254208B7008831482E1F303302B800B3
:101C60003408B9003508BA003608BB008031D326E5
:101C70004508B7008831482E15303302B8003408C3
:101C8000B9003508BA003608BB0051214208B70038
:101C9000B7080319080022000E15FF30EE000800F7
:101CA0002C08B0002D08B1002F08003C0318632E4B
:101CB0003108850030088400B00A0319B10A2E08E3
:101CC0008000AF03542E2C08B2002D08B30008008A
:101CD00060302400AC00803168268F30AD00F121E7
:101CE000602660302400AC006826CF30AD00F121C2
:101CF000602608008031C7268831FC208031D92435
:101D00000800410885004008840005308407000869
:101D1000003C0318952E4108850040088400000807
:101D20003D06031D952EC3010800C2014108850030
:101D30004008840005308407000842020318C92EB9
:101D4000410885004008420784003D080006031D45
:101D5000C72E4208003C0318BE2E410885004008EB
:101D600084004203C400440884070008C5004008FA
:101D70004207840045088000C203A92E410885005F
:101D8000400884003D0880000130C3000800C20AFA
:101D9000962E41088500400884000530840700081D
:101DA000053A031DEA2E0430C2004208003C031825
:101DB0000E2F41088500400884004203C4004408F7
:101DC00084070008C50040084207840045088000D9
:101DD000C203D52E410885004008840005308407E1
:101DE0000008C2004208003C0318072F4108850084
:101DF000400884004203C400440884070008C5006A
:101E000040084207840045088000C203F22E4108C2
:101E100085004008840005308407800A4108850059
:101E2000400884003D0880000130C3000800C8015C
:101E3000D001D101D201D301CD1F2A2FC817CC095F
:101E4000CD09CE09CF09CC0A0319CD0A0319CE0A50
:101E50000319CF0AC81A482F4C1C3C2F4408D0073E
:101E600045080318450FD10746080318460FD20747
:101E700047080318470FD3070310CF0CCE0CCD0C27
:101E8000CC0C0310C40DC50DC60DC70DC80A2A2FF2
:101E9000C81F0800D009D109D209D309D00A0319F3
:101EA000D10A0319D20A0319D30A0800B701D601CF
:101EB000D701D801D9013C08D2003D08D300D40194
:101EC000D501371A0800501C732F5208D607530843
:101ED0000318530FD70754080318540FD807550891
:101EE0000318550FD9070310D10CD00C0310D20DD5
:101EF000D30DD40DD50DB70A612F2000911091128A
:101F000021009110911623001F129F159F101F1082
:101F10001E139E121E129E111E111E109D171D13C0
:101F20009D161D169C011F309B0008002100951274
:101F300095111511951415148B160B11080024001A
:101F4000B701DF203808A63A031D0800AC01AD0137
:101F50000130AE00AF010230BE002C30BD00803138
:101F600075263F08B0004008B1002C08B2002D08CB
:101F7000B3000230B5002E30B4008831B7230230F0
:101F8000BE002C30BD008031C9243F08B00040089D
:101F9000B1002C08B2002D08B3000230B5002E307D
:101FA000B4008831B7230230BE002C30BD00EC20D5
:101FB0003F08B0004008B1002C08B2002D08B30063
:101FC0000230B5002E30B400B7230230BE002C30F2
:101FD000BD008031B7263F08B0004008B1002C0892
:101FE000B2002D08B3000230B5002E30B4008831A5
:101FF000B7230800B1010430310203180800013092
:10200000B500B830B4003108BE000630BF008031E2
:10201000522160083407B2003508B3000318B30A30
:102020000130B7002030B600310EF039B607031882
:10203000B70A3308850032088400C80181300002E5
:102040000319003C0319C80AC7012E0822006002C8
:102050009031031D2D282400C70A2400C501C7089C
:10206000031DC808031DC50A330885003208840013
:10207000BD01803000020319003C0319BD0A33087A
:10208000850032088400C40100082E020319C40A26
:10209000C601BD080319C408031DC60AB801C50856
:1020A0000319C608031DB80AB8080319D82833084D
:1020B000850032088400043084070008C400C5018C
:1020C000C601C70100302F02CC002030031C213094
:1020D0003002BD003D08CD00CE01BD1BCE03CF01B7
:1020E000BD1BCF03883117275008B9005108BA002B
:1020F0005208BC005308BB00BC0CBA0CB90CBC0C99
:10210000BA0CB90CBC0CBA0CB90CBC0CBA0CB90C9E
:10211000BC0CBA0CB90C37088500360884000A30AC
:1021200084073908C0003A08C100C201C3019031D8
:10213000BA1F9C28C203C3030008C400840A000815
:10214000C500840A0008C600840A40084402031D32
:10215000B52841084502031DB52842084602031D63
:10216000B528430800020319D8283908C8003A08DE
:10217000C900CA01C701BA1FBF28CA03C70337086D
:102180008500360884000A30840703308407470836
:10219000800084034A088000840349088000840387
:1021A000480880000B30CD003108CE00883159221C
:1021B000B10A8831FB2FB101043031020318080045
:1021C0000130B3002030B200310EF039B2070318ED
:1021D000B30A0130B700B830B6003108BE0006308F
:1021E000BF008031522160083607B4003708B500BF
:1021F0000318B50A3508850034088400C001813011
:1022000000020319003C0319C00ABD012E08220078
:1022100060029031031D0E292400BD0A2400BB0179
:10222000BD08031DC008031DBB0A3508850034081E
:102230008400B901803000020319003C0319B90A77
:102240003508850034088400BA0100082E020319FD
:10225000BA0ABC01B9080319BA08031DBC0AB801BF
:10226000BB080319BC08031DB80AB8080319682A7B
:102270003508850034088400023084078008031D77
:102280004B2935088500340A8400B90100082F0263
:102290000319B90A6729350885003408840002301B
:1022A0008407BB012F0800020318BB0A350885000C
:1022B000340A8400BC0100082F020318BC0ABA01CA
:1022C000BB08031DBC08031DBA0A3A08B900B908C7
:1022D0000319682AB0080319152A3508850034083F
:1022E000840003308407800803198029350885009D
:1022F000340884000330840700083002031C682A75
:1023000033088500320884000E30840730088000CE
:102310003508850034088400053084070008B900BA
:102320003908053A03199E29033A03199E29013AEF
:1023300003199E290F3A03199E29F52933088500B0
:102340003208840006308407BD01831BBD0A0408DF
:10235000C000320884000F3084070008C00740081E
:10236000840083133D1883172F08800033088500ED
:10237000320884000F308407000ACD003108CE00F7
:102380008831592233088500320884000F308407D1
:10239000000ACD003108CE0080314B223308850081
:1023A000320884000F308407800A0008BA0035081C
:1023B0008500340884000530840706300002BB0025
:1023C000BC01BB0A0319BC0A3A083B023C08903125
:1023D00003180D2A031D0D2A3308850032088400D6
:1023E0000F308407003080000D2A3208C000330807
:1023F000C1002F08BD0088318126C3089031031920
:102400000D2A3208C0003308C1003408C200350864
:10241000C3003108BD0088311F240A30CD003108C7
:10242000CE0080314B229031682A3508850034086F
:102430008400053084070008B9003908053A0319FB
:102440002B2A033A0319682A013A0319682A0F3A1A
:102450000319682A402A33088500320884000630B0
:102460008407FF3080000530CD003108CE00803178
:102470004B220930CD003108CE004B229031682A22
:102480003208BA003308BB002F08BC008831E223B1
:10249000C00890310319682A3208C0003308C1000F
:1024A0003408C2003508C3003108BD0088311F243C
:1024B0003308850032088400053084078008903195
:1024C000031D682A0930CD003108CE0080314B222F
:1024D000B10A9031DC282400AC0104302C0203182E
:1024E000CC2A01308500B83084002C08BE000630AC
:1024F000BF008031522160088407FF308000013026
:102500008500B83084002C08BE000630BF00522180
:1025100060088407840A0030800001308500B830EC
:1025200084002C08BE000630BF00522160088407DA
:10253000023084077F30800001308500B83084008D
:102540002C08BE000630BF0052216008840703300B
:1025500084070030800001308500B83084002C08EA
:10256000BE000630BF005221600884070430840793
:102570000C30800001308500B83084002C08BE008B
:102580000630BF0052216008840705308407003000
:102590008000AC0A90316D2A81302300B800080019
:1025A0002E09B2002F09B30032082200630524006F
:1025B000B0003308220064052400B1008030B4006C
:1025C000B501B6018030B70022008C122400B40897
:1025D000031DED2AB50803192D2B22000C1224002F
:1025E00034083005B80035083105B900BA01B8081B
:1025F0000319BA0AB908031DBA01BB01BA080319C5
:10260000BB0A3B1C052B22000C1424003B180A2B90
:1026100022000C10240036083005B80037083105B8
:10262000B900BA01B8080319BA0AB908031DBA01FA
:10263000BB01BA080319BB0A3B1C202B22008C14D7
:1026400024003B18252B22008C1022000C1624009D
:10265000B536B40CB736B60CE62A22008C16080044
:1026600023009D1C352B1D121D1669086806031DCD
:102670003C2B2400B201080000308500A03084000B
:102680006908840700082400AE002300E90A3F30EF
:10269000E905F03024002E05AF002F08F03A031DA5
:1026A000B12B2E08F83A0319652B023A0319652B52
:1026B000013A0319652B073A0319652B0C3A0319E4
:1026C000682B073A03196C2B302B2E08B200080038
:1026D00002302300EE00302B23006E08013A03196C
:1026E000AD2B013A0319AD2B053A031D932B2200A4
:1026F0000C150E15FA302400B40080310720FA3092
:10270000B4000720FA30B4000720FA30B4000720E4
:1027100022000C110E11E2088831031D612388315B
:102720007A269031AD2B22000C112400B3010A301F
:1027300033020318AB2B22000E1564302400B400C2
:102740008031072022000E1164302400B4000720DD
:10275000B30A9031972B88317A262300EE0190310D
:10276000302B80302E05B000B101B0080319B10A3A
:10277000B108031DE52B2300EE01EC0124002E0817
:102780002300EA00F03024002E05B3003308A03AFD
:102790000319DD2B603A0319DD2B103A0319DD2BE9
:1027A000503A0319E12B103A0319E12B203A03198F
:1027B000E12B503A0319E12BE12B01302300EB0010
:1027C000302B02302300EB00302B23006E08023A3E
:1027D0000319032C013A0319102C073A03191E2C74
:1027E000013A03192C2C033A0319322C013A03192C
:1027F000382C0F3A03193E2C093A0319302B013AB1
:1028000003194E2C302B2400AE08031D0A2C033074
:10281000B3000C2C0130B30033082300EE00302B42
:1028200024002E087F3A031D182C0430B3001A2C04
:102830000130B30033082300EE00302B24002E08B3
:10284000123A031D262C0530B300282C0130B300AA
:1028500033082300EE00302B24002E08A0002300B4
:10286000EE0A302B24002E08A1002300EE0A302BA4
:1028700024002E08A2002300EE0A302B240020089A
:10288000B3002108B4002208B5002E08B600883134
:10289000D02505302300EE009031302BEA080319D3
:1028A000302B01308500693084006C08EC0A840705
:1028B00024002E08800023006B086C02031C302BC0
:1028C000EC01F0306A052400B3003308803A0319A4
:1028D000752C103A0319752C703A0319752C503A5F
:1028E0000319752C603A031D302B23006A0824005D
:1028F000B200080020009111210091152400161447
:10290000080021000E148E14240095161516951536
:10291000151195101510941713309200080022001D
:10292000E0010A30E100E20108002400AE010C30B1
:102930002E02031808000130B000A030AF002E08AE
:10294000B1000310310DAF070318B00A300885003D
:102950002F08840080080319CD2C300885002F082B
:102960008400800BCD2C2F08D8003008D90000300F
:10297000B5002030B4002E08BE000730BF00803103
:10298000522160083407DA003508DB000318DB0A3F
:102990002E08DC00DD01DE012B202400AE0A903180
:1029A000972C2E08F83A0319DF2C023A03195A2DF6
:1029B000013A03195A2D073A0319D72D0800AF0120
:1029C0000C302F02031808000030B5002030B4008E
:1029D0002F08BE000730BF00803152216008340745
:1029E000B2003508B3000318B30A33088500320873
:1029F00084000008143A90310319062D330885002D
:102A0000320884000008153A031D582D330885004C
:102A1000320884000008153A031D122DA308031D77
:102A2000122D582D0130B100A030B0002F08B50094
:102A30000310350DB0070318B10A31088500300ABC
:102A400084008008031D3F2D3008D8003108D900CC
:102A50000030B6002030B5002F08BE000730BF00A0
:102A60008031522160083507DA003608DB00031890
:102A7000DB0A2F08DC000130DD00DE012B20240002
:102A800031088500300A8400800A0008B400330849
:102A90008500320884000330840700083402903136
:102AA000031C582D31088500300A84000030800056
:102AB000AF0AE02C0130A300AF010C302F02031845
:102AC00008000030B6002030B5002F08BE000730E7
:102AD000BF008031522160083507B7003608B800C2
:102AE0000318B80A3708B2003808B3000130B7003D
:102AF000A030B6002F08B5000310350DB607031837
:102B0000B70A3608B0003708B1003308850032082C
:102B100084000008B4003408143A903103199D2D44
:102B2000013A03199D2D023A0319B02D013A0319F8
:102B3000B42D0F3A0319C52DD32D2E08FA3A031DD3
:102B4000D32D330885003208840004308407000840
:102B5000B50031088500300A840035088000D32D87
:102B60002E08FA3A031DD32D3008D8003108D900B9
:102B70003208DA003308DB002F08DC000130DD000A
:102B8000DE0180312B209031D32D3008D800310860
:102B9000D9003208DA003308DB002F08DC00DD0141
:102BA000DE0180312B202400AF0A90315D2DA3017E
:102BB000AF010C302F02031808000030B60020309F
:102BC000B5002F08BE000730BF00803152216008D9
:102BD0003507B7003608B8000318B80A3708B2003E
:102BE0003808B3000130B700A030B6002F08B50098
:102BF0000310350DB6070318B70A3608B0003708BA
:102C0000B10033088500320884000008B40034089D
:102C1000163A90310319102E0F3A0319202E2F2E39
:102C20003008D8003108D9003208DA003308DB0058
:102C30002F08DC00DD01DE0180312B2090312F2EAA
:102C40003008D8003108D9003208DA003308DB0038
:102C50002F08DC000130DD00DE0180312B20240054
:102C6000AF0A9031D92DB1010C30310203180800A0
:102C70000130B300A030B2003108B4000310340DAD
:102C8000B2070318B30A0030B8002030B70031088B
:102C9000BE000730BF008031522160083707B50001
:102CA0003808B6000318B60A3608850035088400CF
:102CB0000008023A90310319652E36088500350860
:102CC00084000008033A031D342F360885003508B8
:102CD00084000430840700082F06031D342F3608B3
:102CE00085003508840003308407C101813000026B
:102CF0000319003C0319C10AC0012E08220060021A
:102D0000031D842E2400C00A2400BC01C008031D3A
:102D1000C108031DBC0A360885003508840003304D
:102D20008407BA01803000020319003C0319BA0A73
:102D3000360885003508840003308407BB0100088D
:102D40002E020319BB0ABD01BA080319BB08031DF3
:102D5000BD0AB901BC080319BD08031DB90AB908A9
:102D60000319342F360885003508840005308407A0
:102D700000083002031CF62E360885003508840052
:102D8000053084070008BA0033088500320A840041
:102D90003A080002031CD32E33088500320A84004F
:102DA000000A031DF62E3208D8003308D900350872
:102DB000DA003608DB003108DC003608850035080B
:102DC0008400BA01033000020319BA0ADD01BA080F
:102DD0000319DD0ADE0180312B2024003308850031
:102DE000320A8400300880009031342F3608850084
:102DF0003508840005308407000830020318342F9A
:102E000033088500320A84000008BA0036088500BD
:102E1000350884000530840700083A020318172F8C
:102E200033088500320A8400000A031D342F32085B
:102E3000D8003308D9003508DA003608DB0031083D
:102E4000DC003608850035088400DD01033000020F
:102E50000319DD0ADE0180312B20240033088500B0
:102E6000320A840030088000B10A9031342EB1015A
:102E70000C303102031808000130B300A030B2005A
:102E80003108B4000310340DB2070318B30A003040
:102E9000B8002030B7003108BE000730BF008031D5
:102EA000522160083707B5003808B6000318B60A83
:102EB000360885003508840000039031031DFB2F80
:102EC000360885003508840003308407C10181304D
:102ED00000020319003C0319C10AC0012E08220098
:102EE0006002031D752F2400C00A2400BC01C00825
:102EF000031DC108031DBC0A36088500350884007F
:102F000003308407BA01803000020319003C031922
:102F1000BA0A360885003508840003308407BB01EF
:102F200000082E020319BB0ABD01BA080319BB0829
:102F3000031DBD0AB901BC080319BD08031DB90A68
:102F4000B9080319FB2F36088500350884000530C1
:102F500084078008031DB82F3608850035088400D3
:102F600004308407BA0100082F020319BA0AD62FC9
:102F7000360885003508840005308407BC012F0819
:102F800000020318BC0A36088500350884000430A6
:102F90008407BD0100082F020318BD0ABB01BC084D
:102FA000031DBD08031DBB0A3B08BA00BA0803197C
:102FB000FB2FB0080319E62F36088500350884007A
:102FC0000630840700083002031CFB2F3208D800AB
:102FD0003308D9003508DA003608DB003108DC0098
:102FE000BA01B0080319BA0ADD01BA080319DD0AEB
:102FF000DE0180312B202400B10A9031382F2400CB
:10300000AC010C302C029831031837280030B20084
:103010002030B1002C08BE000730BF0080315221A3
:1030200060083107AD003208AE000318AE0A013067
:10303000B400A030B3002C08B5000310350DB30761
:103040000318B40A2E0885002D0884000030800083
:10305000840A003080008403023084070A30800034
:103060002C08C600F9212400AC0A9831012803304D
:103070002000A000A2010430A700A9010530AE0085
:10308000B0010630B500B7011430ED001830F00083
:103090000F30EF000800B0010430300203180800C0
:1030A0000130B400D030B3003008BE000530BF009E
:1030B0008031522160083307B1003408B200031890
:1030C000B20A32088500310884000008043A9831B9
:1030D000031DB928320885003108840002308407B6
:1030E000BB01813000020319003C0319BB0ABA017D
:1030F0002E0822006002031D7F282400BA0A240043
:10310000B801BA08031DBB08031DB80A32088500C0
:103110003108840002308407B601803000020319B0
:10312000003C0319B60A32088500310884000230D9
:103130008407B70100082E020319B70AB901B608BF
:103140000319B708031DB90AB501B8080319B9086E
:10315000031DB50AB5080319B9283008DA002F088D
:10316000DB0032088500310A84000008DC00803171
:1031700085242400B00A98314C28B1010430310272
:10318000031808000130B500D030B4003108BE008B
:103190000530BF008031522160083407B200350885
:1031A000B3000318B30A330885003208840000080E
:1031B000053A9831031D352933088500320884000B
:1031C0000330840700082F06031D352933088500C6
:1031D0003208840002308407BC01813000020319E8
:1031E000003C0319BC0ABB012E0822006002031D2B
:1031F000FB282400BB0A2400B901BB08031DBC083E
:10320000031DB90A330885003208840002308407A0
:10321000B701803000020319003C0319B70A3308D4
:1032200085003208840002308407B80100082E02AD
:103230000319B80ABA01B7080319B808031DBA0A76
:10324000B601B9080319BA08031DB60AB60803196E
:1032500035293108DA003008DB0033088500320AEE
:1032600084000008DC00803185242400B10A9831F4
:10327000BE28AE0104302E02031808000130B2004F
:10328000D030B1002E08BE000530BF008031522181
:1032900060083107AF003208B0000318B00A3008E8
:1032A00085002F0884000008063A9831031D8E29F6
:1032B000300885002F0A8400F430BC000130BD00C6
:1032C0000008D000D101883156275608CC00570895
:1032D000CD005808CE005908CF003808C40039087E
:1032E000C5003A08C6003B08C70017275008B300BE
:1032F0005108B4005208B5005308B6003308B800AE
:103300003408B9003508BA003608BB002E08E900B9
:103310003A08EA003B08EB00803117212400AE0A8E
:1033200098313A29B1010430310203180800013004
:10333000B500D030B4003108BE000530BF00803188
:10334000522160083407B2003508B3000318B30AED
:1033500033088500320884000008033A9831031DC1
:10336000022A330885003208840002308407BC0139
:10337000813000020319003C0319BC0ABB012E086E
:1033800022006002031DC6292400BB0A2400B901E3
:10339000BB08031DBC08031DB90A330885003208A9
:1033A000840002308407B701803000020319003C1A
:1033B0000319B70A330885003208840002308407F5
:1033C000B80100082E020319B80ABA01B708031998
:1033D000B808031DBA0AB601B9080319BA08031DD3
:1033E000B60AB6080319022A3108B7002F08B80038
:1033F0003008B90033088500320A84000008BA009A
:10340000803153242400B10A9831932901302400DB
:10341000AD00D030AC00AE011430AF008831502682
:103420000030AD00E030AC00AE010830AF005026F7
:103430000030AD00E830AC00AE010830AF005026DF
:10344000682601302300D000D3010130D500D80018
:10345000DA000230DD000130DF000330E200080056
:10346000C030F400210063082400AE000F30AE0528
:103470002E08F500210062082400AE002E08F60098
:10348000210067082400AE000F30AE052E08F700BB
:10349000210066082400AE002E08F800210065080F
:1034A0002400AE000F30AE052E08F900210064089C
:1034B0002400AE002E08FA00210061082400AE00AE
:1034C0000F30AE052E08FB00210060082400AE007E
:1034D0002E08FC0009302300E500E40108007A30E2
:1034E00021009900C8308C00FB308E0023008C0135
:1034F0008E0120008C018E018B170B172200EF012B
:103500002400A001A101A201A601A70122000C151F
:10351000FF30ED000E15FF30EE0088317D27903131
:1035200081248831962790318F246B22FF27062231
:1035300088319F277A26A801A901AA01AB0123009F
:10354000EF0898310319DE2AEF019031952422000B
:10355000ED0898310319AF2AED0BAF2A0C11EE08D4
:103560000319B52AEE0BB52A0E1120008E19DB2A9D
:103570002400A60A0319A70A2830260603192708DB
:10358000031DCA2A88317A2622000E156430EE0007
:103590009831DE2A2608D03A073003192706031D82
:1035A000DE2A22000E158831612322000E15FF301D
:1035B000EE009831DE2A2400A601A70190313023C5
:1035C0003208AC00F0302C05AD002D08F03A9831EF
:1035D0000319FA2A703A0319802B103A0319952B14
:1035E000203A0319B02B603A0319F92B303A03192A
:1035F000022C302C2C08F83A0319082B023A031934
:10360000772B013A0319792B073A0319792B302CC0
:103610002300ED08031D6A2B22000E156430EE0016
:103620006B08003C6C080318031DEC1B6A2B24007C
:10363000AE010030E100E4006030E200EA30E30077
:1036400022006B082400E50022006C082400E6003C
:10365000E7012200EC1F2E2B2400E7032400E801E1
:103660002200EC1F352B2400E8032200EC1F452B21
:103670002400E509E609E709E809E50A0319E60A6D
:103680000319E70A0319E80AAE0A24008031AF21C2
:10369000250020082400B800250021082400B900D6
:1036A000250022082400BA00250023082400BB00BE
:1036B00098312E1C662BB809B909BA09BB09B80A9A
:1036C0000319B90A0319BA0A0319BB0A39212200DE
:1036D000EB01EC012300ED0A18306D020318ED0137
:1036E00024002C08AE009031D1249831302C2300D6
:1036F000ED0124002C08AE009031D1249831302CFB
:103700000F302C05AE00220069082400AF00B00184
:103710009031DB200F302C05AE0022006908240018
:10372000AF00B00137279831302C0F302C05AE0098
:10373000220069082400AF0022006A082400B000BB
:103740009031DB200F302C05AE00220069082400E8
:10375000AF0022006A082400B00037279831302CCF
:1037600022006908633A0319BF2B013A0319C52BDC
:10377000643A0319CA2B203A0319CE2BDD2B6A08B1
:103780002400A000A101A201302C6A082400A1009D
:10379000A201302C6A082400A200302C240020084A
:1037A000B3002108B4002208B50022006A082400F2
:1037B000B6008831D0259831302C0F3024002C05EC
:1037C000AE00220069082400AF0022006A0824002D
:1037D000B000BD200F302C05AE0022006908240087
:1037E000AF0022006A082400B000903133269831DF
:1037F000302C0F302C05AE00220069082400AF00E9
:103800004B20302C22006A082400A400A501A40D3E
:10381000A50DA40DA50DA40DA50DA40DA50DA40D1C
:10382000A50DA40DA50DA40DA50D8030A4057F3018
:10383000220069052400AE002E08A4040F302C05D8
:10384000AE002408AF002508B0008831FA270F30F9
:103850002C05AE002408AF002508B0009831922155
:10386000210091193C2C2200EF0803193C2C302236
:1038700090317A242200EF012200E5089831031DDF
:10388000442CE60803194F2C65082400AE002200E2
:1038900066082400AF009031D022E501E601230044
:1038A000E708983103199F2AE7012400AE01AF0110
:1038B0009031D02298319F2A2300E801E901EA01E2
:1038C000EB01EC01ED01EE01EF012200EB01EC0157
:1038D000E301E401E501E6012300E7012200E7013D
:1038E000E8012300E601E401E5012200ED01EE011B
:1038F0002400A001A101A2012100E001E1012400B6
:10390000A30100308500203084005330F300800193
:10391000840A9831F30B872C01308500A030840095
:1039200017302300B7008001840AB70B932C2200C4
:10393000A0016F2A0B1DA72C053020009500013037
:103940002300EF002200EB0A0319EC0A0B11200000
:10395000911ECD2C230019082500A7002300680A1A
:103960002500A8003F30A805230069082500280687
:103970000319C72C00308500A0308400230068089C
:10398000840725002708800028082300E80022007B
:103990000C150230ED0020009112911D09009111CB
:1039A0002300650864020318E02C003085007430A1
:1039B00084006408E40A84070008240091000900D8
:1039C00065086406031DE82CE40A240016150900A6
:1039D000E6080319F62C22006708E3046808E404EB
:1039E000E701E8012300E6010130E7002100911121
:0239F0000900CC
:020000040001F9
:02000E00A4FF4D
:02001000FFDE11
:00000001FF
