:020000040000FA
:040000009831FB2A0E
:0400080098313C2BC4
:02000E00A30845
:10001000031D0B280800F93000000000000000005C
:1000200000000000000000000000000000000000D0
:10003000FF3E031D0C28000000000000000000002F
:1000400000000000000000000000000000000000B0
:10005000A30B0B280800CE01CF014B08003A03196F
:100060005328013A03195728033A03195B28013A28
:1000700003195F28073A03196328013A031967280F
:10008000033A03196B28013A03196F280F3A031931
:100090007328013A03197728033A03197B28013A98
:1000A00003197F2808000430CE00CF0182280830D1
:1000B000CE00CF0182280230CE00CF01822801304D
:1000C000CE00CF018228CE010130CF008228CE01A0
:1000D0000230CF008228CE010430CF008228CE012A
:1000E0000830CF008228CE011030CF008228CE0108
:1000F0002030CF008228CE014030CF008228CE01B0
:100100008030CF00CC080319E328CD080319A828B4
:100110002300D2080319A82824004E0822006E05E7
:100120002400D0004F0822006F052400D100D00821
:10013000031DC328D108031DC3284E082200EE0466
:1001400024004F082200EF0401302300D500C3280B
:1001500024004E0822006C052400D0004F08220025
:100160006D052400D100D008031DC328D108031D4C
:10017000C3284E082200EC0424004F082200ED049E
:1001800001302300D60024004A088500490A840073
:100190000008803A0319003A031DD6284808850054
:1001A0004708840023006408800008004A0885008E
:1001B000490A84000008D0004808850047088400E8
:1001C0005008800008004E0822006C05031DEE2830
:1001D00024004F0822006D050319FD2824004E0954
:1001E000D0004F09D10050082200EC05240051082E
:1001F0002200ED0501302300D600240048088500C8
:1002000047088400003080000800DC1F0929DB015A
:10021000DC015C080F3C031D0F295B08FF3C031841
:100220001729DC1B1729FF30DB000F30DC00013001
:100230008500603084005A08DD0003105D0D8407DE
:100240000008DE00840A5E085B06031D2B290008F7
:100250005C060319080001308500603084005A08EC
:10026000DE0003105E0D8407840A5B08DF005C0873
:10027000800084035F08800001302300D200080062
:10028000CE01CF01CE190800311C48293008CF0714
:10029000B10C0310B00DCE0A4229E301E401E501DF
:1002A000E601E701E31A08005D1C64295508E4072C
:1002B00056080318560FE50757080318570FE607A7
:1002C00058080318580FE7070310E00CDF0CDE0C8A
:1002D000DD0C0310D50DD60DD70DD80DE30A52292C
:1002E000CE01D501D6014A08CF004B08D0004E1AE6
:1002F00008004C1C81294F08D50750080318500FDF
:10030000D6070310CD0CCC0C0310CF0DD00DCE0AA8
:100310007729DD01DE01DF01E001E301E401E50110
:10032000E601E10120306105E200E208031D08005A
:10033000E335E40DE50DE60DD20DD30DD40DD50D4D
:10034000DD0DDE0DDF0DE00D59086002031DB22941
:1003500058085F02031DB22957085E02031DB22927
:1003600056085D02031CC3295608DD025708031C0A
:10037000570FDE025808031C580FDF025908031CF0
:10038000590FE0026314E10A92296C0824009100DD
:100390001F30160503191419C82908000030BB00C6
:1003A0002030BA003708B0000630B10040214F08B5
:1003B0003A07B8003B08B9000318B90A0030BD007D
:1003C0006830BC003708BE0003103E0DBC070318A0
:1003D000BD0A3D0885003C088400003080003908D3
:1003E0008500380884000008BF003F08143A03194C
:1003F000FD29013A0319FD290C2A3908850038081E
:100400008400033084070008C0003D0885003C0AD2
:10041000840040088000122A3D0885003C0A8400C0
:10042000003080003C08C7003D08C8003808C900FB
:100430003908CA003708CB00CC01CD012B200800B9
:100440003508DA003608CA00CB01F430CC000130A0
:10045000CD0070215508DB005608DC00052108009E
:100460004B08D800D901DA01DF014C08083ED20060
:100470004D08D7000318D70A5708D300D401D50177
:10048000D71F442AD403D503D308031D4D2AD4080B
:10049000031D4D2AD5080319522ACE01CF01D001E0
:1004A000D101682A5F08DB005208FF390319602A6E
:1004B000D835D90DDA0DDB0DDF1BDB17FF3E552AD2
:1004C0005808CE005908CF005A08D0005B08D10068
:1004D0004E08D5004F08D6005008D7005108D80064
:1004E000F430DD000130DE00DF01E0014D21640861
:1004F000DA006508DB006608E1006708E2005A08D8
:10050000CE005B08CF006108D0006208D100DA019C
:100510004E08D2004F08D3005008D4005108D5002F
:10052000D11F9E2AD209D309D409D509D20A0319A9
:10053000D30A0319D40A0319D50ADA0A0C30D600F3
:10054000D701D801D90189216308CE006408CF0002
:100550006508D0006608D1005A1CB92ACE09CF0917
:10056000D009D109CE0A0319CF0A0319D00A0319F9
:10057000D10A4A08DA004F08DB005008DC000521E8
:10058000080048087F3C0318C72A7F30C800470886
:10059000DA004808CA00CB014908CC00CD0170211F
:1005A0005508DB005608DC00DB0DDC0DDB0DDC0D37
:1005B000FC30DB05052108002400A20104302202E2
:1005C000031808000130850020308400220EF03925
:1005D0008407053084070030800020308400220E1C
:1005E000F039840706308407FF3080002030840013
:1005F000220EF039840706308407840AFF30800019
:1006000020308400220EF039840708308407FF3040
:10061000800020308400220EF039840709308407DE
:10062000FF30800020308400220EF03984070A3029
:100630008407033084070030A300A400A500003025
:10064000800084032508800084032408800084033C
:100650002308800020308400220EF03984070E30F9
:1006600084070030800020308400220EF039840797
:100670000F30840700308000A20ADE2A04302702EF
:10068000031C442BB30108000130B200A030AF00BE
:100690002708B0000630B10040214F082F07AB00FB
:1006A0003208AC000318AC0A2808023A03196B2B75
:1006B000013A03199B2B073A0319A42B013A03199A
:1006C000AF2B023A0319BA2B0F3A0319C52B013A83
:1006D0000319D42B5C2C2908013A0319762B033A11
:1006E00003197F2B023A0319882B882B2C088500CD
:1006F0002B088400803080000130B30008002C08F3
:1007000085002B088400813080000130B300080090
:1007100001302A02031C5C2C2A08103C031C5C2CB0
:100720002A03B4002C0885002B08840034088000BC
:100730000130B30008002C0885002B0A84002A0829
:1007400080000130B30008002C0885002B088400CD
:10075000023084072A0880000130B30008002C080A
:1007600085002B088400033084072A0880000130AC
:10077000B30008002C0885002B088400043084078F
:100780002A0880000130B300080009302A0203184B
:100790005C2C2C0885002B088400053084072A086F
:1007A00080000130B3000800A7080319DB2B2708DD
:1007B000023A031D5C2C2A08003C03185C2C7F3095
:1007C0002A0203185C2C01308500A0308400270821
:1007D000B0000630B10040214F08B400340884074F
:1007E0000008B500840A0008B600840A0008B700B3
:1007F000840A0008B800840A0008B900840A0008C6
:10080000BA0001308500A0308400270AB00006300D
:10081000B10040214F08840735088000840A36085B
:100820008000840A37088000840A38088000840A1F
:1008300039088000840A3A08800001308500A03021
:1008400084002708B0000630B10040214F0884071B
:10085000840A003080002A03B40001308500A030F3
:1008600084002708B0000630B10040214F088407FB
:10087000023084073408800001308500A0308400F5
:10088000270AB0000630B10040214F088407840ACF
:100890002A08800001308500A0308400270AB000BB
:1008A0000630B10040214F088407023084077F30B2
:1008B00080000130B3000800B3010800200091114E
:1008C000240016152000911D622C080020009111B3
:1008D000240016142000911D6A2C23006B08EC00E4
:1008E000EC35C52108002708023A03197B2C0E3A83
:1008F00003198E2C992C2808003A031D7F2C0130F7
:100900002902031C992C2908103C031C992C29034B
:100910002300E30001302400AA0008002808013A5F
:10092000031D992C29082300E40001302400AA00AB
:100930000800AA0108002400A2010C3022020318BA
:1009400008002208B700CE212400A20A9D2C0C30FA
:100950002702031CAD2CB60108000030B200203085
:10096000AF002708B0000630B10040214F082F0724
:10097000AB003208AC000318AC0A0030B400683099
:10098000B3002708B5000310350DB3070318B40AE8
:100990002808013A0319E22C033A0319B92D013A48
:1009A0000319FE2D073A0319162E013A0319282EB2
:1009B000083A03193A2E013A03194D2E073A031942
:1009C000732E8E2E2708B700CE2124002908003A66
:1009D00003190F2D0B3A0319182D073A0319182D77
:1009E000013A0319182D033A0319182D0F3A031968
:1009F000602D033A03197F2D163A0319982D013AF9
:100A00000319982D033A0319982D013A0319982DCB
:100A10000F3A0319982D013A0319982D8E2E2C08A0
:100A200085002B088400003080000130B6000800EB
:100A30000B302902B7002C0885002B0884000230F7
:100A40008407370880002A08013A0319372D033A32
:100A50000319372D013A0319372D073A0319372D9A
:100A6000043A0319482D053A0319542D8E2E2A03F2
:100A7000B7003708033EB8002C0885002B08840017
:100A800038088000840A803080000130B6000800F9
:100A90002C0885002B08840002308000840A8030F6
:100AA00080000130B60008002C0885002B08840067
:100AB00001308000840A803080000130B6000800D8
:100AC0002C0885002B088400013080000230840748
:100AD000813080002B088400033084072A088000BE
:100AE0002B08840004308407003080002B08840029
:100AF00005308407003080000130B60008002C0863
:100B000085002B0884000230800002308407813089
:100B100080002B088400033084072A0880002B08FB
:100B2000840004308407403080000130B6000800A3
:100B30002C0885002B0884002908800003308407D6
:100B400000308000AA080319AE2D2C0885002B0860
:100B50008400023084072A088000B62D2C08850006
:100B60002B08840002308407063080000130B60074
:100B700008002C0885002B08840000030319C82DE9
:100B80002C0885002B0884000008023A031D8E2ED5
:100B90002908003A0319D32D013A0319E82D033A25
:100BA0000319F32D8E2E01302A02031C8E2E2A08E3
:100BB000103C031C8E2E2A03B7002C0885002B083E
:100BC000840002308407370880000130B600080036
:100BD0002C0885002B0884000230840780308000B8
:100BE0000130B60008002C0885002B088400023074
:100BF0008407813080000130B60008002C08850091
:100C00002B0884000003031D8E2E2C0885002B0862
:100C10008400033084072A0880002B0884000430F5
:100C20008407003080000130B60008002C088500E1
:100C30002B0884000003031D8E2E2C0885002B0832
:100C40008400043084072A0880000130B6000800C0
:100C50002C0885002B0884000003031D8E2E2C0811
:100C600085002B088400053084072A0880000130A5
:100C7000B60008002C0885002B0884000008023A02
:100C8000031D8E2E2C0885002B0884000430840759
:100C90002A0880000130B60008002908013A03192B
:100CA000582E013A0319612E023A03196A2E8E2E2C
:100CB0002C0885002B0A84002A0880000130B60029
:100CC00008002C0885002B0A8400003080000130C9
:100CD000B60008002C0885002B0A840080308000B4
:100CE0000130B60008002C0885002B08840000089D
:100CF000143A0319832E2C0885002B088400000861
:100D0000153A031D8E2E2C0885002B088400033015
:100D100084072A0880000130B6000800B6010800E8
:100D2000BE010C303E02031808000030C0006830DD
:100D3000BF003E08C1000310410DBF070318C00AE1
:100D40000030C5002030C4003E08B0000630B100BD
:100D500040214F084407C2004508C3000318C30AD6
:100D60004308850042088400023084073D080006DD
:100D7000031DB62F43088500420884000008C60002
:100D80004608013A0319D42E033A0319FA2E013A00
:100D90000319202F073A0319452F013A03196B2F26
:100DA000033A0319912FB62F3C080A3A031DE72E88
:100DB0003F08C7004008C8004208C9004308CA00ED
:100DC0003E08CB000130CC00CD002B20B62F3C08D4
:100DD000093A031DB62F3F08C7004008C800420863
:100DE000C9004308CA003E08CB00CC010130CD0049
:100DF0002B20B62F3C08093A031D0D2F3F08C700D2
:100E00004008C8004208C9004308CA003E08CB0099
:100E10000130CC00CD002B20B62F3C080A3A031D30
:100E2000B62F3F08C7004008C8004208C900430861
:100E3000CA003E08CB00CC010130CD002B20B62FDC
:100E40003C03031D322F3F08C7004008C80042087A
:100E5000C9004308CA003E08CB000130CC00CD00D9
:100E60002B20B62F3C08053A031DB62F3F08C700BC
:100E70004008C8004208C9004308CA003E08CB0029
:100E8000CC010130CD002B20B62F3C08023A031DC7
:100E9000582F3F08C7004008C8004208C90043084F
:100EA000CA003E08CB000130CC00CD002B20B62F6D
:100EB0003C08063A031DB62F3F08C7004008C8008B
:100EC0004208C9004308CA003E08CB00CC010130EB
:100ED000CD002B20B62F3C08033A031D7E2F3F0880
:100EE000C7004008C8004208C9004308CA003E08BD
:100EF000CB000130CC00CD002B20B62F3C08073AA8
:100F0000031DB62F3F08C7004008C8004208C900AB
:100F10004308CA003E08CB00CC010130CD002B2095
:100F2000B62F3C08043A031DA42F3F08C700400811
:100F3000C8004208C9004308CA003E08CB0001307F
:100F4000CC00CD002B20B62F3C08083A031DB62F4D
:100F50003F08C7004008C8004208C9004308CA004B
:100F60003E08CB00CC010130CD002B202400BE0A6E
:100F7000912E08002708043C0318C02FB301080075
:100F80000130B200B830AF002708B0000530B10022
:100F900040214F082F07AB003208AC000318AC0A01
:100FA0002808013A0319E22F0F3A883103199A28C9
:100FB000013A0319AF28713A0319C028013A0319FD
:100FC000C028F0282908773A8831031915280F3AE4
:100FD00003191528013A03191528033A031915288E
:100FE000013A03191528073A03191528013A03197C
:100FF0001528033A03191528013A031915287F3AD1
:1010000003192B28143A03193A28163A03194628CB
:10101000093A03195D28073A03195D28013A0319B3
:101020005D28033A03195D28F0282C0885002B0859
:1010300084000730800077302A02B400840A340824
:1010400080002708B5002A08B60080312022013030
:101050002400B30008002708B500B6018031202223
:1010600024002C0885002B0884000030800001300B
:10107000B30008002C0885002B088400063080008F
:10108000840A053080000130B30008002C08850078
:101090002B088400053080000230840781308000F6
:1010A0002B088400033084072A0880002B0A840060
:1010B000053080000130B30008000B302902B40075
:1010C0002C0885002B088400023084073408800037
:1010D0002A08013A03197928033A03197928013AB1
:1010E00003197928073A03197928103A03198E2829
:1010F000F0282C0885002B088400013080002A038A
:10110000B40003308407340880002B0884000430C6
:101110008407003080000130B30008002C088500EF
:101120002B08840002308000840A053080000130E2
:10113000B30008002C0885002B0884000003031D61
:10114000F02840302A02B4002C0885002B088400C7
:1011500004308407340880000130B30008000030F8
:101160002A02031CF0282A08083C031CF0282C083B
:1011700085002B0A84002A0880000130B300080093
:101180002C0885002B0884000008073A031DF0286E
:10119000A9080319CE282A08B400D1282A09B400C6
:1011A000B40A28087E3A031DDE2800308500EC30A2
:1011B00084002708840734088000E6280130850071
:1011C0006830840027088407340880002708B500A9
:1011D0002C0885002B0A84000008B60080312022EC
:1011E0002400B3010800C1010430410203180800C3
:1011F0000130C500B830C4004108B0000530B1006E
:10120000803140214F084407C2004508C30003183D
:10121000C30A430885004208840080088831031906
:10122000A8294308850042088400023084073D084D
:101230000006031DA8290130C0002030BF003D0E6C
:10124000F039BF070318C00A43088500420884002C
:101250000008C6004608013A03193229033A031967
:101260008829A8293C08013A03194029033A03199F
:101270004029013A03194029073A03194029A829AE
:101280003C03BE0043088500420884000330840705
:101290003E080006031DA829430885004208840073
:1012A000043084070008C900400885003F08840016
:1012B000063084073E088407C80149080007C700B4
:1012C0000318C80AC81F69290C30C7070318C80AC1
:1012D000622947087F3C48080318031DC81B75296D
:1012E0000C30C702031CC80369294108CA0047081B
:1012F000CB00400885003F0884000A3084070008BE
:10130000CC00840A0008CD00803130228831A82921
:101310003C08013A03199629033A03199629013A20
:1013200003199629073A03199629A8294108C700E5
:10133000400885003F0884000E3084070008C8007C
:1013400043088500420A84000008C9008031C12298
:101350002400C10A8831F428AC012A088500290834
:1013600084000530840700082C020318E7292A08A6
:10137000850029082C0784002B080006031DE52999
:101380002A088500290884000530840780032A087C
:101390008500290884000530840700082C02031802
:1013A000E2292A088500290884002C0AAD002D08AE
:1013B00084070008AE0029082C0784002E0880004E
:1013C000AC0AC7290130AD000800AC0AAD29AD0157
:1013D0000800B401B901FF30B500B600B700B8008D
:1013E0002D0885002C088400053084078008031927
:1013F000E62B2D0885002C088400053084070003A7
:10140000031D092A2D0885002C0884000008B5005A
:10141000E62B2F0885002E0884000530840700087D
:10142000BA003A08033A03192B2A073A03192B2A60
:10143000053A0319972A033A0319972A043A03191C
:10144000032B013A0319032B0F3A0319032B083A14
:1014500003199A2B9A2B2D0885002C08840000086C
:10146000B5000130B3002D0885002C08840005303C
:101470008407000833020318BD2B2D0885002C08B3
:1014800033078400000835020318542A3708B800CF
:101490003608B7003508B6002D0885002C0833073C
:1014A00084000008B500952A360A0319602A2D0821
:1014B00085002C08330784000008360203186C2AC4
:1014C0003708B8003608B7002D0885002C08330708
:1014D00084000008B600952A370A0319782A2D08D7
:1014E00085002C0833078400000837020318822A7D
:1014F0003708B8002D0885002C0833078400000841
:10150000B700952A380A03198E2A2D0885002C0861
:1015100033078400000838020318952A2D08850037
:101520002C08330784000008B800B30A332A2D08BA
:1015300085002C0884000008B5000130B3002D0898
:1015400085002C0884000530840700083302031846
:10155000BD2B2D0885002C083307840035080002B8
:101560000318C02A3708B8003608B7003508B60097
:101570002D0885002C08330784000008B500012BD6
:10158000360A0319CC2A2D0885002C08330784005D
:10159000360800020318D82A3708B8003608B70002
:1015A0002D0885002C08330784000008B600012BA5
:1015B000370A0319E42A2D0885002C083307840014
:1015C000370800020318EE2A3708B8002D088500F6
:1015D0002C08330784000008B700012B380A0319D0
:1015E000FA2A2D0885002C083307840038080002E9
:1015F0000318012B2D0885002C08330784000008F0
:10160000B800B30A9F2A2F0885002E0884000530F1
:10161000840706300002BB0002303B07B3002D08F0
:1016200085002C0884000F3084078008031D1F2BC1
:101630002D0885002C0884000008BB00272B2D08EE
:1016400085002C088400063084070008BB003B0896
:10165000B5002D0885002C0884000F308407000396
:10166000031D392B2D0885002C0A84000008BB00BF
:10167000422B2D0885002C08840006308407840A3C
:101680000008BB003B08B6002D0885002C0884002C
:101690000F3084070008023A031D5B2B3308023C1D
:1016A00003185B2B2D0885002C088400023084076A
:1016B0000008BB00632B2D0885002C08840008302F
:1016C00084070008BB003B08B7002D0885002C08E4
:1016D00084000F3084070008033A031D7C2B330875
:1016E000033C03187C2B2D0885002C088400033054
:1016F00084070008BB00842B2D0885002C0884007B
:10170000093084070008BB003B08B8002D0885009D
:101710002C0884000F308407800A00083302031865
:10172000BD2B2D0885002C0884000F308407003065
:101730008000BD2BB301043033020318BD2B2D08EC
:1017400085002C0884000530840700083302031844
:10175000BD2B2D0885002C0884003308BB003B08F6
:1017600084070008BC00023085003530840033084F
:1017700084073C088000B30A9B2B2F0885002E08A5
:101780008400053084070008023A0319D12B2F0882
:1017900085002E088400053084070008043A031DE4
:1017A000E62B350A0319E62B360A0319E62B370A0E
:1017B000031DDF2B3608B800FF30B600E62B380AD1
:1017C000031DE62B3708B800FF30B700B301043023
:1017D00033020318372C2D0885002C0884000630AE
:1017E00084073308BA003A0884070008BB000230B7
:1017F000850035308400330884073B080006031950
:10180000342C02308500353084003308BC003C089D
:1018100084070008BD002D0885002C0884000630D0
:101820008407330884073D08800002308500353086
:10183000840033088407000A03192B2C330ABC00E8
:101840003208BD00F320330ABC003208BD008031ED
:1018500090268831322C3308053EBC003208BD008A
:10186000803190260130B900B30A8831E72B39085E
:10187000BA000800A6012208013A03197C2C0A3A92
:101880000319882C073A0319882C013A0319882C6C
:10189000033A0319882C113A0319972C3F3A03197C
:1018A000972C013A0319972C033A0319972C013A04
:1018B0000319972C073A0319972C013A0319972C0F
:1018C000033A0319972C013A0319972C0F3A03197D
:1018D000972C013A0319972C033A0319972C3F3A96
:1018E0000319A62C033A0319A62C013A0319A62CB6
:1018F0000F3A0319A62CB32C2308A7002408A8002C
:101900002508A900803173242A08A6008831B32C49
:101910000B302202A7002308A8002408A9002508EC
:10192000AA0080313E233308A6008831B32C1F3033
:101930002202A7002308A8002408A9002508AA005D
:101940008031A7243608A6008831B32C1530220236
:10195000A7002308A8002408A9002508AA008031B0
:10196000BA273308A600A6080319080022000E159E
:10197000FF302300D10008006B082400A0002300E2
:101980006C082400A10023006E08003C0318D52C2D
:1019900024002108850020088400A00A0319A10A58
:1019A00023006D088000EE03C32C6B082400A20006
:1019B00023006C082400A30008002608DA0027088A
:1019C000D5002808D600D701D801A81FE92CD703D5
:1019D000D8032908DD00DE01DF01E00180314D215F
:1019E0006408DB006508DC006608AB006708AA0035
:1019F000AB0CDC0CDB0CAB0CDC0CDB0CAB0CDC0C3C
:101A0000DB0CAB0CDC0CDB0CAB0CDC0CDB0C0521BD
:101A1000080060302300EB00803166248F30230003
:101A2000EC00C5215E2460302300EB006624CF303B
:101A30002300EC00C5215E2408008031DC229B24B9
:101A4000B92708002D0885002C088400053084077C
:101A50000008003C0318362D2D0885002C08840052
:101A600000082E06031D362DB2010800AF012D0817
:101A700085002C0884000530840700082F02031815
:101A80006A2D2D0885002C082F0784002E080006DB
:101A9000031D682D2F08003C03185F2D2D088500BD
:101AA0002C0884002F03B300330884070008B40017
:101AB0002C082F07840034088000AF034A2D2D081E
:101AC00085002C0884002E0880000130B200080038
:101AD000AF0A372D2D0885002C08840005308407B7
:101AE0000008053A031D8B2D0430AF002F08003C81
:101AF0000318AF2D2D0885002C0884002F03B30098
:101B0000330884070008B4002C082F078400340829
:101B10008000AF03762D2D0885002C088400053049
:101B200084070008AF002F08003C0318A82D2D08DB
:101B300085002C0884002F03B300330884070008B5
:101B4000B4002C082F07840034088000AF03932DC5
:101B50002D0885002C08840005308407800A2D0894
:101B600085002C0884002E0880000130B200080097
:101B7000B401B701B8012D08B5002E08B600B31F97
:101B8000C72DB417B209B309B20A0319B30A341A3C
:101B9000D92D321CD12D3508B70736080318360F5A
:101BA000B8070310B30CB20C0310B50DB60DB40A90
:101BB000C72DB41F0800B709B809B70A0319B80A36
:101BC000080020009110911221009110911623001D
:101BD0001F129F159F101F101E139E121E129E1182
:101BE0001E111E109D171D139D161D169C011F30E2
:101BF0009B000800210095129511151195141514DC
:101C00008B160B1108002400A001043020020318D9
:101C100008000130A400A030A3002008B000063066
:101C2000B100803140214F082307A1002408A20001
:101C30000318A20A0130A6002030A500200EF039BA
:101C4000A5070318A60A2208850021088400B4010C
:101C5000813000020319003C0319B40AB3012300C8
:101C60006D0863028831031D372E2400B30A240057
:101C7000AF01B308031DB408031DAF0A2208850095
:101C800021088400AD01803000020319003C0319D3
:101C9000AD0A2208850021088400AE010008230057
:101CA0006D02031D552E2400AE0A2400B201AD08BA
:101CB0000319AE08031DB20AA701AF080319B20841
:101CC000031DA70AA7080319F92E22088500210879
:101CD00084000430840723006E082400B20023002F
:101CE0006F082400B300B601B7012300EF1F7B2E5D
:101CF0002400B603B70300302400B2020030B8005D
:101D0000031C380FB3020008AD00AE01B825370838
:101D1000D2003808AF00B4012F08D300D401AF1BA4
:101D2000D403D501AF1BD503AF1FA22ED209D3090F
:101D3000D409D509D20A0319D30A0319D40A0319FD
:101D4000D50AB40A0030D600D700D8004630D900F2
:101D5000803189216308A9006408AC008831341CF3
:101D6000B62EA909AC09A90A0319AC0AA8012C08C6
:101D7000AA00AB01AC1BAB03260885002508840034
:101D80000A3084070008AD00840A0008AE00840A07
:101D90000008AF00840A28082D02031DDB2E290845
:101DA0002E02031DDB2E2A082F02031DDB2E2B081B
:101DB00000020319F92E26088500250884000A3040
:101DC0008407033084072808AD002908AE002A08DC
:101DD000AF002B08800084032F08800084032E08A6
:101DE000800084032D0880000B30BC002008BD005B
:101DF000F320A00A052E2400A001043020020318BD
:101E000008000130A2002030A100200EF039A10707
:101E10000318A20A0130A600A030A5002008B000D7
:101E20000630B100803140214F082507A300260865
:101E3000A4000318A40A2408850023088400AD0127
:101E4000813000020319003C0319AD0AAC012300E4
:101E50006D0863028831031D2F2F2400AC0A240073
:101E6000AA01AC08031DAD08031DAA0A24088500B9
:101E700023088400A801803000020319003C0319E4
:101E8000A80A2408850023088400A901000823006B
:101E90006D02031D4D2F2400A90A2400AB01A808E0
:101EA0000319A908031DAB0AA701AA080319AB0867
:101EB000031DA70AA70890310319AC282408850040
:101EC000230884000230840780088831031D752FA1
:101ED00024088500230A8400A801000823006E025C
:101EE000031D992F2400A80A992F24088500230890
:101EF000840002308407AA0123006E080002031C3C
:101F0000832F2400AA0A240024088500230A8400C1
:101F1000AB01000823006E02031C902F2400AB0AC3
:101F20002400A901AA08031DAB08031DA90A29085A
:101F3000A8002400A80890310319AC282300EF085A
:101F40000319562824002408850023088400033040
:101F50008407800888310319B92F240885002308D5
:101F6000840003308407000823006F029031031CB3
:101F7000AC28240022088500210884000E30840744
:101F800023006F08800024002408850023088400B3
:101F9000053084070008A8002808053A883103198D
:101FA000DC2F033A0319DC2F013A0319DC2F0F3A17
:101FB0000319DC2F90313428220885002108840081
:101FC00006308407AC01831BAC0A0408AD0021086D
:101FD00084000F3084070008AD072D0884008313A8
:101FE0002C18831723006E08800024002208850027
:101FF000210884000F308407000ABC002008BD00BF
:10200000F32022088500210884000F308407000A8D
:10201000BC002008BD0080319026220885002108E0
:1020200084000F308407800A0008A9002408850076
:10203000230884000530840706300002AA00AB01A3
:10204000AA0A0319AB0A29082A022B08903103189F
:102050004E28031D4E2822088500210884000F30D9
:102060008407003080004E282108AC002208AD0013
:1020700023006E082400AE0088312225B20890317A
:1020800003194E282108AC002208AD002308AE0039
:102090002408AF002008B2008831E9210A30BC00D2
:1020A0002008BD00803190269031AC2824002408FF
:1020B000850023088400053084070008A80028084C
:1020C000053A03196D28033A0319AC28013A03199C
:1020D000AC280F3A0319AC28822822088500210871
:1020E000840006308407FF3080000530BC002008E3
:1020F000BD00803190260930BC002008BD0090262C
:102100009031AC282108A9002208AA0023006E08FB
:102110002400AB008831AC21AD0890310319AC2804
:102120002108AC002208AD002308AE002408AF004F
:102130002008B2008831E9212208850021088400A6
:102140000530840780089031031DAC280930BC009D
:102150002008BD00803190262400A00A8831FD2E81
:102160002300EB0104306B0203181D2901308500A8
:10217000A03084006B082400B0000630B10080312C
:1021800040214F088407FF30800001308500A030D7
:10219000840023006B082400B0000630B100402109
:1021A0004F088407840A0030800001308500A03089
:1021B000840023006B082400B0000630B1004021E9
:1021C0004F088407023084077F308000013085008B
:1021D000A030840023006B082400B0000630B1005A
:1021E00040214F088407033084070030800001300D
:1021F0008500A030840023006B082400B000063066
:10220000B10040214F088407043084070C3080005F
:1022100001308500A030840023006B082400B0004A
:102220000630B10040214F08840705308407003094
:1022300080002300EB0A9031B2288031DC220800B4
:1022400022006C082300ED0022006D082300EE0040
:1022500080302400A000A101A2018030A300220050
:102260008C122400A008031D3829A108031988290D
:1022700022000C122400200823006D05EF0024002A
:10228000210823006E052400A400A5012300EF0807
:10229000031D4C292400A50A2400A408031DA50140
:1022A000A601A5080319A60A261C582922000C1409
:1022B000240026185D2922000C1024002208230087
:1022C0006D05EF002400230823006E052400A40000
:1022D000A5012300EF08031D6F292400A50A24008F
:1022E000A408031DA501A601A5080319A60A261C1A
:1022F0007B2922008C1424002618802922008C10AF
:1023000022000C162400A136A00CA336A20C312901
:1023100022008C16080023009D1C90291D121D16FA
:1023200058085706031D97292400A1010800003012
:102330008500A0308400580884070008ED00D80A02
:102340003F30D805F0306D05EE006E08F03A031D01
:10235000042A6D08F83A0319BD29023A0319BD2968
:10236000013A0319BD29073A0319BD290C3A03198B
:10237000C129073A0319C4298B296D082400A1003B
:1023800008000230DD008B295D08013A0319002A9C
:10239000013A0319002A053A031DE62922000C150B
:1023A0000E15FA302400A30080310720FA30A30074
:1023B0000720FA30A3000720FA30A30007202200EC
:1023C0000C110E1188311D259031002A22000C11AC
:1023D0002400A2010A3022020318FE2922000E1551
:1023E00064302400A3008031072022000E116430E5
:1023F0002400A3000720A20A9031EA2988311D2574
:102400002300DD0190318B2980306D05EF00240021
:10241000A0012300EF08031D0F2A2400A00A2400B6
:10242000A008031D3B2A2300DD01DB016D08D90054
:10243000F0306D052400A2002208A03A0319332AC7
:10244000603A0319332A103A0319332A503A031910
:10245000372A103A0319372A203A0319372A503AF3
:102460000319372A372A01302300DA008B2902307A
:102470002300DA008B2923005D08023A0319592A48
:10248000013A0319672A073A0319762A013A031910
:10249000852A033A0319892A013A03198D2A0F3A2A
:1024A0000319912A093A03198B29013A0319A72A1A
:1024B0008B29ED08031D602A03302400A200632A43
:1024C00001302400A20022082300DD008B296D08C2
:1024D0007F3A031D6F2A04302400A200722A0130C3
:1024E0002400A20022082300DD008B296D08123A87
:1024F000031D7E2A05302400A200812A0130240019
:10250000A20022082300DD008B296D08DF00DD0A10
:102510008B296D08E000DD0A8B296D08E100DD0ADA
:102520008B295F082400A200230060082400A30078
:10253000230061082400A40023006D082400A500E6
:1025400088313A2405302300DD0090318B29D908E9
:1025500003198B2901308500CC3084005B08DB0A2D
:1025600084076D0880005A085B02031C8B29DB017D
:10257000F03059052400A2002208803A0319CA2A23
:10258000103A0319CA2A703A0319CA2A503A031991
:10259000CA2A8B29230059082400A1000800200022
:1025A00091112100911524001614080021000E1429
:1025B0008E142400951615169515151195101510E5
:1025C000941713309200080008002300ED010C302E
:1025D0006D02031808000030EF006830EE006D084F
:1025E0002400A0000310200D2300EE070318EF0ABB
:1025F0006F0885006E08840080080319262B6F0879
:1026000085006E088400800B262B6E082400C7000E
:1026100023006F082400C8000030A4002030A3006D
:1026200023006D082400B0000630B1008031402145
:102630004F082307C9002408CA000318CA0A230048
:102640006D082400CB00CC01CD012B202300ED0A26
:102650009031E72A6D08F83A0319382B023A03192A
:10266000C52B013A0319C52B073A0319562C08004C
:10267000EE010C306E020318080000302400A400A4
:1026800020302300EF006E082400B0000630B100B7
:10269000803140214F0823006F072400A200240846
:1026A000A3000318A30A2308850022088400000859
:1026B000143A90310319642B230885002208840002
:1026C0000008153A031DC22B230885002208840048
:1026D0000008153A031D712B2300E208031D712B1E
:1026E000C22B00302400A1006830A00023006E0837
:1026F0002400A4000310240DA0070318A10A210838
:102700008500200A84008008031DA52B2008C7002F
:102710002108C8000030A5002030A40023006E0866
:102720002400B0000630B100803140214F0824075A
:10273000C9002508CA000318CA0A23006E0824002D
:10274000CB000130CC00CD012B20240021088500D6
:10275000200A8400800A00082300EF0024002308D8
:1027600085002208840002308407000823006F02DD
:102770009031031CC22B240021088500200A84000C
:10278000003080002300EE0A392B0130E200EE0118
:102790000C306E020318080000302400A6006830D8
:1027A000A50023006E082400A4000310240DA50733
:1027B0000318A60A2508A0002608A1002308850002
:1027C0002208840000082300EF006F08143A031960
:1027D000F92B013A0319F92B023A03190D2C013A8E
:1027E0000319112C0E3A0319112C013A0319332C39
:1027F000522C6D08FA3A031D522C24002308850040
:1028000022088400033084070008A4002108850002
:10281000200A840024088000522C6D08FA3A031D17
:10282000522C24002008C7002108C8000030A50051
:102830002030A40023006E082400B0000630B10050
:10284000803140214F082407C9002508CA00031819
:10285000CA0A23006E082400CB000130CC00CD0151
:102860002B209031522C24002008C7002108C800DA
:102870000030A5002030A40023006E082400B00022
:102880000630B100803140214F082407C9002508D7
:10289000CA000318CA0A23006E082400CB00CC012A
:1028A000CD012B202300EE0A9031C82BE201EE016E
:1028B0000C306E020318080000302400A6006830B7
:1028C000A50023006E082400A4000310240DA50712
:1028D0000318A60A2508A0002608A10023088500E1
:1028E0002208840000082300EF006F08163A03193D
:1028F0007D2C0F3A03199E2CBE2C24002008C70003
:102900002108C8000030A5002030A40023006E0874
:102910002400B0000630B100803140214F08240768
:10292000C9002508CA000318CA0A23006E0824003B
:10293000CB00CC01CD012B209031BE2C24002008EF
:10294000C7002108C8000030A5002030A4002300E3
:102950006E082400B0000630B100803140214F08DD
:102960002407C9002508CA000318CA0A23006E08F4
:102970002400CB000130CC00CD012B202300EE0A37
:102980009031582C2400A0010C30200203180800BC
:102990000030A2006830A1002008A3000310230D1E
:1029A000A1070318A20A0030A7002030A6002008C3
:1029B000B0000630B100803140214F082607A40046
:1029C0002708A5000318A50A250885002408840007
:1029D0000008023A9031031DB62D25088500240811
:1029E000840003308407000823006E06031DB62D03
:1029F0002400250885002408840002308407AE01E5
:102A0000813000020319003C0319AE0AAD01230016
:102A10006D086302031D0E2D2400AD0A2400AB01D6
:102A2000AD08031DAE08031DAB0A25088500240868
:102A3000840002308407A901803000020319003CA1
:102A40000319A90A25088500240884000230840798
:102A5000AA01000823006D02031D302D2400AA0ADC
:102A60002400AC01A9080319AA08031DAC0AA80197
:102A7000AB080319AC08031DA80AA8080319B62D52
:102A800025088500240884000430840700082300FA
:102A90006F02031C7C2D2400250885002408840077
:102AA000043084070008A90022088500210A840058
:102AB00029080002031C632D22088500210A8400D6
:102AC000000A031D7C2D2108C7002208C800240825
:102AD000C9002508CA002008CB000130CC00CD0178
:102AE00080312B20240022088500210A8400230045
:102AF0006F0880009031B62D240025088500240839
:102B0000840004308407000823006F020318B62DE8
:102B1000240022088500210A84000008A900250855
:102B20008500240884000430840700082902031863
:102B3000A02D22088500210A8400000A031DB62D5D
:102B40002108C7002208C8002408C9002508CA00B7
:102B50002008CB00CC01CD0180312B20240022089D
:102B60008500210A840023006F0880002400A00A49
:102B70009031C42C2400A0010C302002031808005E
:102B80000030A2006830A1002008A3000310230D2C
:102B9000A1070318A20A0030A7002030A6002008D1
:102BA000B0000630B100803140214F082607A40054
:102BB0002708A5000318A50A250885002408840015
:102BC00000039031031D972E2508850024088400FA
:102BD00002308407AE01813000020319003C031962
:102BE000AE0AAD0123006D086302031DF92D240018
:102BF000AD0A2400AB01AD08031DAE08031DAB0AEE
:102C0000250885002408840002308407A90180304B
:102C100000020319003C0319A90A250885002408AD
:102C2000840002308407AA01000823006D02031DFE
:102C30001B2E2400AA0A2400AC01A9080319AA0823
:102C4000031DAC0AA801AB080319AC08031DA80AB0
:102C5000A8080319972E250885002408840004304D
:102C600084078008031D432E25088500240884005E
:102C700003308407A901000823006E02031D692E9A
:102C80002400A90A692E2508850024088400043040
:102C90008407AB0123006E080002031C512E2400A0
:102CA000AB0A24002508850024088400033084072B
:102CB000AC01000823006E02031C602E2400AC0A45
:102CC0002400AA01AB08031DAC08031DAA0A2A08A8
:102CD000A9002400A9080319972E2300EF0803195F
:102CE0007D2E2400250885002408840005308407F3
:102CF000000823006F02031C972E24002108C70040
:102D00002208C8002408C9002508CA002008CB00F2
:102D1000A9012300EF08031D8F2E2400A90A240017
:102D2000CC01A9080319CC0ACD0180312B20240045
:102D3000A00A9031BC2D2300EB010C306B0203186C
:102D4000080000302400A1002030A00023006B0800
:102D50002400B0000630B100803140214F08200728
:102D60002300EC00240021082300ED000318ED0AE5
:102D700000302400A3006830A20023006B08240068
:102D8000A4000310240DA2070318A30A23006D0852
:102D900085006C08840000308000840A0A308000BE
:102DA0006B082400B700CE212300EB0A90319D2E42
:102DB000EF0104306F020318080001302400A30063
:102DC000B830A20023006F082400B0000530B10025
:102DD000803140214F082207A0002308A1000318DA
:102DE000A10A21088500200884000008043A9031D7
:102DF000031D512F2108850020088400023084071C
:102E0000AA01813000020319003C0319AA0AA90192
:102E100023006D086302031D0F2F2400A90A24005C
:102E2000A701A908031DAA08031DA70A21088500F8
:102E30002008840002308407A501803000020319B5
:102E4000003C0319A50A21088500200884000230EF
:102E50008407A601000823006D02031D312F240002
:102E6000A60A2400A801A5080319A608031DA80A9C
:102E7000A401A7080319A808031DA40AA40803199C
:102E8000512F23006F082400C70023006E08240080
:102E9000C80021088500200A84000008C90080318C
:102EA000C1222300EF0A9031D92E2400A001043062
:102EB0002002031808000130A400B830A300200845
:102EC000B0000530B100803140214F082307A10038
:102ED0002408A2000318A20A220885002108840001
:102EE0000008053A9031031DD62F220885002108DD
:102EF000840003308407000823006E06031DD62FCC
:102F00002400220885002108840002308407AB01D8
:102F1000813000020319003C0319AB0AAA01230007
:102F20006D086302031D962F2400AA0A2400A8013D
:102F3000AA08031DAB08031DA80A22088500210862
:102F4000840002308407A601803000020319003C8F
:102F50000319A60A2208850021088400023084078C
:102F6000A701000823006D02031DB82F2400A70A43
:102F70002400A901A6080319A708031DA90AA50191
:102F8000A8080319A908031DA50AA5080319D62F27
:102F90002008C70023006F082400C800220885000D
:102FA000210A84000008C9008031C1222400A00A3F
:102FB0009031572F2300ED0104306D0203180800F3
:102FC00001302400A100B830A00023006D082400C7
:102FD000B0000530B100803140214F0820072300A8
:102FE000EE00240021082300EF000318EF0A6F0809
:102FF00085006E0884000008063A9831031D2F28CA
:103000006D082400DA00A2012C08D2002D08D3009C
:103010002E08D4002F08D500AF1F1A28D209D309D3
:10302000D409D509D20A0319D30A0319D40A0319FA
:10303000D50AA20A1E30D600D701D801D9018031A5
:1030400089216308DB006408DC009831221C2D28EC
:10305000DB09DC09DB0A0319DC0A803105212300C6
:10306000ED0A9031DC2F2400A00104302002031867
:1030700008000130A400B830A3002008B0000530DB
:10308000B100803140214F082307A1002408A2008D
:103090000318A20A22088500210884000008033AC8
:1030A0009831031DAC2822088500210884000230D5
:1030B0008407AB01813000020319003C0319AB0AFD
:1030C000AA0123006D086302031D68282400AA0AD0
:1030D0002400A801AA08031DAB08031DA80A2208A2
:1030E00085002108840002308407A6018030000298
:1030F0000319003C0319A60A220885002108840050
:1031000002308407A701000823006D02031D8A28EE
:103110002400A70A2400A901A6080319A708031D73
:10312000A90AA501A8080319A908031DA50AA5084D
:103130000319AC282008A60023006E082400A7006D
:1031400023006F082400A80022088500210A8400BB
:103150000008A9008831DD242400A00A9831352810
:1031600001302300EC006030EB00ED010830EE0090
:103170008831BC2401302300EC00B830EB00ED01B5
:103180001430EE00BC240925B9270800C030210006
:10319000E000220063082300ED000F30ED056D080C
:1031A0002100E100220062082300ED006D082100EB
:1031B000E200220067082300ED000F30ED056D08E6
:1031C0002100E300220066082300ED006D082100C5
:1031D000E400220065082300ED000F30ED056D08C6
:1031E0002100E500220064082300ED006D082100A5
:1031F000E600220061082300ED000F30ED056D08A8
:103200002100E700220060082300ED006D08210086
:10321000E80009302300D400D30108007A302100EF
:103220009900C8308C00FB308E0023008C018E0189
:1032300020008C018E018831E1259031D622883121
:10324000FA259031E422B02090319B269831B020AD
:103250008B170B17C8302300D000D100D201DF013B
:10326000E001E101E701E801E901EA012300DE08EC
:10327000983103194E29DE019031E522D0089831AA
:1032800003194629D00B462922000C112300D1082E
:1032900003194E29D10B4E2922000E1190318B219A
:1032A00021082300EB00F0306B05EC006C08F03ACD
:1032B000983103196B29703A0319482A103A0319F7
:1032C0005B2A203A0319702A603A0319B12A303A6E
:1032D0000319BA2AE52A6B08F83A03197929023A40
:1032E0000319412A013A0319422A073A0319422ACB
:1032F000E52ACE08031D7F29CF080319DF296708B7
:103300002400D500230068082400D60023006908A3
:103310002400D70023006A082400D8000730DD000D
:10332000DE01DF01E00180314D2164082300ED0062
:10333000240065082300EE00240066082300EF0047
:1033400024006708A00023006D08E7006E08E8006D
:103350006F08E900240020082300EA006A0DEA0C47
:10336000E90CE80CE70C6A0DEA0CE90CE80CE70C38
:103370006A0DEA0CE90CE80CE70C4E082400A000EA
:1033800023004F082400A100A201A30123009831CB
:10339000CF1FCD292400A203A3032400200823006B
:1033A000E707240021082300E83D24002208230029
:1033B000E93D240023082300EA3DCE01CF01DC08CB
:1033C000031D362A22000E1564302300D100670841
:1033D000680469046A04FF390319362AED010030D4
:1033E0002400D200D5002030D3004E30D40023007A
:1033F00067082400D600230068082400D7002300B3
:1034000069082400D80023006A082400D90023009A
:10341000EA1F182A2400D609D709D809D909D60ADB
:103420000319D70A0319D80A0319D90A2300ED0A88
:103430002400803189216308AC006408AD00650870
:10344000AE006608AF00230098316D1C332A2400BB
:10345000AC09AD09AE09AF09AC0A0319AD0A0319ED
:10346000AE0A0319AF0A24009031DA27DC0A1830BB
:103470005C020318DC016B08ED0090312A239831BF
:10348000E52ADC016B08ED0090312A239831E52A0A
:103490000F306B05ED004C08EE00EF018831FB2684
:1034A0000F3023006B05ED004C08EE00EF0190316A
:1034B000BA259831E52A0F306B05ED004C08EE0077
:1034C0004D08EF008831FB260F3023006B05ED001F
:1034D0004C08EE004D08EF009031BA259831E52AEE
:1034E0004C08633A03197E2A013A0319832A643A85
:1034F0000319872A203A03198A2A9D2A4D08DF00DA
:10350000E001E101E52A4D08E000E101E52A4D086E
:10351000E100E52A5F082400A200230060082400DF
:10352000A300230061082400A40023004D08240008
:10353000A50088313A249831E52A0F306B05ED005B
:103540004C08EE004D08EF00903155270F30230056
:103550006B05ED004C08EE004D08EF00C2249831D9
:10356000E52A0F306B05ED004C08EE009031D826AF
:103570009831E52A4C08E500E601E50DE60DE50D7C
:10358000E60DE50DE60DE50DE60DE50DE60DE50DA7
:10359000E60DE50DE60D8030E5057F304D05ED00CB
:1035A0006D08E5040F306B05ED006508EE00660858
:1035B000EF00883103260F3023006B05ED0065080E
:1035C000EE006608EF009831332021009119F12AAE
:1035D0002300D2080319F12AC6209031CF222300FC
:1035E000D2012300D608983103193629D60190312B
:1035F0002021983136292300D701D801D901DA01D9
:10360000DB01DC01DD01DE01CE01CF012200EC0196
:10361000ED012300D6012200EE01EF012300D501C8
:10362000D301D401D001D101DF01E001E10121008A
:10363000EC012200E801E001E1012300E201003099
:1036400085002030840047302000E7008001840A94
:103650009831E70B262B0030850068308400173046
:10366000FF008001840AFF0B312B2300E3010A30A5
:10367000E4002200A0010E290B1D482B053020007C
:10368000950001302300DE00CE0A0319CF0A0B118A
:103690002000911E6F2B230019082400E80023004E
:1036A000570A2400E9003F30E905230058082400A8
:1036B00069060319682B00308500A03084002300C0
:1036C0005708840724006808800069082300D70091
:1036D00022000C1502302300D00020009112911D11
:1036E000090091112300540853020318822B003063
:1036F0008500E03084005308D30A840700082400C2
:103700009100090054085306031D8A2BD30A240094
:1037100016150900D5080319982B22006E08EC0431
:103720006F08ED04EE01EF012300D5010130D60052
:06373000210091110900C7
:020000040001F9
:02000E00A4FF4D
:02001000FFDE11
:00000001FF
