:020000040000FA
:040000009831652CA2
:040008009831A22C5D
:02000E00A50843
:10001000031D0B280800F93000000000000000005C
:1000200000000000000000000000000000000000D0
:10003000FF3E031D0C28000000000000000000002F
:1000400000000000000000000000000000000000B0
:10005000A50B0B280800D001D1014D08003A031967
:100060005328013A03195728033A03195B28013A28
:1000700003195F28073A03196328013A031967280F
:10008000033A03196B28013A03196F280F3A031931
:100090007328013A03197728033A03197B28013A98
:1000A00003197F2808000430D000D10182280830CD
:1000B000D000D10182280230D000D1018228013045
:1000C000D000D1018228D0010130D1008228D00196
:1000D0000230D1008228D0010430D1008228D00122
:1000E0000830D1008228D0011030D1008228D00100
:1000F0002030D1008228D0014030D1008228D001A8
:100100008030D100CE080319E328CF080319A828AE
:100110002300D4080319A8282400500822006E05E3
:100120002400D200510822006F052400D300D20819
:10013000031DC328D308031DC32850082200EE0462
:10014000240051082200EF0401302300D700C32807
:100150002400500822006C052400D200510822001F
:100160006D052400D300D208031DC328D308031D46
:10017000C32850082200EC04240051082200ED049A
:1001800001302300D80024004C0885004B0A84006D
:100190000008803A0319003A031DD6284A08850052
:1001A0004908840023005108800008004C0885009D
:1001B0004B0A84000008D2004A08850049088400E0
:1001C000520880000800500822006C05031DEE282C
:1001D0002400510822006D050319FD282400500950
:1001E000D2005109D30052082200EC052400530824
:1001F0002200ED0501302300D80024004A088500C4
:1002000049088400003080000800DE1F0929DD0154
:10021000DE015E080F3C031D0F295D08FF3C03183B
:100220001729DE1B1729FF30DD000F30DE000130FB
:100230008500603084005C08DF0003105F0D8407D8
:100240000008E000840A60085D06031D2B290008F1
:100250005E060319080001308500603084005C08E8
:10026000E0000310600D8407840A5D08E1005E0869
:10027000800084036108800001302300D40008005E
:10028000D001D101D0190800311C48293008D1070C
:10029000B10C0310B00DD00A4229E501E601E701D7
:1002A000E801E901E51A08005F1C64295708E60720
:1002B00058080318580FE70759080318590FE8079B
:1002C0005A0803185A0FE9070310E20CE10CE00C7E
:1002D000DF0C0310D70DD80DD90DDA0DE50A522920
:1002E000D001D701D8014C08D1004D08D200501AD6
:1002F00008004E1C81295108D70752080318520FD5
:10030000D8070310CF0CCE0C0310D10DD20DD00A9C
:100310007729DF01E001E101E201E501E601E70102
:10032000E801E30120306305E400E408031D080050
:10033000E535E60DE70DE80DD40DD50DD60DD70D3D
:10034000DF0DE00DE10DE20D5B086202031DB22935
:100350005A086102031DB22959086002031DB2291F
:1003600058085F02031CC3295808DF025908031C00
:10037000590FE0025A08031C5A0FE1025B08031CE4
:100380005B0FE2026514E30A92296E0824009100D3
:100390001F30160503191419C82908000030BC00C5
:1003A0002030BB003808B0000630B10040215108B1
:1003B0003B07B9003C08BA000318BA0A0030BE0077
:1003C0006830BD003808BF0003103F0DBD0703189B
:1003D000BE0A3E0885003D088400003080003A08CF
:1003E0008500390884000008C0004008143A031949
:1003F000FD29013A0319FD290C2A3A08850039081C
:100400008400033084070008C1003E0885003D0ACF
:10041000840041088000122A3E0885003D0A8400BD
:10042000003080003D08C9003E08CA003908CB00F2
:100430003A08CC003808CD00CE01CF012B200800AF
:100440003608DC003708CC00CD01F430CE00013096
:10045000CF0070215708DD005808DE000521080094
:100460004D08DA00DB01DC01E1014E08083ED40052
:100470004F08D9000318D90A5908D500D601D70169
:10048000D91F442AD603D703D508031D4D2AD60801
:10049000031D4D2AD7080319522AD001D101D201D8
:1004A000D301682A6108DD005408FF390319602A66
:1004B000DA35DB0DDC0DDD0DE11BDD17FF3E552AC6
:1004C0005A08D0005B08D1005C08D2005D08D30058
:1004D0005008D7005108D8005208D9005308DA0054
:1004E000F430DF000130E000E101E2014D21660857
:1004F000DC006708DD006808E3006908E4005C08C8
:10050000D0005D08D1006308D2006408D300DC018C
:100510005008D4005108D5005208D6005308D7001F
:10052000D31F9E2AD409D509D609D709D40A03199D
:10053000D50A0319D60A0319D70ADC0A0C30D800E9
:10054000D901DA01DB0189216508D0006608D100F4
:100550006708D2006808D3005C1CB92AD009D10909
:10056000D209D309D00A0319D10A0319D20A0319EF
:10057000D30A4C08DC005108DD005208DE000521DA
:1005800008004A087F3C0318C72A7F30CA00490880
:10059000DC004A08CC00CD014B08CE00CF01702111
:1005A0005708DD005808DE00DD0DDE0DDD0DDE0D27
:1005B000FC30DD05052108002400A40104302402DC
:1005C000031808000130850020308400240EF03923
:1005D0008407053084070030800020308400240E1A
:1005E000F039840706308407FF3080002030840013
:1005F000240EF039840706308407840AFF30800017
:1006000020308400240EF039840708308407FF303E
:10061000800020308400240EF039840709308407DC
:10062000FF30800020308400240EF03984070A3027
:100630008407033084070030A500A600A70000301F
:100640008000840327088000840326088000840338
:100650002508800020308400240EF03984070E30F5
:1006600084070030800020308400240EF039840795
:100670000F30840700308000A40ADE2A04302902EB
:10068000031C442BB40108000130B300A030B200B9
:100690002908B0000630B100402151083207AD00F2
:1006A0003308AE000318AE0A2A08023A03196B2B6E
:1006B000013A03199B2B073A0319A42B013A03199A
:1006C000AF2B023A0319BA2B0F3A0319C52B013A83
:1006D0000319D42B5C2C2B08013A0319762B033A0F
:1006E00003197F2B023A0319882B882B2E088500CB
:1006F0002D088400803080000130B40008002E08EE
:1007000085002D088400813080000130B40008008D
:1007100001302C02031C5C2C2C08103C031C5C2CAC
:100720002C03B5002E0885002D08840035088000B4
:100730000130B40008002E0885002D0A84002C0822
:1007400080000130B40008002E0885002D088400C8
:10075000023084072C0880000130B40008002E0805
:1007600085002D088400033084072C0880000130A8
:10077000B40008002E0885002D088400043084078A
:100780002C0880000130B400080009302C02031846
:100790005C2C2E0885002D088400053084072C0869
:1007A00080000130B4000800A9080319DB2B2908D8
:1007B000023A031D5C2C2C08003C03185C2C7F3093
:1007C0002C0203185C2C01308500A030840029081D
:1007D000B0000630B10040215108B500350884074B
:1007E0000008B600840A0008B700840A0008B800B0
:1007F000840A0008B900840A0008BA00840A0008C4
:10080000BB0001308500A0308400290AB00006300A
:10081000B10040215108840736088000840A370857
:100820008000840A38088000840A39088000840A1D
:100830003A088000840A3B08800001308500A0301F
:1008400084002908B0000630B10040215108840717
:10085000840A003080002C03B50001308500A030F0
:1008600084002908B0000630B100402151088407F7
:10087000023084073508800001308500A0308400F4
:10088000290AB0000630B100402151088407840ACB
:100890002C08800001308500A0308400290AB000B7
:1008A0000630B100402151088407023084077F30B0
:1008B00080000130B4000800B4010800200091114C
:1008C000240016152000911D622C080020009111B3
:1008D000240016142000911D6A2C23006D08EE00E0
:1008E000EE35C52108002908023A03197B2C0E3A7F
:1008F00003198E2C992C2A08003A031D7F2C0130F5
:100900002B02031C992C2B08103C031C992C2B0345
:100910002300D00001302400AC0008002A08013A6E
:10092000031D992C2B082300D10001302400AC00BA
:100930000800AC0108002400A4010C3024020318B4
:1009400008002408B800CE212400A40A9D2C0C30F5
:100950002902031CAD2CB70108000030B300203081
:10096000B2002908B0000630B1004021510832071A
:10097000AD003308AE000318AE0A0030B500683091
:10098000B4002908B6000310360DB4070318B50AE1
:100990002A08013A0319E22C033A0319B92D013A46
:1009A0000319FE2D073A0319162E013A0319282EB2
:1009B000083A03193A2E013A03194D2E073A031942
:1009C000732E8E2E2908B800CE2124002B08003A61
:1009D00003190F2D0B3A0319182D073A0319182D77
:1009E000013A0319182D033A0319182D0F3A031968
:1009F000602D033A03197F2D163A0319982D013AF9
:100A00000319982D033A0319982D013A0319982DCB
:100A10000F3A0319982D013A0319982D8E2E2E089E
:100A200085002D088400003080000130B7000800E8
:100A30000B302B02B8002E0885002D0884000230F0
:100A40008407380880002C08013A0319372D033A2F
:100A50000319372D013A0319372D073A0319372D9A
:100A6000043A0319482D053A0319542D8E2E2C03F0
:100A7000B8003808033EB9002E0885002D08840010
:100A800039088000840A803080000130B7000800F7
:100A90002E0885002D08840002308000840A8030F2
:100AA00080000130B70008002E0885002D08840062
:100AB00001308000840A803080000130B7000800D7
:100AC0002E0885002D088400013080000230840744
:100AD000813080002D088400033084072C088000BA
:100AE0002D08840004308407003080002D08840025
:100AF00005308407003080000130B70008002E0860
:100B000085002D0884000230800002308407813087
:100B100080002D088400033084072C0880002D08F5
:100B2000840004308407403080000130B7000800A2
:100B30002E0885002D0884002B08800003308407D0
:100B400000308000AC080319AE2D2E0885002D085A
:100B50008400023084072C088000B62D2E08850002
:100B60002D08840002308407063080000130B70071
:100B700008002E0885002D08840000030319C82DE5
:100B80002E0885002D0884000008023A031D8E2ED1
:100B90002B08003A0319D32D013A0319E82D033A23
:100BA0000319F32D8E2E01302C02031C8E2E2C08DF
:100BB000103C031C8E2E2C03B8002E0885002D0837
:100BC000840002308407380880000130B700080034
:100BD0002E0885002D0884000230840780308000B4
:100BE0000130B70008002E0885002D08840002306F
:100BF0008407813080000130B70008002E0885008E
:100C00002D0884000003031D8E2E2E0885002D085C
:100C10008400033084072C0880002D0884000430F1
:100C20008407003080000130B70008002E088500DE
:100C30002D0884000003031D8E2E2E0885002D082C
:100C40008400043084072C0880000130B7000800BD
:100C50002E0885002D0884000003031D8E2E2E080B
:100C600085002D088400053084072C0880000130A1
:100C7000B70008002E0885002D0884000008023AFD
:100C8000031D8E2E2E0885002D0884000430840755
:100C90002C0880000130B70008002B08013A031926
:100CA000582E013A0319612E023A03196A2E8E2E2C
:100CB0002E0885002D0A84002C0880000130B70022
:100CC00008002E0885002D0A8400003080000130C5
:100CD000B70008002E0885002D0A840080308000AF
:100CE0000130B70008002E0885002D088400000898
:100CF000143A0319832E2E0885002D08840000085D
:100D0000153A031D8E2E2E0885002D088400033011
:100D100084072C0880000130B7000800B7010800E4
:100D2000C0010C304002031808000030C2006830D7
:100D3000C1004008C3000310430DC1070318C20AD5
:100D40000030C7002030C6004008B0000630B100B7
:100D5000402151084607C4004708C5000318C50ACA
:100D60004508850044088400023084073F080006D7
:100D7000031DB62F45088500440884000008C800FC
:100D80004808013A0319D42E033A0319FA2E013AFE
:100D90000319202F073A0319452F013A03196B2F26
:100DA000033A0319912FB62F3E080A3A031DE72E86
:100DB0004108C9004208CA004408CB004508CC00DD
:100DC0004008CD000130CE00CF002B20B62F3E08CA
:100DD000093A031DB62F4108C9004208CA00440859
:100DE000CB004508CC004008CD00CE010130CF003B
:100DF0002B20B62F3E08093A031D0D2F4108C900CC
:100E00004208CA004408CB004508CC004008CD0089
:100E10000130CE00CF002B20B62F3E080A3A031D2A
:100E2000B62F4108C9004208CA004408CB00450853
:100E3000CC004008CD00CE010130CF002B20B62FD2
:100E40003E03031D322F4108C9004208CA0044086E
:100E5000CB004508CC004008CD000130CE00CF00CB
:100E60002B20B62F3E08053A031DB62F4108C900B6
:100E70004208CA004408CB004508CC004008CD0019
:100E8000CE010130CF002B20B62F3E08023A031DC1
:100E9000582F4108C9004208CA004408CB00450841
:100EA000CC004008CD000130CE00CF002B20B62F63
:100EB0003E08063A031DB62F4108C9004208CA0081
:100EC0004408CB004508CC004008CD00CE010130DD
:100ED000CF002B20B62F3E08033A031D7E2F41087A
:100EE000C9004208CA004408CB004508CC004008AD
:100EF000CD000130CE00CF002B20B62F3E08073AA0
:100F0000031DB62F4108C9004208CA004408CB009F
:100F10004508CC004008CD00CE010130CF002B2089
:100F2000B62F3E08043A031DA42F4108C900420809
:100F3000CA004408CB004508CC004008CD00013071
:100F4000CE00CF002B20B62F3E08083A031DB62F47
:100F50004108C9004208CA004408CB004508CC003B
:100F60004008CD00CE010130CF002B202400C00A64
:100F7000912E23009518B92F6F08910024002A089C
:100F8000230093009513151524002B108B1B2B1495
:100F90008B13553023009600AA3096009514151136
:100FA00024002B188B172B1C8B130800230095187B
:100FB000D62F240028082300910095131514130838
:100FC0002400A900080008002908043C0318EA2F9F
:100FD000B40108000130B300B830B2002908B000F5
:100FE0000530B100402151083207AD003308AE0092
:100FF0000318AE0A2A08013A883103190C280F3A5F
:101000000319C328013A0319D828713A0319E928AA
:10101000013A0319E92819292B08773A03193E28C0
:101020000F3A03193E28013A03193E28033A0319DF
:101030003E28013A03193E28073A03193E28013A8F
:1010400003193E28033A03193E28013A03193E28A2
:101050007F3A03195428143A03196328163A0319DE
:101060006F28093A03198628073A03198628013A96
:1010700003198628033A0319862819292E088500A2
:101080002D0884000730800077302C02B500840AD8
:10109000350880002908B6002C08B70080312022CE
:1010A00001302400B40008002908B600B7018031DF
:1010B000202224002E0885002D08840000308000A6
:1010C0000130B40008002E0885002D088400063089
:1010D0008000840A053080000130B40008002E082A
:1010E00085002D088400053080000230840781309F
:1010F00080002D088400033084072C0880002D0A0E
:101100008400053080000130B40008000B302B0251
:10111000B5002E0885002D088400023084073508AC
:1011200080002C08013A0319A228033A0319A228C7
:10113000013A0319A228073A0319A228103A031901
:10114000B72819292E0885002D0884000130800059
:101150002C03B50003308407350880002D08840077
:1011600004308407003080000130B40008002E08ED
:1011700085002D08840002308000840A053080003C
:101180000130B40008002E0885002D0884000003FB
:10119000031D192940302C02B5002E0885002D08AA
:1011A000840004308407350880000130B400080052
:1011B00000302C02031C19292C08083C031C192997
:1011C0002E0885002D0A84002C0880000130B40010
:1011D00008002E0885002D0884000008073A031D2A
:1011E0001929AB080319F7282C08B500FA282C098F
:1011F000B500B50A2A087E3A031D0729003085008C
:10120000EC30840029088407350880000F2901305C
:101210008500683084002908840735088000290883
:10122000B6002E0885002D0A84000008B700803122
:1012300020222400B4010800C30104304302031833
:1012400008000130C700B830C6004308B0000530C0
:10125000B1008031402151084607C4004708C5004D
:101260000318C50A450885004408840080088831B1
:101270000319D129450885004408840002308407F9
:101280003F080006031DD1290130C2002030C100F3
:101290003F0EF039C1070318C20A4508850044080B
:1012A00084000008C8004808013A03195B29033A82
:1012B0000319B129D1293E08013A03196929033AD2
:1012C00003196929013A03196929073A0319692998
:1012D000D1293E03C000450885004408840003303E
:1012E000840740080006031DD129450885004408ED
:1012F0008400043084070008CB00420885004108C0
:1013000084000630840740088407CA014B080007A0
:10131000C9000318CA0ACA1F92290C30C90703184A
:10132000CA0A8B2949087F3C4A080318031DCA1BB7
:101330009E290C30C902031CCA0392294308CC0021
:101340004908CD0042088500410884000A3084071E
:101350000008CE00840A0008CF0080313022883196
:10136000D1293E08013A0319BF29033A0319BF29BD
:10137000013A0319BF29073A0319BF29D1294308A4
:10138000C90042088500410884000E308407000827
:10139000CA0045088500440A84000008CB0080315B
:1013A000C1222400C30A88311D292608003C2708D1
:1013B0000318031DA71B08002908850028088400BE
:1013C00000082300EF00240025088500240884007D
:1013D0000008AA008031B927290885002808840060
:1013E00000082300EF00840AEF0A0319800A84032F
:1013F0006F0880002400A40A0319A50AA60803198F
:10140000A703A6038831D5292408003C2508031822
:10141000031DA51B08002708850026088400000876
:10142000A8008031D62729082300EF0024002308D4
:1014300085002208840023006F088000240027080C
:1014400085002608840000082300EF00840AEF0AC4
:101450000319800A84036F0880002400A20A03197C
:10146000A30AA4080319A503A4038831042A2B089E
:1014700085002A088400840A18302300EF008001C8
:1014800084036F08800001302400AD00A030AC0060
:101490000800AE012C0885002B0884000530840765
:1014A00000082E020318842A2C0885002B082E071A
:1014B00084002D080006031D822A2C0885002B08B5
:1014C00084000530840780032C0885002B088400E5
:1014D0000530840700082E0203187F2A2C08850097
:1014E0002B0884002E0AAF002F0884070008B200E2
:1014F0002B082E07840032088000AE0A642A0130CF
:10150000AF000800AE0A4A2AAF010800B601BB01CD
:10151000FF30B700B800B900BA002F0885002E08C8
:1015200084000530840780080319832C2F08850068
:101530002E088400053084070003031DA62A2F0807
:1015400085002E0884000008B700832C330885002E
:1015500032088400053084070008BC003C08033AC8
:101560000319C82A073A0319C82A053A0319342B64
:10157000033A0319342B043A0319A02B013A031937
:10158000A02B0F3A0319A02B083A0319372C372C3C
:101590002F0885002E0884000008B7000130B50030
:1015A0002F0885002E0884000530840700083502C6
:1015B00003185A2C2F0885002E08350784000008D0
:1015C00037020318F12A3908BA003808B900370879
:1015D000B8002F0885002E08350784000008B700E2
:1015E000322B380A0319FD2A2F0885002E083507EB
:1015F0008400000838020318092B3908BA0038089B
:10160000B9002F0885002E08350784000008B800AF
:10161000322B390A0319152B2F0885002E083507A0
:1016200084000008390203181F2B3908BA002F085C
:1016300085002E08350784000008B900322B3A0ACD
:1016400003192B2B2F0885002E083507840000086E
:101650003A020318322B2F0885002E083507840024
:101660000008BA00B50AD02A2F0885002E08840089
:101670000008B7000130B5002F0885002E0884004F
:10168000053084070008350203185A2C2F088500FE
:101690002E08350784003708000203185D2B39082F
:1016A000BA003808B9003708B8002F0885002E089E
:1016B000350784000008B7009E2B380A0319692BF0
:1016C0002F0885002E08350784003808000203180B
:1016D000752B3908BA003808B9002F0885002E0884
:1016E000350784000008B8009E2B390A0319812BA6
:1016F0002F0885002E0835078400390800020318DA
:101700008B2B3908BA002F0885002E083507840076
:101710000008B9009E2B3A0A0319972B2F08850061
:101720002E08350784003A08000203189E2B2F0864
:1017300085002E08350784000008BA00B50A3C2B46
:101740003308850032088400053084070630000223
:10175000BD0002303D07B5002F0885002E0884002B
:101760000F3084078008031DBC2B2F0885002E082E
:1017700084000008BD00C42B2F0885002E088400BB
:10178000063084070008BD003D08B7002F0885001B
:101790002E0884000F3084070003031DD62B2F086A
:1017A00085002E0A84000008BD00DF2B2F0885006D
:1017B0002E08840006308407840A0008BD003D0816
:1017C000B8002F0885002E0884000F308407000819
:1017D000023A031DF82B3508023C0318F82B2F089A
:1017E00085002E088400023084070008BD00002C0C
:1017F0002F0885002E088400083084070008BD00EB
:101800003D08B9002F0885002E0884000F3084079A
:101810000008033A031D192C3508033C0318192C42
:101820002F0885002E088400033084070008BD00BF
:10183000212C2F0885002E08840009308407000819
:10184000BD003D08BA002F0885002E0884000F3027
:101850008407800A0008350203185A2C2F088500D7
:101860002E0884000F308407003080005A2CB50108
:101870000430350203185A2C2F0885002E088400E6
:10188000053084070008350203185A2C2F088500FC
:101890002E0884003508BD003D0884070008BE00FE
:1018A0000230850037308400350884073E08800008
:1018B000B50A382C330885003208840005308407C7
:1018C0000008023A03196E2C3308850032088400A0
:1018D000053084070008043A031D832C370A0319D6
:1018E000832C380A0319832C390A031D7C2C3808F1
:1018F000BA00FF30B800832C3A0A031D832C390844
:10190000BA00FF30B900B501043035020318D42CF9
:101910002F0885002E088400063084073508BC0097
:101920003C0884070008BD00023085003730840081
:10193000350884073D0800060319D12C02308500C4
:10194000373084003508BE003E0884070008BF0019
:101950002F0885002E088400063084073508840788
:101960003F08800002308500373084003508840746
:10197000000A0319C82C350ABE003408BF001C2118
:10198000350ABE003408BF00803190268831CF2C44
:101990003508053EBE003408BF0080319026013076
:1019A000BB00B50A8831842C3B08BC000800A801A4
:1019B0002408013A0319192D0A3A0319252D073A6B
:1019C0000319252D013A0319252D033A0319252D55
:1019D000113A0319342D3F3A0319342D013A0319F2
:1019E000342D033A0319342D013A0319342D073AE3
:1019F0000319342D013A0319342D033A0319342DF8
:101A0000013A0319342D0F3A0319342D013A031901
:101A1000342D033A0319342D3F3A0319432D033A69
:101A20000319432D013A0319432D0F3A0319432D8E
:101A3000502D2508A9002608AA002708AB008031F0
:101A400073242C08A8008831502D0B302402A900E3
:101A50002508AA002608AB002708AC0080313E23E9
:101A60003408A8008831502D1F302402A900250811
:101A7000AA002608AB002708AC008031A72437084D
:101A8000A8008831502D15302402A9002508AA008D
:101A90002608AB002708AC008031E4273408A800F2
:101AA000A8080319080022000E15FF302300D300F8
:101AB000080023006D082400A10023006E08240004
:101AC000A2002008003C0318722D2208850021087E
:101AD0008400A10A0319A20A23006F0880002400D1
:101AE000A003612D23006D082400A30023006E08CD
:101AF0002400A40008002B0885002A088400840A1A
:101B000002302300EF00800184036F088000013061
:101B10002400AD00D030AC0008002B0885002A0856
:101B20008400840A48302300EF00800184036F089A
:101B3000800000302400AD002030AC0008002808F0
:101B4000DC002908D7002A08D800D901DA01AA1F29
:101B5000AB2DD903DA032B08DF00E001E101E2013C
:101B600080314D216608DD006708DE006808AD00A1
:101B70006908AC00AD0CDE0CDD0CAD0CDE0CDD0C30
:101B8000AD0CDE0CDD0CAD0CDE0CDD0CAD0CDE0C9A
:101B9000DD0C052108002B0885002A088400840A32
:101BA00014302300EF00800184036F0880000130AF
:101BB0002400AD00B830AC00080060302300ED0018
:101BC000803166248F302300EE00C5215E24603012
:101BD0002300ED006624CF302300EE00C5215E24F3
:101BE00008008031DC229B24E32708002F088500B1
:101BF0002E088400053084070008003C03180A2ED4
:101C00002F0885002E08840000083206031D0A2EC6
:101C1000B4010800B3012F0885002E0884000530A8
:101C200084070008330203183E2E2F0885002E0873
:101C30003307840032080006031D3C2E3308003CA5
:101C40000318332E2F0885002E0884003303B500B7
:101C5000350884070008B6002E08330784003608CC
:101C60008000B3031E2E2F0885002E088400320842
:101C700080000130B4000800B30A0B2E2F08850045
:101C80002E088400053084070008053A031D5F2EE6
:101C90000430B3003308003C0318832E2F0885005E
:101CA0002E0884003303B500350884070008B60009
:101CB0002E083307840036088000B3034A2E2F080D
:101CC00085002E088400053084070008B30033081F
:101CD000003C03187C2E2F0885002E088400330357
:101CE000B500350884070008B6002E0833078400C5
:101CF00036088000B303672E2F0885002E08840065
:101D000005308407800A2F0885002E0884003208D9
:101D100080000130B4000800B601B901BA013208F0
:101D2000B7003308B800B51F9B2EB617B409B50924
:101D3000B40A0319B50A361AAD2E341CA52E37087D
:101D4000B90738080318380FBA070310B50CB40CDC
:101D50000310B70DB80DB60A9B2EB61F0800B909BF
:101D6000BA09B90A0319BA0A0800200091109112A1
:101D700021009110911623001F129F159F101F1014
:101D80001E139E121E129E111E111E109D171D1352
:101D90009D161D169C011F309B0008002100951206
:101DA00095111511951415148B160B1108002400AC
:101DB000A001A1012300EF01A5302400AA00803179
:101DC000B9270130A200A3010230AB002030AA00E5
:101DD00088317B252C08A4002D08A5002008A6002A
:101DE0002108A7000230A9002230A800D521023026
:101DF000AB002030AA0037222C08A4002D08A50033
:101E00002008A6002108A7000230A9002230A8005F
:101E1000D5210230AB002030AA00CB252C08A4002D
:101E20002D08A5002008A6002108A7000230A9005F
:101E30002230A800D5210230AB002030AA008D2529
:101E40002C08A4002D08A5002008A6002108A70042
:101E50000230A9002230A800D52108002400A801E2
:101E60008031D6272908A53A031D08002300ED017B
:101E7000EE0101302400A000A1010130AB00ED30E3
:101E8000AA0088317B252C08A2002D08A30023007E
:101E90006D082400A40023006E082400A500023071
:101EA000A7002030A60004220130AB00ED30AA00CC
:101EB00037222C08A2002D08A30023006D0824005F
:101EC000A40023006E082400A5000230A7002030E3
:101ED000A60004220130AB00ED30AA00CB252C086F
:101EE000A2002D08A30023006D082400A4002300F5
:101EF0006E082400A5000230A7002030A6000422AE
:101F00000130AB00ED30AA008D252C08A2002D0871
:101F1000A30023006D082400A40023006E08240001
:101F2000A5000230A7002030A60004220800A2016C
:101F300004302202031808000130A600A030A500DA
:101F40002208B0000630B100803140215108250739
:101F5000A3002608A4000318A40A0130A80020301A
:101F6000A700220EF039A7070318A80A2408850045
:101F700023088400B601813000020319003C0319D4
:101F8000B60AB50123006F0850028831031DCA2F1D
:101F90002400B50A2400B301B508031DB608031DCB
:101FA000B30A2408850023088400AF0180300002B2
:101FB0000319003C0319AF0A240885002308840094
:101FC000B201000823006F02031DE82F2400B20AAB
:101FD0002400B401AF080319B208031DB40AA90113
:101FE000B3080319B408031DA90AA90890310319FD
:101FF00089282408850023088400043084072008E9
:10200000B4002108B500B801B901A11F0928B8031F
:10201000B9030030B4020030BA00031C3A0FB50215
:102020000008B200B30188318C263908D4003A0880
:10203000AF00B6012F08D500D601AF1BD603D701DC
:10204000AF1BD7039031AF1F3128D409D509D6096A
:10205000D709D40A0319D50A0319D60A0319D70ACE
:10206000B60A0030D800D900DA004630DB008031F3
:1020700089216508AB006608AE009031361C452802
:10208000AB09AE09AB0A0319AE0AAA012E08AC00CF
:10209000AD01AE1BAD0328088500270884000A3077
:1020A00084070008B200840A0008B300840A00080C
:1020B000B400840A2A083202031D6A282B0833025E
:1020C000031D6A282C083402031D6A282D0800020B
:1020D0000319892828088500270884000A30840706
:1020E000033084072A08B2002B08B3002C08B40080
:1020F0002D088000840334088000840333088000A6
:102100008403320880000B30BE002208BF008831F3
:102110001C21A20A8831982FA20104302202031840
:1021200008000130A4002030A300220EF039A307DC
:102130000318A40A0130A800A030A7002208B000AC
:102140000630B1008031402151082707A50028083A
:10215000A6000318A60A2608850025088400AF01FA
:10216000813000020319003C0319AF0AAE012300BD
:102170006F0850029031031DBF282400AE0A2400CE
:10218000AC01AE08031DAF08031DAC0A260885008C
:1021900025088400AA01803000020319003C0319BD
:1021A000AA0A2608850025088400AB010008230040
:1021B0006F02031DDD282400AB0A2400AD01AA082C
:1021C0000319AB08031DAD0AA901AC080319AD083A
:1021D000031DA90AA90803191D2A26088500250838
:1021E0008400023084078008031D0029260885002A
:1021F000250A8400AA01000820020319AA0A1C2942
:10220000260885002508840002308407AC012008D8
:1022100000020318AC0A26088500250A8400AD01D7
:10222000000820020318AD0AAB01AC08031DAD087D
:10223000031DAB0A2B08AA00AA0803191D2AA1082E
:102240000319CA292608850025088400033084075D
:1022500080080319352926088500250884000330E5
:10226000840700082102031C1D2A24088500230876
:1022700084000E3084072108800026088500250888
:102280008400053084070008AA002A08053A0319CB
:102290005329033A03195329013A031953290F3AD1
:1022A00003195329AA29240885002308840006302D
:1022B0008407AE01831BAE0A0408AF002308840024
:1022C0000F3084070008AF072F08840083132E18EF
:1022D00083172008800024088500230884000F301D
:1022E0008407000ABE002208BF0088311C21240890
:1022F0008500230884000F308407000ABE002208EE
:10230000BF008031902624088500230884000F3008
:102310008407800A0008AB00260885002508840091
:102320000530840706300002AC00AD01AC0A031989
:10233000AD0A2B082C022D0890310318C229031D69
:10234000C22924088500230884000F308407003048
:102350008000C2292308AE002408AF002008B20084
:102360008831F625B40890310319C2292308AE003C
:102370002408AF002508B2002608B3002208B400E4
:10238000883186220A30BE002208BF0080319026A4
:1023900090311D2A26088500250884000530840711
:1023A0000008AA002A08053A0319E029033A03198C
:1023B0001D2A013A03191D2A0F3A03191D2AF5296E
:1023C000240885002308840006308407FF3080003D
:1023D0000530BE002208BF00803190260930BE00C3
:1023E0002208BF00902690311D2A2308AB00240844
:1023F000AC002008AD0088314922AF0890310319A4
:102400001D2A2308AE002408AF002508B2002608C4
:10241000B3002208B40088318622240885002308EE
:1024200084000530840780089031031D1D2A09307F
:10243000BE002208BF0080319026A20A90318D286C
:102440002300ED0104306D0203188D2A0130850050
:10245000A03084006D082400B0000630B100803147
:10246000402151088407FF30800001308500A030F2
:10247000840023006D082400B0000630B100402124
:1024800051088407840A0030800001308500A030A4
:10249000840023006D082400B0000630B100402104
:1024A00051088407023084077F30800001308500A6
:1024B000A030840023006D082400B0000630B10075
:1024C0004021510884070330840700308000013028
:1024D0008500A030840023006D082400B000063081
:1024E000B100402151088407043084070C3080007B
:1024F00001308500A030840023006D082400B00066
:102500000630B100402151088407053084070030AF
:1025100080002300ED0A9031222A8130A000803112
:10252000DC22080022006C082400A00022006D08B4
:102530002400A1008030A200A301A4018030A500E6
:1025400022008C122400A208031DA92AA308031943
:10255000F52A22000C122400220820052300EF0097
:10256000240023082105A600A7012300EF08031D6E
:10257000BB2A2400A70A2400A608031DA701A8015E
:10258000A7080319A80A281CC72A22000C14240033
:102590002818CC2A22000C1024002408200523002F
:1025A000EF00240025082105A600A7012300EF085D
:1025B000031DDC2A2400A70A2400A608031DA70186
:1025C000A801A7080319A80A281CE82A22008C14CD
:1025D00024002818ED2A22008C1022000C1624005A
:1025E000A336A20CA536A40CA22A22008C16080041
:1025F00023009D1CFD2A1D121D165A085906031D95
:10260000042B2400A301080000308500A0308400C2
:102610005A0884070008EF00DA0A3F30DA05F03084
:102620006F052400A0002008F03A031D732B23003F
:102630006F08F83A03192C2B023A03192C2B013A94
:1026400003192C2B073A03192C2B0C3A0319302BA6
:10265000073A0319332BF82A6F082400A300080057
:102660000230DF00F82A5F08013A03196F2B013AA4
:1026700003196F2B053A031D552B22000C150E155F
:10268000FA302400A50080310720FA30A500072089
:10269000FA30A5000720FA30A500072022000C110F
:1026A0000E118831F12590316F2B22000C1124007E
:1026B000A4010A30240203186D2B22000E15643089
:1026C0002400A5008031072022000E116430240070
:1026D000A5000720A40A9031592B8831F125230049
:1026E000DF019031F82A803023006F052400A1001B
:1026F000A201A1080319A20AA208031DA72B230007
:10270000DF01DD016F08DB00F0306F052400A4005D
:102710002408A03A03199F2B603A03199F2B103A03
:1027200003199F2B503A0319A32B103A0319A32B1B
:10273000203A0319A32B503A0319A32BA32B0130E2
:102740002300DC00F82A02302300DC00F82A2300F2
:102750005F08023A0319C52B013A0319D32B073A34
:102760000319E22B013A0319F12B033A0319F52B54
:10277000013A0319F92B0F3A0319FD2B093A0319F2
:10278000F82A013A0319132CF82AEF08031DCC2B61
:1027900003302400A400CF2B01302400A40024081F
:1027A0002300DF00F82A6F087F3A031DDB2B04307B
:1027B0002400A400DE2B01302400A4002408230000
:1027C000DF00F82A6F08123A031DEA2B05302400B7
:1027D000A400ED2B01302400A40024082300DF0016
:1027E000F82A6F08E100DF0AF82A6F08E200DF0A22
:1027F000F82A6F08E300DF0AF82A61082400A40021
:10280000230062082400A500230063082400A6001A
:1028100023006F082400A7008831D7240530230047
:10282000DF009031F82ADB080319F82A013085000F
:10283000CC3084005D08DD0A84076F0880005C08E6
:102840005D02031CF82ADD01F0305B052400A400C2
:102850002408803A0319362C103A0319362C703AA2
:102860000319362C503A0319362CF82A23005B083A
:102870002400A300080020009111210091152400DC
:102880001614080021000E148E1424009516151637
:102890009515151195101510941713309200080016
:1028A0002300D0010A30D10008002300EF010C30D2
:1028B0006F020318080000302400A1006830A00057
:1028C00023006F082400A2000310220DA0070318A4
:1028D000A10A210885002008840080080319942C8F
:1028E0002108850020088400800B942C2008C90052
:1028F0002108CA000030A6002030A50023006F0880
:102900002400B0000630B100803140215108250775
:10291000CB002608CC000318CC0A23006F08240043
:10292000CD00CE01CF012B202300EF0A9031572C90
:102930006F08F83A0319A62C023A0319252D013A1B
:102940000319252D073A0319AC2D08002400A00116
:102950000C302002031808000030A6002030A5002B
:102960002008B0000630B100803140215108250711
:10297000A3002608A4000318A40A2408850023083D
:1029800084000008143A90310319CE2C24088500E5
:10299000230884000008153A031D222D2408850011
:1029A000230884000008153A031DDB2C2300E408EB
:1029B000031DDB2C222D00302400A2006830A10072
:1029C0002008A6000310260DA1070318A20A22085A
:1029D0008500210A84008008031D092D2108C900F3
:1029E0002208CA000030A7002030A6002008B0004E
:1029F0000630B1008031402151082607CB0027085E
:102A0000CC000318CC0A2008CD000130CE00CF0145
:102A10002B20240022088500210A8400800A000857
:102A2000A5002408850023088400023084070008DC
:102A300025029031031C222D22088500210A8400E2
:102A4000003080002400A00AA82C0130E4002400FB
:102A5000A0010C302002031808000030A8006830E4
:102A6000A7002008A6000310260DA7070318A80A30
:102A70002708A1002808A200240885002308840054
:102A80000008A5002508143A0319562D013A031928
:102A9000562D023A03196B2D013A0319702D0E3A87
:102AA0000319702D013A03198E2DA82D23006F08EC
:102AB000FA3A031DA82D2400240885002308840069
:102AC000033084070008A60022088500210A84003C
:102AD00026088000A82D23006F08FA3A031DA82DB0
:102AE00024002108C9002208CA000030A7002030B5
:102AF000A6002008B0000630B10080314021510806
:102B00002607CB002708CC000318CC0A2008CD00EC
:102B10000130CE00CF012B209031A82D2108C90013
:102B20002208CA000030A7002030A6002008B0000C
:102B30000630B1008031402151082607CB0027081C
:102B4000CC000318CC0A2008CD00CE01CF012B20E9
:102B50002400A00A9031292DE4012400A0010C30AA
:102B60002002031808000030A8006830A7002008E1
:102B7000A6000310260DA7070318A80A2708A1001E
:102B80002808A20024088500230884000008A50066
:102B90002508163A0319D02D0F3A0319EC2D072EEC
:102BA0002108C9002208CA000030A7002030A60072
:102BB0002008B0000630B1008031402151082607BE
:102BC000CB002708CC000318CC0A2008CD00CE018A
:102BD000CF012B209031072E2108C9002208CA00FE
:102BE0000030A7002030A6002008B0000630B10059
:102BF0008031402151082607CB002708CC0003185C
:102C0000CC0A2008CD000130CE00CF012B202400BB
:102C1000A00A9031AF2DA2010C3022020318080047
:102C20000030A4006830A3002208A5000310250D81
:102C3000A3070318A40A0030A9002030A800220826
:102C4000B0000630B1008031402151082807A600AD
:102C50002908A7000318A70A27088500260884006A
:102C60000008023A9031031DF52E2708850026083A
:102C700084000330840700082006031DF52E270872
:102C800085002608840002308407B20181300002EA
:102C90000319003C0319B20AAF0123006F08500268
:102CA000031D542E2400AF0A2400AD01AF08031DFC
:102CB000B208031DAD0A27088500260884000230EB
:102CC0008407AB01803000020319003C0319AB0AF2
:102CD000270885002608840002308407AC0100081C
:102CE00023006F02031D762E2400AC0A2400AE01DF
:102CF000AB080319AC08031DAE0AAA01AD080319FD
:102D0000AE08031DAA0AAA080319F52E2708850094
:102D1000260884000430840700082102031CBF2E0B
:102D20002708850026088400043084070008AB00CB
:102D300024088500230A84002B080002031CA72E08
:102D400024088500230A8400000A031DBF2E2308DF
:102D5000C9002408CA002608CB002708CC00220896
:102D6000CD000130CE00CF0180312B20240024087B
:102D70008500230A8400210880009031F52E270861
:102D80008500260884000430840700082102031807
:102D9000F52E24088500230A84000008AB002708CC
:102DA0008500260884000430840700082B020318DD
:102DB000E02E24088500230A8400000A031DF52E56
:102DC0002308C9002408CA002608CB002708CC0025
:102DD0002208CD00CE01CF0180312B202400240811
:102DE0008500230A840021088000A20A90310C2E5D
:102DF000A2010C302202031808000030A400683041
:102E0000A3002208A5000310250DA3070318A40A98
:102E10000030A9002030A8002208B0000630B10020
:102E20008031402151082807A6002908A70003186F
:102E3000A70A270885002608840000039031031D97
:102E4000C02F270885002608840002308407B201BD
:102E5000813000020319003C0319B20AAF012300BC
:102E60006F085002031D362F2400AF0A2400AD0165
:102E7000AF08031DB208031DAD0A27088500260808
:102E8000840002308407AB01803000020319003C4B
:102E90000319AB0A2708850026088400023084073E
:102EA000AC01000823006F02031D582F2400AC0A58
:102EB0002400AE01AB080319AC08031DAE0AAA0139
:102EC000AD080319AE08031DAA0AAA080319C02FEA
:102ED0002708850026088400043084078008031D25
:102EE0007D2F270885002608840003308407AB0166
:102EF000000820020319AB0A9B2F2708850026082B
:102F0000840004308407AD01200800020318AD0AD4
:102F1000270885002608840003308407AE010008D6
:102F200020020318AE0AAC01AD08031DAE08031D54
:102F3000AC0A2C08AB00AB080319C02FA108031979
:102F4000AB2F270885002608840005308407000879
:102F50002102031CC02F2308C9002408CA00260828
:102F6000CB002708CC002208CD00AB01A108031933
:102F7000AB0ACE01AB080319CE0ACF0180312B205A
:102F80002400A20A9031F92E2300ED010C306D02CD
:102F900098310318022800302400A3002030A2003A
:102FA00023006D082400B0000630B10080314021BC
:102FB000510822072300EE00240023082300EF001D
:102FC0000318EF0A00302400A5006830A400230095
:102FD0006D082400A6000310260DA4070318A50AF7
:102FE00023006F0885006E08840000308000840A8A
:102FF0000A3080006D082400B800CE212300ED0ABD
:103000009031C62F03302000A000A1010430A6009B
:10301000A7010530AC00AD010630B200B301143099
:10302000E2001830E4000F30E3000800A101043092
:103030002102031808000130A500B830A4002108BF
:10304000B0000530B1008031402151082407A200B2
:103050002508A3000318A30A23088500220884007A
:103060000008043A9831031D8828230885002208A7
:10307000840002308407AC01813000020319003C57
:103080000319AC0AAB0123006F085002031D4A2844
:103090002400AB0A2400A901AB08031DAC08031DE2
:1030A000A90A230885002208840002308407A701AA
:1030B000803000020319003C0319A70A2308850089
:1030C0002208840002308407A801000823006F0250
:1030D000031D6C282400A80A2400AA01A7080319CC
:1030E000A808031DAA0AA601A9080319AA08031D16
:1030F000A60AA608031988282108C9002008CA00C2
:1031000023088500220A84000008CB008031C122F8
:103110002400A10A98311728A201043022020318C2
:1031200008000130A600B830A5002208B000053024
:10313000B1008031402151082507A3002608A400D2
:103140000318A40A24088500230884000008053A0F
:103150009831031D082924088500230884000330C2
:10316000840700082006031D082924088500230879
:10317000840002308407AD01813000020319003C55
:103180000319AD0AAC0123006F085002031DCA28C1
:103190002400AC0A2400AA01AC08031DAD08031DDD
:1031A000AA0A240885002308840002308407A801A5
:1031B000803000020319003C0319A80A2408850086
:1031C0002308840002308407A901000823006F024D
:1031D000031DEC282400A90A2400AB01A808031948
:1031E000A908031DAB0AA701AA080319AB08031D10
:1031F000A70AA708031908292208C9002108CA003C
:1032000024088500230A84000008CB008031C122F5
:103210002400A20A98318D282300EF0104306F02A8
:103220000318080001302400A300B830A2002300D6
:103230006F082400B0000530B100803140215108F2
:103240002207A0002308A1000318A10A2108850075
:10325000200884000008063A9831031D5F292300E6
:103260006F082400DC00A4012C08D4002D08D50030
:103270002E08D6002F08D700AF1F4A29D409D50938
:10328000D609D709D40A0319D50A0319D60A03198E
:10329000D70AA40A1E30D800D901DA01DB01803137
:1032A00089216508DD006608DE009831241C5D294F
:1032B000DD09DE09DD0A0319DE0A8031052123005C
:1032C000EF0A98310E29A2010430220203180800E7
:1032D0000130A600B830A5002208B0000530B100CA
:1032E0008031402151082507A3002608A4000318B7
:1032F000A40A24088500230884000008033A9831B2
:10330000031DD72924088500230884000230840780
:10331000AD01813000020319003C0319AD0AAC0174
:1033200023006F085002031D97292400AC0A2400D3
:10333000AA01AC08031DAD08031DAA0A24088500D4
:103340002308840002308407A8018030000203199A
:10335000003C0319A80A24088500230884000230D1
:103360008407A901000823006F02031DB929240066
:10337000A90A2400AB01A8080319A908031DAB0A78
:10338000A701AA080319AB08031DA70AA708031978
:10339000D7292208A8002008A9002108AA0024088B
:1033A0008500230A84000008AB0088319F25240093
:1033B000A20A9831642901302300EE006030ED004C
:1033C000EF0108302400A000883159250130230086
:1033D000EE00B830ED00EF0114302400A0005925B4
:1033E000DD2501302300B800BB010130BD00C00065
:1033F000C2000230C5000130C7000330CA00E32715
:103400000800C0302100E000220063082300EF0024
:103410000F30EF056F082100E10022006208230051
:10342000EF006F082100E200220067082300EF0090
:103430000F30EF056F082100E3002200660823002B
:10344000EF006F082100E400220065082300EF0070
:103450000F30EF056F082100E5002200640823000B
:10346000EF006F082100E600220061082300EF0052
:103470000F30EF056F082100E700220060082300ED
:10348000EF006F082100E80009302300D600D501C5
:1034900008007A3021009900C8308C00FB308E0083
:1034A00023008C018E0120008C018E018831B5260D
:1034B000903142248831CE26903150242022903100
:1034C000C427DB2188312E278B170B17C830230028
:1034D000D200D300D401E101E201E301E701E801F8
:1034E000E901EA01EB01EC012300E008983103193E
:1034F000A82AE00190315524D20898310319842A72
:10350000D20B842A22000C112300D30803198C2A21
:10351000D30B8C2A22000E1120008E19A52A23001D
:10352000E70A0319E80A6708D03A07300319680662
:10353000031DA82A22000E158831D72622000E1559
:10354000FF302300D3009831A82A2300E701E801C7
:103550009031F82223082300ED00F0306D05EE00D5
:103560006E08F03A98310319C52A703A0319A12B55
:10357000103A0319B52B203A0319CF2B603A0319DF
:10358000162C303A03191E2C4F2C6D08F83A0319EB
:10359000D32A023A03199A2B013A03199B2B073AB3
:1035A00003199B2B4F2CCE08031DD92ACF080319D2
:1035B000392B69082400D70023006A082400D800AA
:1035C00023006B082400D90023006C082400DA00D3
:1035D0000730DF00E001E101E20180314D216608A2
:1035E0002300EF0024006708A0006808A100690814
:1035F000A20023006F08E900240020082300EA004D
:10360000240021082300EB00240022082300EC0002
:103610006C0DEC0CEB0CEA0CE90C6C0DEC0CEB0CEF
:10362000EA0CE90C6C0DEC0CEB0CEA0CE90C4E0806
:103630002400A00023004F082400A100A201A30140
:1036400023009831CF1F272B2400A203A3032400BB
:1036500020082300E907240021082300EA3D240074
:1036600022082300EB3D240023082300EC3DCE017B
:10367000CF01DE08031D8F2B22000E1564302300BE
:10368000D30069086A046B046C04FF3903198F2B9B
:10369000EF0100302400D400D7002030D5004E3098
:1036A000D600230069082400D80023006A082400FB
:1036B000D90023006B082400DA0023006C082400E2
:1036C000DB002300EC1F722B2400D809D909DA098A
:1036D000DB09D80A0319D90A0319DA0A0319DB0A24
:1036E0002300EF0A2400803189216508AC006608B8
:1036F000AD006708AE006808AF00230098316F1C6A
:103700008D2B2400AC09AD09AE09AF09AC0A031931
:10371000AD0A0319AE0A0319AF0A24000C21DE0A10
:1037200018305E020318DE016D08EF009031982416
:1037300098314F2CDE016D08EF00903198249831BC
:103740004F2C0F306D05EF004C082400A000A101A4
:1037500090318C200F3023006D05EF004C082400C1
:10376000A000A101F82698314F2C0F306D05EF0015
:103770004C082400A00023004D082400A100903133
:103780008C200F3023006D05EF004C082400A000B2
:1037900023004D082400A100F82698314F2C4C0836
:1037A000633A0319DD2B013A0319E22B643A03193A
:1037B000E62B203A0319E92BFC2B4D08E100E2012E
:1037C000E3014F2C4D08E200E3014F2C4D08E300CC
:1037D0004F2C61082400A400230062082400A500E7
:1037E000230063082400A60023004D082400A7003E
:1037F0008831D72498314F2C0F306D05EF004C08DD
:103800002400A00023004D082400A1008C200F30CC
:1038100023006D05EF004C082400A00023004D0894
:103820002400A10090310B2698314F2C0F306D05EC
:10383000EF004C082400A00016204F2C4C08E50097
:10384000E601E50DE60DE50DE60DE50DE60DE50DF0
:10385000E60DE50DE60DE50DE60DE50DE60D803016
:10386000E5057F304D05EF006F08E5040F306D056D
:10387000EF0065082400A000230066082400A100D2
:10388000883197270F3023006D05EF00650824006D
:10389000A000230066082400A100983163212100C4
:1038A00091195B2C2300D40803195B2C0122903161
:1038B0003B242300D4012300D80898310319742A2B
:1038C000D801903192229831742A2300D901DA016B
:1038D000DB01DC01DD01DE01DF01E001CE01CF0112
:1038E0002200EC01ED012300D8012200EE01EF01DE
:1038F0002300D701D501D601D201D301E101E201B4
:10390000E3012100EC012200E801E001E1012300D4
:10391000E401003085002030840047302000E700BB
:103920008001840A9831E70B902C003085006830C4
:1039300084001730FF008001840AFF0B9B2C2200BB
:10394000A001492A0B1DAE2C053020009500013046
:103950002300E000CE0A0319CF0A0B112000911EAC
:10396000D52C230019082400EA002300590A24005A
:10397000EB003F30EB0523005A0824006B060319C7
:10398000CE2C00308500A030840023005908840725
:1039900024006A0880006B082300D90022000C155F
:1039A00002302300D20020009112911D09009111D4
:1039B0002300560855020318E82C00308500E0303B
:1039C00084005508D50A84070008240091000900E6
:1039D00056085506031DF02CD50A240016150900BB
:1039E000D7080319FE2C22006E08EC046F08ED04C2
:1039F000EE01EF012300D7010130D8002100911121
:023A00000900BB
:020000040001F9
:02000E00A4FF4D
:02001000FFDE11
:00000001FF
