:020000040000FA
:02000000752960
:08000800B808031D08280800D8
:10001000F9300000000000000000000000000000B7
:1000200000000000000000000000FF3E031D092842
:1000300000000000000000000000000000000000C0
:1000400000000000000000000000B80B08280800B5
:100050004C08240091001F301605031914192B2891
:10006000080020009111240016152000911D35284C
:1000700008009111240016142000911D3C284B0803
:10008000CC00CC35282008008030C500C601C7014F
:100090008030C80022008C122000C508031D5328A0
:1000A000C6080319932822000C12200045084305B6
:1000B000C90046084405CA00CB01C9080319CB0A88
:1000C000CA08031DCB01CC01CB080319CC0A4C1C78
:1000D0006B2822000C1420004C18702822000C10F1
:1000E000200047084305C90048084405CA00CB0161
:1000F000C9080319CB0ACA08031DCB01CC01CB08E0
:100100000319CC0A4C1C862822008C1420004C18A1
:100110008B2822008C1022000C162000C636C50C3D
:10012000C836C70C4C2822008C1608006030CB0063
:10013000392020004608CC000F30CC0528202000B4
:100140004508CC00282020004A08CC000F30CC0500
:10015000282020004908CC00282020004808CC0096
:100160000F30CC05282020004708CC002820200094
:100170004408CC000F30CC05282020004308CC00D8
:100180002820312008002000B801B901BA01BB01C4
:10019000BC01BD010430BE00BF010830C000C10178
:1001A0000C30C200BB08031D1729BC08031D17290A
:1001B000B90A0319BA0A3908033C03183A080319A3
:1001C000E328B901BA0100308500203084003908E5
:1001D000083EC9000310490D84070008CA00840ABC
:1001E0000008CB0000308500203084003908043E30
:1001F000C6000310460D84070008C700840A0008E3
:10020000C80000308500203084003908C500031084
:10021000450D84070008C300840A4708C304480842
:100220000004C4004A08C3044B08C404442020004E
:100230003B08C3003C08C4003D08C5003E08C6009A
:100240003F08C7004008C8004108C9004208CA006A
:1002500096200830BB070318BC0A0830BD070318F6
:10026000BE0A0830BF070318C00A0830C1070318C8
:10027000C20AD22821000E148E14240095161516D9
:10028000951515119510151094170230920008005D
:1002900060302000CB0039208F302000CC00282097
:1002A00031206030CB003920CF302000CC00282016
:1002B000312008007A3021009900C8308C00FB30D2
:1002C0008E0023008C018E0120008C018E01220003
:1002D0000C150E15FF302000B8000420FF30B800C8
:1002E00004203A214821C320080004302000A00047
:1002F000A1010830A200A3010230A400A501013031
:10030000A600A701A8010130A900AA010230AB0094
:10031000AC010430AD00AE010830AF00B0011030C8
:10032000B100B2012030B300B4014030B500B601D5
:080330008030B70080315A292A
:020000040001F9
:02000E00A4FF4D
:02001000FFDE11
:00000001FF
