:020000040000FA
:02000000F429E1
:08000800B808031D08280800D8
:10001000F9300000000000000000000000000000B7
:1000200000000000000000000000FF3E031D092842
:1000300000000000000000000000000000000000C0
:1000400000000000000000000000B80B08280800B5
:100050004508240091001F301605031914192B2898
:10006000080020009111240016152000911D35284C
:1000700008009111240016142000911D3C2844080A
:10008000C500C535282008008030BE00BF01C00172
:100090008030C10022008C122000BE08031D5328AE
:1000A000BF080319932822000C1220003E083C05CB
:1000B000C2003F083D05C300C401C2080319C40AB9
:1000C000C308031DC401C501C4080319C50A451CA2
:1000D0006B2822000C1420004518702822000C10F8
:1000E000200040083C05C20041083D05C300C40192
:1000F000C2080319C40AC308031DC401C501C4080A
:100100000319C50A451C862822008C1420004518B6
:100110008B2822008C1022000C162000BF36BE0C4B
:10012000C136C00C4C2822008C1608006030C40078
:10013000392020003F08C5000F30C50528202000C9
:100140003E08C500282020004308C5000F30C50523
:10015000282020004208C500282020004108C500B2
:100160000F30C505282020004008C50028202000A9
:100170003D08C5000F30C505282020003C08C500FB
:1001800028203120080021000E148E14240095161A
:10019000151695151511951015109417023092002B
:1001A00008002000B801B901BA01BB013808C40039
:1001B0003908C5001F30C50510304502031DE2286F
:1001C00000304402031CE628C51FEB284408BC008D
:1001D0004508BD00F7284408FF3CC6004508031C3D
:1001E000450A1F3CC7004608BC004708BD00003058
:1001F0003807C4003908C5000830C53D1F30C505A3
:1002000010304502031D062900304402031C0A2950
:10021000C51F0F294408BE004508BF001B2944081C
:10022000FF3CC6004508031C450A1F3CC7004608A2
:10023000BE004708BF0000303807C4003908C500B9
:100240001030C53D1F30C50510304502031D2A2959
:1002500000304402031C2E29C51F33294408C00066
:100260004508C1003F294408FF3CC6004508031C5F
:10027000450A1F3CC7004608C0004708C1000030BF
:100280003807C4003908C5001830C53D1F30C50502
:1002900010304502031D4E2900304402031C522930
:1002A000C51F57294408C2004508C30063294408F4
:1002B000FF3CC6004508031C450A1F3CC700460812
:1002C000C2004708C3009620BA08031D6B29BB086B
:1002D000031D6B2984293A08003ABB1F103003190B
:1002E0003B06031992293A08003ABB1F2030031934
:1002F0003B060319A0293A08003ABB1F3030031906
:100300003B060319AE29BB2928082004BC00290894
:100310002104BD003008BC043108BD0444200C1188
:100320000E11BB292A082204BC002B082304BD009F
:100330003208BC043308BD0444200C110E15BB293F
:100340002C082404BC002D082504BD003408BC047E
:100350003508BD0444200C150E11BB292E082604B7
:10036000BC002F082704BD003608BC043708BD04B4
:1003700044200C150E152000B80A0319B90A1F30C5
:10038000B905BA0A0319BB0A3F30BB05D62860304D
:100390002000C40039208F302000C50028203120E3
:1003A0006030C4003920CF302000C5002820312023
:1003B00008007A3021009900C8308C00FB308E0094
:1003C00023008C018E0120008C018E0122000C156F
:1003D0000E15FF302000B8000420FF30B8000420C4
:1003E000C320C721D120080004302000A000A101B3
:1003F0000830A200A3010230A400A5010130A6002C
:10040000A701A8010130A900AA010230AB00AC018C
:100410000430AD00AE010830AF00B0011030B100C3
:10042000B2012030B300B4014030B500B6018030D5
:06043000B7008031D9295C
:020000040001F9
:02000E00A4FF4D
:02001000FFDE11
:00000001FF
